{
  "_format": "hh-sol-artifact-1",
  "contractName": "Stake",
  "sourceName": "contracts/Stake.sol",
  "abi": [
    {
      "inputs": [
        {
          "internalType": "address",
          "name": "token_",
          "type": "address"
        },
        {
          "internalType": "uint256",
          "name": "rewardPercentage_",
          "type": "uint256"
        },
        {
          "internalType": "uint256",
          "name": "lockTime_",
          "type": "uint256"
        }
      ],
      "stateMutability": "nonpayable",
      "type": "constructor"
    },
    {
      "inputs": [],
      "name": "ClosedForStake",
      "type": "error"
    },
    {
      "inputs": [],
      "name": "FailedStakeTransfer",
      "type": "error"
    },
    {
      "inputs": [],
      "name": "InvalidAmount",
      "type": "error"
    },
    {
      "inputs": [],
      "name": "InvalidLockTime",
      "type": "error"
    },
    {
      "inputs": [],
      "name": "InvalidRewardPercentage",
      "type": "error"
    },
    {
      "inputs": [],
      "name": "InvalidTokenAddress",
      "type": "error"
    },
    {
      "inputs": [],
      "name": "NoUnlockedStake",
      "type": "error"
    },
    {
      "inputs": [
        {
          "internalType": "address",
          "name": "owner",
          "type": "address"
        }
      ],
      "name": "OwnableInvalidOwner",
      "type": "error"
    },
    {
      "inputs": [
        {
          "internalType": "address",
          "name": "account",
          "type": "address"
        }
      ],
      "name": "OwnableUnauthorizedAccount",
      "type": "error"
    },
    {
      "anonymous": false,
      "inputs": [],
      "name": "Closed",
      "type": "event"
    },
    {
      "anonymous": false,
      "inputs": [
        {
          "indexed": true,
          "internalType": "address",
          "name": "previousOwner",
          "type": "address"
        },
        {
          "indexed": true,
          "internalType": "address",
          "name": "newOwner",
          "type": "address"
        }
      ],
      "name": "OwnershipTransferred",
      "type": "event"
    },
    {
      "anonymous": false,
      "inputs": [
        {
          "indexed": true,
          "internalType": "address",
          "name": "user",
          "type": "address"
        },
        {
          "indexed": true,
          "internalType": "uint256",
          "name": "startTime",
          "type": "uint256"
        },
        {
          "indexed": true,
          "internalType": "uint256",
          "name": "endTime",
          "type": "uint256"
        },
        {
          "indexed": false,
          "internalType": "uint256",
          "name": "amount",
          "type": "uint256"
        }
      ],
      "name": "Staked",
      "type": "event"
    },
    {
      "anonymous": false,
      "inputs": [
        {
          "indexed": true,
          "internalType": "address",
          "name": "user",
          "type": "address"
        },
        {
          "indexed": false,
          "internalType": "uint256",
          "name": "stake",
          "type": "uint256"
        },
        {
          "indexed": false,
          "internalType": "uint256",
          "name": "reward",
          "type": "uint256"
        }
      ],
      "name": "Withdrawn",
      "type": "event"
    },
    {
      "inputs": [
        {
          "internalType": "address",
          "name": "",
          "type": "address"
        }
      ],
      "name": "allStakes",
      "outputs": [
        {
          "internalType": "uint256",
          "name": "withdrawnIndex",
          "type": "uint256"
        }
      ],
      "stateMutability": "view",
      "type": "function"
    },
    {
      "inputs": [],
      "name": "close",
      "outputs": [],
      "stateMutability": "nonpayable",
      "type": "function"
    },
    {
      "inputs": [],
      "name": "isClosed",
      "outputs": [
        {
          "internalType": "bool",
          "name": "",
          "type": "bool"
        }
      ],
      "stateMutability": "view",
      "type": "function"
    },
    {
      "inputs": [],
      "name": "lockTime",
      "outputs": [
        {
          "internalType": "uint256",
          "name": "",
          "type": "uint256"
        }
      ],
      "stateMutability": "view",
      "type": "function"
    },
    {
      "inputs": [],
      "name": "lockedAmount",
      "outputs": [
        {
          "internalType": "uint256",
          "name": "",
          "type": "uint256"
        }
      ],
      "stateMutability": "view",
      "type": "function"
    },
    {
      "inputs": [],
      "name": "owner",
      "outputs": [
        {
          "internalType": "address",
          "name": "",
          "type": "address"
        }
      ],
      "stateMutability": "view",
      "type": "function"
    },
    {
      "inputs": [],
      "name": "renounceOwnership",
      "outputs": [],
      "stateMutability": "nonpayable",
      "type": "function"
    },
    {
      "inputs": [],
      "name": "rewardAmount",
      "outputs": [
        {
          "internalType": "uint256",
          "name": "",
          "type": "uint256"
        }
      ],
      "stateMutability": "view",
      "type": "function"
    },
    {
      "inputs": [],
      "name": "rewardPercentage",
      "outputs": [
        {
          "internalType": "uint256",
          "name": "",
          "type": "uint256"
        }
      ],
      "stateMutability": "view",
      "type": "function"
    },
    {
      "inputs": [
        {
          "internalType": "uint256",
          "name": "amount",
          "type": "uint256"
        }
      ],
      "name": "stake",
      "outputs": [],
      "stateMutability": "nonpayable",
      "type": "function"
    },
    {
      "inputs": [
        {
          "internalType": "address",
          "name": "newOwner",
          "type": "address"
        }
      ],
      "name": "transferOwnership",
      "outputs": [],
      "stateMutability": "nonpayable",
      "type": "function"
    },
    {
      "inputs": [],
      "name": "unlockedAmount",
      "outputs": [
        {
          "internalType": "uint256",
          "name": "",
          "type": "uint256"
        }
      ],
      "stateMutability": "view",
      "type": "function"
    },
    {
      "inputs": [],
      "name": "withdraw",
      "outputs": [],
      "stateMutability": "nonpayable",
      "type": "function"
    }
  ],
  "bytecode": "0x60e060405234801561001057600080fd5b50604051610bae380380610bae83398101604081905261002f9161013f565b338061005557604051631e4fbdf760e01b81526000600482015260240160405180910390fd5b61005e816100ef565b506001600160a01b03831661008657604051630f58058360e11b815260040160405180910390fd5b8115806100965750612710608051115b156100b457604051632b72818d60e01b815260040160405180910390fd5b600a8110156100d65760405163abf20e8f60e01b815260040160405180910390fd5b6001600160a01b0390921660c05260805260a052610182565b600080546001600160a01b038381166001600160a01b0319831681178455604051919092169283917f8be0079c531659141344cd1fd0a4f28419497f9722a3daafe3b4186f6b6457e09190a35050565b60008060006060848603121561015457600080fd5b83516001600160a01b038116811461016b57600080fd5b602085015160409095015190969495509392505050565b60805160a05160c0516109db6101d3600039600081816102ef0152818161039f015261053c01526000818160d90152818161061b01526106e601526000818161012d015261072801526109db6000f3fe608060405234801561001057600080fd5b50600436106100cf5760003560e01c8063715018a61161008c578063c01d099911610066578063c01d09991461018d578063c2b6b58c146101ad578063f2fde38b146101c3578063f7b2a7be146101d657600080fd5b8063715018a6146101575780638da5cb5b1461015f578063a694fc3a1461017a57600080fd5b80630d668087146100d45780633ccfd60b1461010e57806343d726d6146101185780634dfefebc1461012057806352d472eb146101285780636ab28bc81461014f575b600080fd5b6100fb7f000000000000000000000000000000000000000000000000000000000000000081565b6040519081526020015b60405180910390f35b6101166101de565b005b610116610445565b6100fb610490565b6100fb7f000000000000000000000000000000000000000000000000000000000000000081565b6100fb6104a3565b6101166104b7565b6000546040516001600160a01b039091168152602001610105565b610116610188366004610890565b6104c9565b6100fb61019b3660046108a9565b60016020526000908152604090205481565b60025460ff166040519015158152602001610105565b6101166101d13660046108a9565b610688565b6100fb6106cb565b336000818152600160205260408120909182915b6001810154815410156102a857600080600061023384600101856000015481548110610220576102206108d9565b90600052602060002090600202016106de565b9250925092508015610247575050506102a8565b6102518388610905565b965061025d8287610905565b955060008460010185600001548154811061027a5761027a6108d9565b60009182526020822060029091020191909155845490859061029b8361091e565b91905055505050506101f2565b836000036102c957604051637d843c6160e01b815260040160405180910390fd5b60405163a9059cbb60e01b81526001600160a01b038381166004830152602482018690527f0000000000000000000000000000000000000000000000000000000000000000169063a9059cbb906044016020604051808303816000875af1158015610338573d6000803e3d6000fd5b505050506040513d601f19601f8201168201806040525081019061035c9190610937565b6103795760405163b4f3542360e01b815260040160405180910390fd5b6040516340c10f1960e01b81526001600160a01b038381166004830152602482018590527f000000000000000000000000000000000000000000000000000000000000000016906340c10f1990604401600060405180830381600087803b1580156103e357600080fd5b505af11580156103f7573d6000803e3d6000fd5b505060408051878152602081018790526001600160a01b03861693507f92ccf450a286a957af52509bc1c9939d1a6a481783e142e41e2499f0bb66ebc692500160405180910390a250505050565b61044d610779565b60025460ff1661048e576002805460ff191660011790556040517f1cdde67b72a90f19919ac732a437ac2f7a10fc128d28c2a6e525d89ce5cd9d3a90600090a15b565b60008061049b6107a6565b509392505050565b6000806104ae6107a6565b50909392505050565b6104bf610779565b61048e6000610840565b600254339060ff16156104ef57604051631f349e2d60e21b815260040160405180910390fd5b816000036105105760405163162908e360e11b815260040160405180910390fd5b6040516323b872dd60e01b81526001600160a01b038281166004830152306024830152604482018490527f000000000000000000000000000000000000000000000000000000000000000016906323b872dd906064016020604051808303816000875af1158015610585573d6000803e3d6000fd5b505050506040513d601f19601f820116820180604052508101906105a99190610937565b6105c65760405163b4f3542360e01b815260040160405180910390fd5b6001600160a01b038116600090815260016020818152604080842081518083019092528682524282840181815291850180548087018255908752939095209151600290930290910191825551910155610640907f000000000000000000000000000000000000000000000000000000000000000090610905565b42826001600160a01b03167fb4caaf29adda3eefee3ad552a8e85058589bf834c7466cae4ee58787f70589ed8560405161067c91815260200190565b60405180910390a45050565b610690610779565b6001600160a01b0381166106bf57604051631e4fbdf760e01b8152600060048201526024015b60405180910390fd5b6106c881610840565b50565b6000806106d66107a6565b949350505050565b6000806000807f00000000000000000000000000000000000000000000000000000000000000008560010154426107159190610959565b61071f919061096c565b905060006127107f0000000000000000000000000000000000000000000000000000000000000000838860000154610757919061098e565b610761919061098e565b61076b919061096c565b955496911594509092505050565b6000546001600160a01b0316331461048e5760405163118cdaa760e01b81523360048201526024016106b6565b3360008181526001602052604081208054919283928392839283928392905b60018201548110156108305760008060006107ee856001018581548110610220576102206108d9565b919450925090506107ff8288610905565b9650801561081857610811838a610905565b9850610825565b6108228389610905565b97505b5050506001016107c5565b5093979296509094509092505050565b600080546001600160a01b038381166001600160a01b0319831681178455604051919092169283917f8be0079c531659141344cd1fd0a4f28419497f9722a3daafe3b4186f6b6457e09190a35050565b6000602082840312156108a257600080fd5b5035919050565b6000602082840312156108bb57600080fd5b81356001600160a01b03811681146108d257600080fd5b9392505050565b634e487b7160e01b600052603260045260246000fd5b634e487b7160e01b600052601160045260246000fd5b80820180821115610918576109186108ef565b92915050565b600060018201610930576109306108ef565b5060010190565b60006020828403121561094957600080fd5b815180151581146108d257600080fd5b81810381811115610918576109186108ef565b60008261098957634e487b7160e01b600052601260045260246000fd5b500490565b8082028115828204841417610918576109186108ef56fea26469706673582212202eda40a86ca0f1fde4cba561592b3b3dc1e0ee96a2e27f1c36b0a94ac7627b9864736f6c634300081c0033",
  "linkReferences": {},
  "deployedLinkReferences": {}
}