{
  "_format": "hh-sol-artifact-1",
  "contractName": "Stake",
  "sourceName": "contracts/Stake.sol",
  "abi": [
    {
      "inputs": [
        {
          "internalType": "address",
          "name": "token_",
          "type": "address"
        },
        {
          "internalType": "uint256",
          "name": "rewardPercentage_",
          "type": "uint256"
        },
        {
          "internalType": "uint256",
          "name": "lockTime_",
          "type": "uint256"
        }
      ],
      "stateMutability": "nonpayable",
      "type": "constructor"
    },
    {
      "inputs": [],
      "name": "ClosedForStake",
      "type": "error"
    },
    {
      "inputs": [],
      "name": "FailedStakeTransfer",
      "type": "error"
    },
    {
      "inputs": [],
      "name": "InvalidAmount",
      "type": "error"
    },
    {
      "inputs": [],
      "name": "InvalidLockTime",
      "type": "error"
    },
    {
      "inputs": [],
      "name": "InvalidRewardPercentage",
      "type": "error"
    },
    {
      "inputs": [],
      "name": "InvalidTokenAddress",
      "type": "error"
    },
    {
      "inputs": [],
      "name": "NoUnlockedStake",
      "type": "error"
    },
    {
      "inputs": [
        {
          "internalType": "address",
          "name": "owner",
          "type": "address"
        }
      ],
      "name": "OwnableInvalidOwner",
      "type": "error"
    },
    {
      "inputs": [
        {
          "internalType": "address",
          "name": "account",
          "type": "address"
        }
      ],
      "name": "OwnableUnauthorizedAccount",
      "type": "error"
    },
    {
      "anonymous": false,
      "inputs": [],
      "name": "Closed",
      "type": "event"
    },
    {
      "anonymous": false,
      "inputs": [
        {
          "indexed": true,
          "internalType": "address",
          "name": "previousOwner",
          "type": "address"
        },
        {
          "indexed": true,
          "internalType": "address",
          "name": "newOwner",
          "type": "address"
        }
      ],
      "name": "OwnershipTransferred",
      "type": "event"
    },
    {
      "anonymous": false,
      "inputs": [
        {
          "indexed": true,
          "internalType": "address",
          "name": "user",
          "type": "address"
        },
        {
          "indexed": true,
          "internalType": "uint256",
          "name": "startTime",
          "type": "uint256"
        },
        {
          "indexed": true,
          "internalType": "uint256",
          "name": "endTime",
          "type": "uint256"
        },
        {
          "indexed": false,
          "internalType": "uint256",
          "name": "amount",
          "type": "uint256"
        }
      ],
      "name": "Staked",
      "type": "event"
    },
    {
      "anonymous": false,
      "inputs": [
        {
          "indexed": true,
          "internalType": "address",
          "name": "user",
          "type": "address"
        },
        {
          "indexed": false,
          "internalType": "uint256",
          "name": "stake",
          "type": "uint256"
        },
        {
          "indexed": false,
          "internalType": "uint256",
          "name": "reward",
          "type": "uint256"
        }
      ],
      "name": "Withdrawn",
      "type": "event"
    },
    {
      "inputs": [
        {
          "internalType": "address",
          "name": "",
          "type": "address"
        }
      ],
      "name": "allStakes",
      "outputs": [
        {
          "internalType": "uint256",
          "name": "withdrawnIndex",
          "type": "uint256"
        }
      ],
      "stateMutability": "view",
      "type": "function"
    },
    {
      "inputs": [],
      "name": "close",
      "outputs": [],
      "stateMutability": "nonpayable",
      "type": "function"
    },
    {
      "inputs": [],
      "name": "isClosed",
      "outputs": [
        {
          "internalType": "bool",
          "name": "",
          "type": "bool"
        }
      ],
      "stateMutability": "view",
      "type": "function"
    },
    {
      "inputs": [],
      "name": "lockTime",
      "outputs": [
        {
          "internalType": "uint256",
          "name": "",
          "type": "uint256"
        }
      ],
      "stateMutability": "view",
      "type": "function"
    },
    {
      "inputs": [],
      "name": "lockedAmount",
      "outputs": [
        {
          "internalType": "uint256",
          "name": "",
          "type": "uint256"
        }
      ],
      "stateMutability": "view",
      "type": "function"
    },
    {
      "inputs": [],
      "name": "owner",
      "outputs": [
        {
          "internalType": "address",
          "name": "",
          "type": "address"
        }
      ],
      "stateMutability": "view",
      "type": "function"
    },
    {
      "inputs": [],
      "name": "renounceOwnership",
      "outputs": [],
      "stateMutability": "nonpayable",
      "type": "function"
    },
    {
      "inputs": [],
      "name": "rewardAmount",
      "outputs": [
        {
          "internalType": "uint256",
          "name": "",
          "type": "uint256"
        }
      ],
      "stateMutability": "view",
      "type": "function"
    },
    {
      "inputs": [],
      "name": "rewardPercentage",
      "outputs": [
        {
          "internalType": "uint256",
          "name": "",
          "type": "uint256"
        }
      ],
      "stateMutability": "view",
      "type": "function"
    },
    {
      "inputs": [
        {
          "internalType": "uint256",
          "name": "amount",
          "type": "uint256"
        }
      ],
      "name": "stake",
      "outputs": [],
      "stateMutability": "nonpayable",
      "type": "function"
    },
    {
      "inputs": [
        {
          "internalType": "address",
          "name": "newOwner",
          "type": "address"
        }
      ],
      "name": "transferOwnership",
      "outputs": [],
      "stateMutability": "nonpayable",
      "type": "function"
    },
    {
      "inputs": [],
      "name": "unlockedAmount",
      "outputs": [
        {
          "internalType": "uint256",
          "name": "",
          "type": "uint256"
        }
      ],
      "stateMutability": "view",
      "type": "function"
    },
    {
      "inputs": [],
      "name": "withdraw",
      "outputs": [],
      "stateMutability": "nonpayable",
      "type": "function"
    }
  ],
  "bytecode": "0x60e060405234801561001057600080fd5b506040516114f43803806114f483398181016040528101906100329190610348565b33600073ffffffffffffffffffffffffffffffffffffffff168173ffffffffffffffffffffffffffffffffffffffff16036100a55760006040517f1e4fbdf700000000000000000000000000000000000000000000000000000000815260040161009c91906103aa565b60405180910390fd5b6100b4816101eb60201b60201c565b50600073ffffffffffffffffffffffffffffffffffffffff168373ffffffffffffffffffffffffffffffffffffffff160361011b576040517f1eb00b0600000000000000000000000000000000000000000000000000000000815260040160405180910390fd5b600082148061012d5750612710608051115b15610164576040517f2b72818d00000000000000000000000000000000000000000000000000000000815260040160405180910390fd5b600a81101561019f576040517fabf20e8f00000000000000000000000000000000000000000000000000000000815260040160405180910390fd5b8273ffffffffffffffffffffffffffffffffffffffff1660c08173ffffffffffffffffffffffffffffffffffffffff168152505081608081815250508060a081815250505050506103c5565b60008060009054906101000a900473ffffffffffffffffffffffffffffffffffffffff169050816000806101000a81548173ffffffffffffffffffffffffffffffffffffffff021916908373ffffffffffffffffffffffffffffffffffffffff1602179055508173ffffffffffffffffffffffffffffffffffffffff168173ffffffffffffffffffffffffffffffffffffffff167f8be0079c531659141344cd1fd0a4f28419497f9722a3daafe3b4186f6b6457e060405160405180910390a35050565b600080fd5b600073ffffffffffffffffffffffffffffffffffffffff82169050919050565b60006102df826102b4565b9050919050565b6102ef816102d4565b81146102fa57600080fd5b50565b60008151905061030c816102e6565b92915050565b6000819050919050565b61032581610312565b811461033057600080fd5b50565b6000815190506103428161031c565b92915050565b600080600060608486031215610361576103606102af565b5b600061036f868287016102fd565b935050602061038086828701610333565b925050604061039186828701610333565b9150509250925092565b6103a4816102d4565b82525050565b60006020820190506103bf600083018461039b565b92915050565b60805160a05160c0516110dd610417600039600081816103aa0152818161047e01526106e101526000818161022e0152818161084d01526109ab0152600081816105dd01526109ed01526110dd6000f3fe608060405234801561001057600080fd5b50600436106100cf5760003560e01c8063715018a61161008c578063c01d099911610066578063c01d0999146101a4578063c2b6b58c146101d4578063f2fde38b146101f2578063f7b2a7be1461020e576100cf565b8063715018a6146101605780638da5cb5b1461016a578063a694fc3a14610188576100cf565b80630d668087146100d45780633ccfd60b146100f257806343d726d6146100fc5780634dfefebc1461010657806352d472eb146101245780636ab28bc814610142575b600080fd5b6100dc61022c565b6040516100e99190610cb1565b60405180910390f35b6100fa610250565b005b61010461055f565b005b61010e6105c5565b60405161011b9190610cb1565b60405180910390f35b61012c6105db565b6040516101399190610cb1565b60405180910390f35b61014a6105ff565b6040516101579190610cb1565b60405180910390f35b610168610615565b005b610172610629565b60405161017f9190610d0d565b60405180910390f35b6101a2600480360381019061019d9190610d59565b610652565b005b6101be60048036038101906101b99190610db2565b6108ca565b6040516101cb9190610cb1565b60405180910390f35b6101dc6108e8565b6040516101e99190610dfa565b60405180910390f35b61020c60048036038101906102079190610db2565b6108ff565b005b610216610985565b6040516102239190610cb1565b60405180910390f35b7f000000000000000000000000000000000000000000000000000000000000000081565b600080600061025d61099b565b90506000600160008373ffffffffffffffffffffffffffffffffffffffff1673ffffffffffffffffffffffffffffffffffffffff16815260200190815260200160002090505b80600101805490508160000154101561036e5760008060006102eb846001018560000154815481106102d8576102d7610e15565b5b90600052602060002090600202016109a3565b92509250925080156102ff5750505061036e565b828761030b9190610e73565b965081866103199190610e73565b955060008460010185600001548154811061033757610336610e15565b5b90600052602060002090600202016000018190555083600001600081548092919061036190610ea7565b91905055505050506102a3565b600084036103a8576040517f7d843c6100000000000000000000000000000000000000000000000000000000815260040160405180910390fd5b7f000000000000000000000000000000000000000000000000000000000000000073ffffffffffffffffffffffffffffffffffffffff1663a9059cbb83866040518363ffffffff1660e01b8152600401610403929190610eef565b6020604051808303816000875af1158015610422573d6000803e3d6000fd5b505050506040513d601f19601f820116820180604052508101906104469190610f44565b61047c576040517fb4f3542300000000000000000000000000000000000000000000000000000000815260040160405180910390fd5b7f000000000000000000000000000000000000000000000000000000000000000073ffffffffffffffffffffffffffffffffffffffff166340c10f1983856040518363ffffffff1660e01b81526004016104d7929190610eef565b600060405180830381600087803b1580156104f157600080fd5b505af1158015610505573d6000803e3d6000fd5b505050508173ffffffffffffffffffffffffffffffffffffffff167f92ccf450a286a957af52509bc1c9939d1a6a481783e142e41e2499f0bb66ebc68585604051610551929190610f71565b60405180910390a250505050565b610567610a4b565b600260009054906101000a900460ff166105c3576001600260006101000a81548160ff0219169083151502179055507f1cdde67b72a90f19919ac732a437ac2f7a10fc128d28c2a6e525d89ce5cd9d3a60405160405180910390a15b565b6000806105d0610ad2565b509150508091505090565b7f000000000000000000000000000000000000000000000000000000000000000081565b60008061060a610ad2565b505090508091505090565b61061d610a4b565b6106276000610bd4565b565b60008060009054906101000a900473ffffffffffffffffffffffffffffffffffffffff16905090565b600061065c61099b565b9050600260009054906101000a900460ff16156106a5576040517f7cd278b400000000000000000000000000000000000000000000000000000000815260040160405180910390fd5b600082036106df576040517f2c5211c600000000000000000000000000000000000000000000000000000000815260040160405180910390fd5b7f000000000000000000000000000000000000000000000000000000000000000073ffffffffffffffffffffffffffffffffffffffff166323b872dd8230856040518463ffffffff1660e01b815260040161073c93929190610f9a565b6020604051808303816000875af115801561075b573d6000803e3d6000fd5b505050506040513d601f19601f8201168201806040525081019061077f9190610f44565b6107b5576040517fb4f3542300000000000000000000000000000000000000000000000000000000815260040160405180910390fd5b600160008273ffffffffffffffffffffffffffffffffffffffff1673ffffffffffffffffffffffffffffffffffffffff1681526020019081526020016000206001016040518060400160405280848152602001428152509080600181540180825580915050600190039060005260206000209060020201600090919091909150600082015181600001556020820151816001015550507f0000000000000000000000000000000000000000000000000000000000000000426108779190610e73565b428273ffffffffffffffffffffffffffffffffffffffff167fb4caaf29adda3eefee3ad552a8e85058589bf834c7466cae4ee58787f70589ed856040516108be9190610cb1565b60405180910390a45050565b60016020528060005260406000206000915090508060000154905081565b6000600260009054906101000a900460ff16905090565b610907610a4b565b600073ffffffffffffffffffffffffffffffffffffffff168173ffffffffffffffffffffffffffffffffffffffff16036109795760006040517f1e4fbdf70000000000000000000000000000000000000000000000000000000081526004016109709190610d0d565b60405180910390fd5b61098281610bd4565b50565b600080610990610ad2565b925050508091505090565b600033905090565b6000806000807f00000000000000000000000000000000000000000000000000000000000000008560010154426109da9190610fd1565b6109e49190611034565b905060006127107f0000000000000000000000000000000000000000000000000000000000000000838860000154610a1c9190611065565b610a269190611065565b610a309190611034565b90508560000154816000841494509450945050509193909250565b610a5361099b565b73ffffffffffffffffffffffffffffffffffffffff16610a71610629565b73ffffffffffffffffffffffffffffffffffffffff1614610ad057610a9461099b565b6040517f118cdaa7000000000000000000000000000000000000000000000000000000008152600401610ac79190610d0d565b60405180910390fd5b565b6000806000806000806000610ae561099b565b90506000600160008373ffffffffffffffffffffffffffffffffffffffff1673ffffffffffffffffffffffffffffffffffffffff16815260200190815260200160002090506000816000015490505b8160010180549050811015610bc0576000806000610b74856001018581548110610b6157610b60610e15565b5b90600052602060002090600202016109a3565b9250925092508187610b869190610e73565b96508015610ba1578289610b9a9190610e73565b9850610bb0565b8288610bad9190610e73565b97505b5050508080600101915050610b34565b508484849750975097505050505050909192565b60008060009054906101000a900473ffffffffffffffffffffffffffffffffffffffff169050816000806101000a81548173ffffffffffffffffffffffffffffffffffffffff021916908373ffffffffffffffffffffffffffffffffffffffff1602179055508173ffffffffffffffffffffffffffffffffffffffff168173ffffffffffffffffffffffffffffffffffffffff167f8be0079c531659141344cd1fd0a4f28419497f9722a3daafe3b4186f6b6457e060405160405180910390a35050565b6000819050919050565b610cab81610c98565b82525050565b6000602082019050610cc66000830184610ca2565b92915050565b600073ffffffffffffffffffffffffffffffffffffffff82169050919050565b6000610cf782610ccc565b9050919050565b610d0781610cec565b82525050565b6000602082019050610d226000830184610cfe565b92915050565b600080fd5b610d3681610c98565b8114610d4157600080fd5b50565b600081359050610d5381610d2d565b92915050565b600060208284031215610d6f57610d6e610d28565b5b6000610d7d84828501610d44565b91505092915050565b610d8f81610cec565b8114610d9a57600080fd5b50565b600081359050610dac81610d86565b92915050565b600060208284031215610dc857610dc7610d28565b5b6000610dd684828501610d9d565b91505092915050565b60008115159050919050565b610df481610ddf565b82525050565b6000602082019050610e0f6000830184610deb565b92915050565b7f4e487b7100000000000000000000000000000000000000000000000000000000600052603260045260246000fd5b7f4e487b7100000000000000000000000000000000000000000000000000000000600052601160045260246000fd5b6000610e7e82610c98565b9150610e8983610c98565b9250828201905080821115610ea157610ea0610e44565b5b92915050565b6000610eb282610c98565b91507fffffffffffffffffffffffffffffffffffffffffffffffffffffffffffffffff8203610ee457610ee3610e44565b5b600182019050919050565b6000604082019050610f046000830185610cfe565b610f116020830184610ca2565b9392505050565b610f2181610ddf565b8114610f2c57600080fd5b50565b600081519050610f3e81610f18565b92915050565b600060208284031215610f5a57610f59610d28565b5b6000610f6884828501610f2f565b91505092915050565b6000604082019050610f866000830185610ca2565b610f936020830184610ca2565b9392505050565b6000606082019050610faf6000830186610cfe565b610fbc6020830185610cfe565b610fc96040830184610ca2565b949350505050565b6000610fdc82610c98565b9150610fe783610c98565b9250828203905081811115610fff57610ffe610e44565b5b92915050565b7f4e487b7100000000000000000000000000000000000000000000000000000000600052601260045260246000fd5b600061103f82610c98565b915061104a83610c98565b92508261105a57611059611005565b5b828204905092915050565b600061107082610c98565b915061107b83610c98565b925082820261108981610c98565b915082820484148315176110a05761109f610e44565b5b509291505056fea264697066735822122018b6d887a20d65d717df152bfac6a947441e87b050b8f426b0934a1f06874e4264736f6c634300081c0033",
  "linkReferences": {},
  "deployedLinkReferences": {}
}