{
  "_format": "hh-sol-artifact-1",
  "contractName": "Stake",
  "sourceName": "contracts/Stake.sol",
  "abi": [
    {
      "inputs": [
        {
          "internalType": "address",
          "name": "token_",
          "type": "address"
        },
        {
          "internalType": "uint256",
          "name": "rewardPercentage_",
          "type": "uint256"
        },
        {
          "internalType": "uint256",
          "name": "lockTime_",
          "type": "uint256"
        }
      ],
      "stateMutability": "nonpayable",
      "type": "constructor"
    },
    {
      "inputs": [],
      "name": "ClosedForStake",
      "type": "error"
    },
    {
      "inputs": [],
      "name": "FailedStakeTransfer",
      "type": "error"
    },
    {
      "inputs": [],
      "name": "InvalidAmount",
      "type": "error"
    },
    {
      "inputs": [],
      "name": "InvalidLockTime",
      "type": "error"
    },
    {
      "inputs": [],
      "name": "InvalidRewardPercentage",
      "type": "error"
    },
    {
      "inputs": [],
      "name": "InvalidTokenAddress",
      "type": "error"
    },
    {
      "inputs": [],
      "name": "NoUnlockedStake",
      "type": "error"
    },
    {
      "inputs": [
        {
          "internalType": "address",
          "name": "owner",
          "type": "address"
        }
      ],
      "name": "OwnableInvalidOwner",
      "type": "error"
    },
    {
      "inputs": [
        {
          "internalType": "address",
          "name": "account",
          "type": "address"
        }
      ],
      "name": "OwnableUnauthorizedAccount",
      "type": "error"
    },
    {
      "anonymous": false,
      "inputs": [],
      "name": "Closed",
      "type": "event"
    },
    {
      "anonymous": false,
      "inputs": [
        {
          "indexed": true,
          "internalType": "address",
          "name": "previousOwner",
          "type": "address"
        },
        {
          "indexed": true,
          "internalType": "address",
          "name": "newOwner",
          "type": "address"
        }
      ],
      "name": "OwnershipTransferred",
      "type": "event"
    },
    {
      "anonymous": false,
      "inputs": [
        {
          "indexed": true,
          "internalType": "address",
          "name": "staker",
          "type": "address"
        },
        {
          "indexed": true,
          "internalType": "uint256",
          "name": "startTime",
          "type": "uint256"
        },
        {
          "indexed": true,
          "internalType": "uint256",
          "name": "unlockTime",
          "type": "uint256"
        },
        {
          "indexed": false,
          "internalType": "uint256",
          "name": "amount",
          "type": "uint256"
        }
      ],
      "name": "Staked",
      "type": "event"
    },
    {
      "anonymous": false,
      "inputs": [
        {
          "indexed": true,
          "internalType": "address",
          "name": "staker",
          "type": "address"
        },
        {
          "indexed": false,
          "internalType": "uint256",
          "name": "stake",
          "type": "uint256"
        },
        {
          "indexed": false,
          "internalType": "uint256",
          "name": "reward",
          "type": "uint256"
        }
      ],
      "name": "Withdrawn",
      "type": "event"
    },
    {
      "inputs": [],
      "name": "AVERAGE_BLOCK_TIME",
      "outputs": [
        {
          "internalType": "uint256",
          "name": "",
          "type": "uint256"
        }
      ],
      "stateMutability": "view",
      "type": "function"
    },
    {
      "inputs": [],
      "name": "MAXIMUM_REWARD_PERCENT",
      "outputs": [
        {
          "internalType": "uint256",
          "name": "",
          "type": "uint256"
        }
      ],
      "stateMutability": "view",
      "type": "function"
    },
    {
      "inputs": [],
      "name": "REWARD_DIVISOR",
      "outputs": [
        {
          "internalType": "uint256",
          "name": "",
          "type": "uint256"
        }
      ],
      "stateMutability": "view",
      "type": "function"
    },
    {
      "inputs": [
        {
          "internalType": "address",
          "name": "",
          "type": "address"
        }
      ],
      "name": "allStakes",
      "outputs": [
        {
          "internalType": "uint256",
          "name": "withdrawnIndex",
          "type": "uint256"
        }
      ],
      "stateMutability": "view",
      "type": "function"
    },
    {
      "inputs": [],
      "name": "close",
      "outputs": [],
      "stateMutability": "nonpayable",
      "type": "function"
    },
    {
      "inputs": [],
      "name": "isClosed",
      "outputs": [
        {
          "internalType": "bool",
          "name": "",
          "type": "bool"
        }
      ],
      "stateMutability": "view",
      "type": "function"
    },
    {
      "inputs": [],
      "name": "lockTime",
      "outputs": [
        {
          "internalType": "uint256",
          "name": "",
          "type": "uint256"
        }
      ],
      "stateMutability": "view",
      "type": "function"
    },
    {
      "inputs": [
        {
          "internalType": "address",
          "name": "staker",
          "type": "address"
        }
      ],
      "name": "lockedAmount",
      "outputs": [
        {
          "internalType": "uint256",
          "name": "",
          "type": "uint256"
        }
      ],
      "stateMutability": "view",
      "type": "function"
    },
    {
      "inputs": [],
      "name": "owner",
      "outputs": [
        {
          "internalType": "address",
          "name": "",
          "type": "address"
        }
      ],
      "stateMutability": "view",
      "type": "function"
    },
    {
      "inputs": [],
      "name": "renounceOwnership",
      "outputs": [],
      "stateMutability": "nonpayable",
      "type": "function"
    },
    {
      "inputs": [
        {
          "internalType": "address",
          "name": "staker",
          "type": "address"
        }
      ],
      "name": "rewardAmount",
      "outputs": [
        {
          "internalType": "uint256",
          "name": "",
          "type": "uint256"
        }
      ],
      "stateMutability": "view",
      "type": "function"
    },
    {
      "inputs": [],
      "name": "rewardPercentage",
      "outputs": [
        {
          "internalType": "uint256",
          "name": "",
          "type": "uint256"
        }
      ],
      "stateMutability": "view",
      "type": "function"
    },
    {
      "inputs": [
        {
          "internalType": "uint256",
          "name": "amount",
          "type": "uint256"
        }
      ],
      "name": "stake",
      "outputs": [],
      "stateMutability": "nonpayable",
      "type": "function"
    },
    {
      "inputs": [
        {
          "internalType": "bytes4",
          "name": "interfaceId",
          "type": "bytes4"
        }
      ],
      "name": "supportsInterface",
      "outputs": [
        {
          "internalType": "bool",
          "name": "",
          "type": "bool"
        }
      ],
      "stateMutability": "view",
      "type": "function"
    },
    {
      "inputs": [
        {
          "internalType": "address",
          "name": "newOwner",
          "type": "address"
        }
      ],
      "name": "transferOwnership",
      "outputs": [],
      "stateMutability": "nonpayable",
      "type": "function"
    },
    {
      "inputs": [],
      "name": "underlyingToken",
      "outputs": [
        {
          "internalType": "address",
          "name": "",
          "type": "address"
        }
      ],
      "stateMutability": "view",
      "type": "function"
    },
    {
      "inputs": [
        {
          "internalType": "address",
          "name": "staker",
          "type": "address"
        }
      ],
      "name": "unlockedAmount",
      "outputs": [
        {
          "internalType": "uint256",
          "name": "",
          "type": "uint256"
        }
      ],
      "stateMutability": "view",
      "type": "function"
    },
    {
      "inputs": [],
      "name": "withdraw",
      "outputs": [],
      "stateMutability": "nonpayable",
      "type": "function"
    }
  ],
  "bytecode": "0x60e060405234801561001057600080fd5b50604051610d0c380380610d0c83398101604081905261002f9161013d565b338061005557604051631e4fbdf760e01b81526000600482015260240160405180910390fd5b61005e816100ed565b506001600160a01b03831661008657604051630f58058360e11b815260040160405180910390fd5b811580610094575061271082115b156100b257604051632b72818d60e01b815260040160405180910390fd5b600a8110156100d45760405163abf20e8f60e01b815260040160405180910390fd5b6001600160a01b0390921660c05260805260a052610180565b600080546001600160a01b038381166001600160a01b0319831681178455604051919092169283917f8be0079c531659141344cd1fd0a4f28419497f9722a3daafe3b4186f6b6457e09190a35050565b60008060006060848603121561015257600080fd5b83516001600160a01b038116811461016957600080fd5b602085015160409095015190969495509392505050565b60805160a05160c051610b2c6101e06000396000818161018b015281816103c0015281816104700152610602015260008181610159015281816106e1015281816107ae01526108060152600081816101da01526108480152610b2c6000f3fe608060405234801561001057600080fd5b50600436106101165760003560e01c80638db849e0116100a2578063c01d099911610071578063c01d09991461026a578063c2b6b58c1461028a578063d1c4fe8414610228578063f2fde38b14610294578063f691b848146102a757600080fd5b80638db849e014610228578063a153e70814610231578063a694fc3a14610244578063a8988ce21461025757600080fd5b806343d726d6116100e957806343d726d6146101cd57806352d472eb146101d5578063645a8a56146101fc578063715018a61461020f5780638da5cb5b1461021757600080fd5b806301ffc9a71461011b5780630d668087146101545780632495a599146101895780633ccfd60b146101c3575b600080fd5b61013f6101293660046109b7565b6001600160e01b031916632919aabb60e01b1490565b60405190151581526020015b60405180910390f35b61017b7f000000000000000000000000000000000000000000000000000000000000000081565b60405190815260200161014b565b7f00000000000000000000000000000000000000000000000000000000000000005b6040516001600160a01b03909116815260200161014b565b6101cb6102af565b005b6101cb610516565b61017b7f000000000000000000000000000000000000000000000000000000000000000081565b61017b61020a3660046109e8565b610555565b6101cb61056a565b6000546001600160a01b03166101ab565b61017b61271081565b61017b61023f3660046109e8565b61057c565b6101cb610252366004610a11565b610592565b61017b6102653660046109e8565b61074e565b61017b6102783660046109e8565b60016020526000908152604090205481565b600254151561013f565b6101cb6102a23660046109e8565b610763565b61017b600a81565b336000818152600160205260408120909182915b600181015481541015610379576000806000610304846001018560000154815481106102f1576102f1610a2a565b90600052602060002090600202016107a6565b925092509250801561031857505050610379565b6103228388610a56565b965061032e8287610a56565b955060008460010185600001548154811061034b5761034b610a2a565b60009182526020822060029091020191909155845490859061036c83610a6f565b91905055505050506102c3565b8360000361039a57604051637d843c6160e01b815260040160405180910390fd5b60405163a9059cbb60e01b81526001600160a01b038381166004830152602482018690527f0000000000000000000000000000000000000000000000000000000000000000169063a9059cbb906044016020604051808303816000875af1158015610409573d6000803e3d6000fd5b505050506040513d601f19601f8201168201806040525081019061042d9190610a88565b61044a5760405163b4f3542360e01b815260040160405180910390fd5b6040516340c10f1960e01b81526001600160a01b038381166004830152602482018590527f000000000000000000000000000000000000000000000000000000000000000016906340c10f1990604401600060405180830381600087803b1580156104b457600080fd5b505af11580156104c8573d6000803e3d6000fd5b505060408051878152602081018790526001600160a01b03861693507f92ccf450a286a957af52509bc1c9939d1a6a481783e142e41e2499f0bb66ebc692500160405180910390a250505050565b61051e61089b565b60025461055357426002556040517f1cdde67b72a90f19919ac732a437ac2f7a10fc128d28c2a6e525d89ce5cd9d3a90600090a15b565b600080610561836108c8565b95945050505050565b61057261089b565b6105536000610967565b600080610588836108c8565b5090949350505050565b6002543390156105b557604051631f349e2d60e21b815260040160405180910390fd5b816000036105d65760405163162908e360e11b815260040160405180910390fd5b6040516323b872dd60e01b81526001600160a01b038281166004830152306024830152604482018490527f000000000000000000000000000000000000000000000000000000000000000016906323b872dd906064016020604051808303816000875af115801561064b573d6000803e3d6000fd5b505050506040513d601f19601f8201168201806040525081019061066f9190610a88565b61068c5760405163b4f3542360e01b815260040160405180910390fd5b6001600160a01b038116600090815260016020818152604080842081518083019092528682524282840181815291850180548087018255908752939095209151600290930290910191825551910155610706907f000000000000000000000000000000000000000000000000000000000000000090610a56565b42826001600160a01b03167fb4caaf29adda3eefee3ad552a8e85058589bf834c7466cae4ee58787f70589ed8560405161074291815260200190565b60405180910390a45050565b60008061075a836108c8565b50949350505050565b61076b61089b565b6001600160a01b03811661079a57604051631e4fbdf760e01b8152600060048201526024015b60405180910390fd5b6107a381610967565b50565b6000806000807f00000000000000000000000000000000000000000000000000000000000000006002546107da9190610a56565b905060006107e9600254151590565b80156107f457508142115b6107fe5742610800565b815b905060007f00000000000000000000000000000000000000000000000000000000000000008760010154836108359190610aaa565b61083f9190610abd565b905060006127107f0000000000000000000000000000000000000000000000000000000000000000838a600001546108779190610adf565b6108819190610adf565b61088b9190610abd565b9754989115965090945050505050565b6000546001600160a01b031633146105535760405163118cdaa760e01b8152336004820152602401610791565b6001600160a01b0381166000908152600160205260408120805482918291829182918291905b60018201548110156109595760008060006109178560010185815481106102f1576102f1610a2a565b919450925090506109288287610a56565b955080156109415761093a8389610a56565b975061094e565b61094b8388610a56565b96505b5050506001016108ee565b509297919650945092505050565b600080546001600160a01b038381166001600160a01b0319831681178455604051919092169283917f8be0079c531659141344cd1fd0a4f28419497f9722a3daafe3b4186f6b6457e09190a35050565b6000602082840312156109c957600080fd5b81356001600160e01b0319811681146109e157600080fd5b9392505050565b6000602082840312156109fa57600080fd5b81356001600160a01b03811681146109e157600080fd5b600060208284031215610a2357600080fd5b5035919050565b634e487b7160e01b600052603260045260246000fd5b634e487b7160e01b600052601160045260246000fd5b80820180821115610a6957610a69610a40565b92915050565b600060018201610a8157610a81610a40565b5060010190565b600060208284031215610a9a57600080fd5b815180151581146109e157600080fd5b81810381811115610a6957610a69610a40565b600082610ada57634e487b7160e01b600052601260045260246000fd5b500490565b8082028115828204841417610a6957610a69610a4056fea26469706673582212204a7c83181c64b373842707c4e39dac21b33be3ff5683927cde1c9449cf9c0ebd64736f6c634300081c0033",
  "linkReferences": {},
  "deployedLinkReferences": {}
}