{
  "_format": "hh-sol-artifact-1",
  "contractName": "Stake",
  "sourceName": "contracts/Stake.sol",
  "abi": [
    {
      "inputs": [
        {
          "internalType": "address",
          "name": "token_",
          "type": "address"
        },
        {
          "internalType": "uint256",
          "name": "rewardPercentage_",
          "type": "uint256"
        },
        {
          "internalType": "uint256",
          "name": "lockTime_",
          "type": "uint256"
        }
      ],
      "stateMutability": "nonpayable",
      "type": "constructor"
    },
    {
      "inputs": [],
      "name": "ClosedForStake",
      "type": "error"
    },
    {
      "inputs": [],
      "name": "FailedStakeTransfer",
      "type": "error"
    },
    {
      "inputs": [],
      "name": "InvalidAmount",
      "type": "error"
    },
    {
      "inputs": [],
      "name": "InvalidLockTime",
      "type": "error"
    },
    {
      "inputs": [],
      "name": "InvalidRewardPercentage",
      "type": "error"
    },
    {
      "inputs": [],
      "name": "InvalidTokenAddress",
      "type": "error"
    },
    {
      "inputs": [],
      "name": "NoUnlockedStake",
      "type": "error"
    },
    {
      "inputs": [
        {
          "internalType": "address",
          "name": "owner",
          "type": "address"
        }
      ],
      "name": "OwnableInvalidOwner",
      "type": "error"
    },
    {
      "inputs": [
        {
          "internalType": "address",
          "name": "account",
          "type": "address"
        }
      ],
      "name": "OwnableUnauthorizedAccount",
      "type": "error"
    },
    {
      "anonymous": false,
      "inputs": [],
      "name": "Closed",
      "type": "event"
    },
    {
      "anonymous": false,
      "inputs": [
        {
          "indexed": true,
          "internalType": "address",
          "name": "previousOwner",
          "type": "address"
        },
        {
          "indexed": true,
          "internalType": "address",
          "name": "newOwner",
          "type": "address"
        }
      ],
      "name": "OwnershipTransferred",
      "type": "event"
    },
    {
      "anonymous": false,
      "inputs": [
        {
          "indexed": true,
          "internalType": "address",
          "name": "user",
          "type": "address"
        },
        {
          "indexed": true,
          "internalType": "uint256",
          "name": "startTime",
          "type": "uint256"
        },
        {
          "indexed": true,
          "internalType": "uint256",
          "name": "endTime",
          "type": "uint256"
        },
        {
          "indexed": false,
          "internalType": "uint256",
          "name": "amount",
          "type": "uint256"
        }
      ],
      "name": "Staked",
      "type": "event"
    },
    {
      "anonymous": false,
      "inputs": [
        {
          "indexed": true,
          "internalType": "address",
          "name": "user",
          "type": "address"
        },
        {
          "indexed": false,
          "internalType": "uint256",
          "name": "stake",
          "type": "uint256"
        },
        {
          "indexed": false,
          "internalType": "uint256",
          "name": "reward",
          "type": "uint256"
        }
      ],
      "name": "Withdrawn",
      "type": "event"
    },
    {
      "inputs": [
        {
          "internalType": "address",
          "name": "",
          "type": "address"
        }
      ],
      "name": "allStakes",
      "outputs": [
        {
          "internalType": "uint256",
          "name": "withdrawnIndex",
          "type": "uint256"
        }
      ],
      "stateMutability": "view",
      "type": "function"
    },
    {
      "inputs": [],
      "name": "close",
      "outputs": [],
      "stateMutability": "nonpayable",
      "type": "function"
    },
    {
      "inputs": [],
      "name": "isClosed",
      "outputs": [
        {
          "internalType": "bool",
          "name": "",
          "type": "bool"
        }
      ],
      "stateMutability": "view",
      "type": "function"
    },
    {
      "inputs": [],
      "name": "lockTime",
      "outputs": [
        {
          "internalType": "uint256",
          "name": "",
          "type": "uint256"
        }
      ],
      "stateMutability": "view",
      "type": "function"
    },
    {
      "inputs": [
        {
          "internalType": "address",
          "name": "staker",
          "type": "address"
        }
      ],
      "name": "lockedAmount",
      "outputs": [
        {
          "internalType": "uint256",
          "name": "",
          "type": "uint256"
        }
      ],
      "stateMutability": "view",
      "type": "function"
    },
    {
      "inputs": [],
      "name": "owner",
      "outputs": [
        {
          "internalType": "address",
          "name": "",
          "type": "address"
        }
      ],
      "stateMutability": "view",
      "type": "function"
    },
    {
      "inputs": [],
      "name": "renounceOwnership",
      "outputs": [],
      "stateMutability": "nonpayable",
      "type": "function"
    },
    {
      "inputs": [
        {
          "internalType": "address",
          "name": "staker",
          "type": "address"
        }
      ],
      "name": "rewardAmount",
      "outputs": [
        {
          "internalType": "uint256",
          "name": "",
          "type": "uint256"
        }
      ],
      "stateMutability": "view",
      "type": "function"
    },
    {
      "inputs": [],
      "name": "rewardPercentage",
      "outputs": [
        {
          "internalType": "uint256",
          "name": "",
          "type": "uint256"
        }
      ],
      "stateMutability": "view",
      "type": "function"
    },
    {
      "inputs": [
        {
          "internalType": "uint256",
          "name": "amount",
          "type": "uint256"
        }
      ],
      "name": "stake",
      "outputs": [],
      "stateMutability": "nonpayable",
      "type": "function"
    },
    {
      "inputs": [
        {
          "internalType": "bytes4",
          "name": "interfaceId",
          "type": "bytes4"
        }
      ],
      "name": "supportsInterface",
      "outputs": [
        {
          "internalType": "bool",
          "name": "",
          "type": "bool"
        }
      ],
      "stateMutability": "view",
      "type": "function"
    },
    {
      "inputs": [
        {
          "internalType": "address",
          "name": "newOwner",
          "type": "address"
        }
      ],
      "name": "transferOwnership",
      "outputs": [],
      "stateMutability": "nonpayable",
      "type": "function"
    },
    {
      "inputs": [],
      "name": "underlyingToken",
      "outputs": [
        {
          "internalType": "address",
          "name": "",
          "type": "address"
        }
      ],
      "stateMutability": "view",
      "type": "function"
    },
    {
      "inputs": [
        {
          "internalType": "address",
          "name": "staker",
          "type": "address"
        }
      ],
      "name": "unlockedAmount",
      "outputs": [
        {
          "internalType": "uint256",
          "name": "",
          "type": "uint256"
        }
      ],
      "stateMutability": "view",
      "type": "function"
    },
    {
      "inputs": [],
      "name": "withdraw",
      "outputs": [],
      "stateMutability": "nonpayable",
      "type": "function"
    }
  ],
  "bytecode": "0x60e060405234801561001057600080fd5b50604051610cdc380380610cdc83398101604081905261002f9161013f565b338061005557604051631e4fbdf760e01b81526000600482015260240160405180910390fd5b61005e816100ef565b506001600160a01b03831661008657604051630f58058360e11b815260040160405180910390fd5b8115806100965750612710608051115b156100b457604051632b72818d60e01b815260040160405180910390fd5b600a8110156100d65760405163abf20e8f60e01b815260040160405180910390fd5b6001600160a01b0390921660c05260805260a052610182565b600080546001600160a01b038381166001600160a01b0319831681178455604051919092169283917f8be0079c531659141344cd1fd0a4f28419497f9722a3daafe3b4186f6b6457e09190a35050565b60008060006060848603121561015457600080fd5b83516001600160a01b038116811461016b57600080fd5b602085015160409095015190969495509392505050565b60805160a05160c051610afa6101e26000396000818161016a0152818161038e0152818161043e01526105d0015260008181610138015281816106af0152818161077c01526107d40152600081816101b901526108160152610afa6000f3fe608060405234801561001057600080fd5b50600436106100f55760003560e01c8063715018a611610097578063a8988ce211610066578063a8988ce21461022d578063c01d099914610240578063c2b6b58c14610260578063f2fde38b1461026a57600080fd5b8063715018a6146101ee5780638da5cb5b146101f6578063a153e70814610207578063a694fc3a1461021a57600080fd5b80633ccfd60b116100d35780633ccfd60b146101a257806343d726d6146101ac57806352d472eb146101b4578063645a8a56146101db57600080fd5b806301ffc9a7146100fa5780630d668087146101335780632495a59914610168575b600080fd5b61011e610108366004610985565b6001600160e01b031916632919aabb60e01b1490565b60405190151581526020015b60405180910390f35b61015a7f000000000000000000000000000000000000000000000000000000000000000081565b60405190815260200161012a565b7f00000000000000000000000000000000000000000000000000000000000000005b6040516001600160a01b03909116815260200161012a565b6101aa61027d565b005b6101aa6104e4565b61015a7f000000000000000000000000000000000000000000000000000000000000000081565b61015a6101e93660046109b6565b610523565b6101aa610538565b6000546001600160a01b031661018a565b61015a6102153660046109b6565b61054a565b6101aa6102283660046109df565b610560565b61015a61023b3660046109b6565b61071c565b61015a61024e3660046109b6565b60016020526000908152604090205481565b600254151561011e565b6101aa6102783660046109b6565b610731565b336000818152600160205260408120909182915b6001810154815410156103475760008060006102d2846001018560000154815481106102bf576102bf6109f8565b9060005260206000209060020201610774565b92509250925080156102e657505050610347565b6102f08388610a24565b96506102fc8287610a24565b9550600084600101856000015481548110610319576103196109f8565b60009182526020822060029091020191909155845490859061033a83610a3d565b9190505550505050610291565b8360000361036857604051637d843c6160e01b815260040160405180910390fd5b60405163a9059cbb60e01b81526001600160a01b038381166004830152602482018690527f0000000000000000000000000000000000000000000000000000000000000000169063a9059cbb906044016020604051808303816000875af11580156103d7573d6000803e3d6000fd5b505050506040513d601f19601f820116820180604052508101906103fb9190610a56565b6104185760405163b4f3542360e01b815260040160405180910390fd5b6040516340c10f1960e01b81526001600160a01b038381166004830152602482018590527f000000000000000000000000000000000000000000000000000000000000000016906340c10f1990604401600060405180830381600087803b15801561048257600080fd5b505af1158015610496573d6000803e3d6000fd5b505060408051878152602081018790526001600160a01b03861693507f92ccf450a286a957af52509bc1c9939d1a6a481783e142e41e2499f0bb66ebc692500160405180910390a250505050565b6104ec610869565b60025461052157426002556040517f1cdde67b72a90f19919ac732a437ac2f7a10fc128d28c2a6e525d89ce5cd9d3a90600090a15b565b60008061052f83610896565b95945050505050565b610540610869565b6105216000610935565b60008061055683610896565b5090949350505050565b60025433901561058357604051631f349e2d60e21b815260040160405180910390fd5b816000036105a45760405163162908e360e11b815260040160405180910390fd5b6040516323b872dd60e01b81526001600160a01b038281166004830152306024830152604482018490527f000000000000000000000000000000000000000000000000000000000000000016906323b872dd906064016020604051808303816000875af1158015610619573d6000803e3d6000fd5b505050506040513d601f19601f8201168201806040525081019061063d9190610a56565b61065a5760405163b4f3542360e01b815260040160405180910390fd5b6001600160a01b0381166000908152600160208181526040808420815180830190925286825242828401818152918501805480870182559087529390952091516002909302909101918255519101556106d4907f000000000000000000000000000000000000000000000000000000000000000090610a24565b42826001600160a01b03167fb4caaf29adda3eefee3ad552a8e85058589bf834c7466cae4ee58787f70589ed8560405161071091815260200190565b60405180910390a45050565b60008061072883610896565b50949350505050565b610739610869565b6001600160a01b03811661076857604051631e4fbdf760e01b8152600060048201526024015b60405180910390fd5b61077181610935565b50565b6000806000807f00000000000000000000000000000000000000000000000000000000000000006002546107a89190610a24565b905060006107b7600254151590565b80156107c257508142115b6107cc57426107ce565b815b905060007f00000000000000000000000000000000000000000000000000000000000000008760010154836108039190610a78565b61080d9190610a8b565b905060006127107f0000000000000000000000000000000000000000000000000000000000000000838a600001546108459190610aad565b61084f9190610aad565b6108599190610a8b565b9754989115965090945050505050565b6000546001600160a01b031633146105215760405163118cdaa760e01b815233600482015260240161075f565b6001600160a01b0381166000908152600160205260408120805482918291829182918291905b60018201548110156109275760008060006108e58560010185815481106102bf576102bf6109f8565b919450925090506108f68287610a24565b9550801561090f576109088389610a24565b975061091c565b6109198388610a24565b96505b5050506001016108bc565b509297919650945092505050565b600080546001600160a01b038381166001600160a01b0319831681178455604051919092169283917f8be0079c531659141344cd1fd0a4f28419497f9722a3daafe3b4186f6b6457e09190a35050565b60006020828403121561099757600080fd5b81356001600160e01b0319811681146109af57600080fd5b9392505050565b6000602082840312156109c857600080fd5b81356001600160a01b03811681146109af57600080fd5b6000602082840312156109f157600080fd5b5035919050565b634e487b7160e01b600052603260045260246000fd5b634e487b7160e01b600052601160045260246000fd5b80820180821115610a3757610a37610a0e565b92915050565b600060018201610a4f57610a4f610a0e565b5060010190565b600060208284031215610a6857600080fd5b815180151581146109af57600080fd5b81810381811115610a3757610a37610a0e565b600082610aa857634e487b7160e01b600052601260045260246000fd5b500490565b8082028115828204841417610a3757610a37610a0e56fea2646970667358221220bbf9e7215283d50c2dfb5960682e28bf6ba7eb4ed394ab5a51e0f8b41b5b1ada64736f6c634300081c0033",
  "linkReferences": {},
  "deployedLinkReferences": {}
}