{
  "_format": "hh-sol-artifact-1",
  "contractName": "Token",
  "sourceName": "contracts/Token.sol",
  "abi": [
    {
      "inputs": [
        {
          "internalType": "string",
          "name": "name_",
          "type": "string"
        },
        {
          "internalType": "string",
          "name": "symbol_",
          "type": "string"
        },
        {
          "internalType": "uint8",
          "name": "decimals_",
          "type": "uint8"
        }
      ],
      "stateMutability": "nonpayable",
      "type": "constructor"
    },
    {
      "inputs": [],
      "name": "AccessControlBadConfirmation",
      "type": "error"
    },
    {
      "inputs": [
        {
          "internalType": "address",
          "name": "account",
          "type": "address"
        },
        {
          "internalType": "bytes32",
          "name": "neededRole",
          "type": "bytes32"
        }
      ],
      "name": "AccessControlUnauthorizedAccount",
      "type": "error"
    },
    {
      "inputs": [
        {
          "internalType": "address",
          "name": "spender",
          "type": "address"
        },
        {
          "internalType": "uint256",
          "name": "allowance",
          "type": "uint256"
        },
        {
          "internalType": "uint256",
          "name": "needed",
          "type": "uint256"
        }
      ],
      "name": "ERC20InsufficientAllowance",
      "type": "error"
    },
    {
      "inputs": [
        {
          "internalType": "address",
          "name": "sender",
          "type": "address"
        },
        {
          "internalType": "uint256",
          "name": "balance",
          "type": "uint256"
        },
        {
          "internalType": "uint256",
          "name": "needed",
          "type": "uint256"
        }
      ],
      "name": "ERC20InsufficientBalance",
      "type": "error"
    },
    {
      "inputs": [
        {
          "internalType": "address",
          "name": "approver",
          "type": "address"
        }
      ],
      "name": "ERC20InvalidApprover",
      "type": "error"
    },
    {
      "inputs": [
        {
          "internalType": "address",
          "name": "receiver",
          "type": "address"
        }
      ],
      "name": "ERC20InvalidReceiver",
      "type": "error"
    },
    {
      "inputs": [
        {
          "internalType": "address",
          "name": "sender",
          "type": "address"
        }
      ],
      "name": "ERC20InvalidSender",
      "type": "error"
    },
    {
      "inputs": [
        {
          "internalType": "address",
          "name": "spender",
          "type": "address"
        }
      ],
      "name": "ERC20InvalidSpender",
      "type": "error"
    },
    {
      "inputs": [],
      "name": "FailedRoleTransfer",
      "type": "error"
    },
    {
      "inputs": [],
      "name": "InvalidAddress",
      "type": "error"
    },
    {
      "inputs": [],
      "name": "NotOwner",
      "type": "error"
    },
    {
      "inputs": [],
      "name": "ProtectedRole",
      "type": "error"
    },
    {
      "anonymous": false,
      "inputs": [
        {
          "indexed": true,
          "internalType": "address",
          "name": "owner",
          "type": "address"
        },
        {
          "indexed": true,
          "internalType": "address",
          "name": "spender",
          "type": "address"
        },
        {
          "indexed": false,
          "internalType": "uint256",
          "name": "value",
          "type": "uint256"
        }
      ],
      "name": "Approval",
      "type": "event"
    },
    {
      "anonymous": false,
      "inputs": [
        {
          "indexed": true,
          "internalType": "address",
          "name": "previousOwner",
          "type": "address"
        },
        {
          "indexed": true,
          "internalType": "address",
          "name": "newOwner",
          "type": "address"
        }
      ],
      "name": "OwnershipTransferred",
      "type": "event"
    },
    {
      "anonymous": false,
      "inputs": [
        {
          "indexed": true,
          "internalType": "bytes32",
          "name": "role",
          "type": "bytes32"
        },
        {
          "indexed": true,
          "internalType": "bytes32",
          "name": "previousAdminRole",
          "type": "bytes32"
        },
        {
          "indexed": true,
          "internalType": "bytes32",
          "name": "newAdminRole",
          "type": "bytes32"
        }
      ],
      "name": "RoleAdminChanged",
      "type": "event"
    },
    {
      "anonymous": false,
      "inputs": [
        {
          "indexed": true,
          "internalType": "bytes32",
          "name": "role",
          "type": "bytes32"
        },
        {
          "indexed": true,
          "internalType": "address",
          "name": "account",
          "type": "address"
        },
        {
          "indexed": true,
          "internalType": "address",
          "name": "sender",
          "type": "address"
        }
      ],
      "name": "RoleGranted",
      "type": "event"
    },
    {
      "anonymous": false,
      "inputs": [
        {
          "indexed": true,
          "internalType": "bytes32",
          "name": "role",
          "type": "bytes32"
        },
        {
          "indexed": true,
          "internalType": "address",
          "name": "account",
          "type": "address"
        },
        {
          "indexed": true,
          "internalType": "address",
          "name": "sender",
          "type": "address"
        }
      ],
      "name": "RoleRevoked",
      "type": "event"
    },
    {
      "anonymous": false,
      "inputs": [
        {
          "indexed": true,
          "internalType": "address",
          "name": "from",
          "type": "address"
        },
        {
          "indexed": true,
          "internalType": "address",
          "name": "to",
          "type": "address"
        },
        {
          "indexed": false,
          "internalType": "uint256",
          "name": "value",
          "type": "uint256"
        }
      ],
      "name": "Transfer",
      "type": "event"
    },
    {
      "inputs": [],
      "name": "DEFAULT_ADMIN_ROLE",
      "outputs": [
        {
          "internalType": "bytes32",
          "name": "",
          "type": "bytes32"
        }
      ],
      "stateMutability": "view",
      "type": "function"
    },
    {
      "inputs": [],
      "name": "MINTER_ROLE",
      "outputs": [
        {
          "internalType": "bytes32",
          "name": "",
          "type": "bytes32"
        }
      ],
      "stateMutability": "view",
      "type": "function"
    },
    {
      "inputs": [
        {
          "internalType": "address",
          "name": "owner",
          "type": "address"
        },
        {
          "internalType": "address",
          "name": "spender",
          "type": "address"
        }
      ],
      "name": "allowance",
      "outputs": [
        {
          "internalType": "uint256",
          "name": "",
          "type": "uint256"
        }
      ],
      "stateMutability": "view",
      "type": "function"
    },
    {
      "inputs": [
        {
          "internalType": "address",
          "name": "spender",
          "type": "address"
        },
        {
          "internalType": "uint256",
          "name": "value",
          "type": "uint256"
        }
      ],
      "name": "approve",
      "outputs": [
        {
          "internalType": "bool",
          "name": "",
          "type": "bool"
        }
      ],
      "stateMutability": "nonpayable",
      "type": "function"
    },
    {
      "inputs": [
        {
          "internalType": "address",
          "name": "account",
          "type": "address"
        }
      ],
      "name": "balanceOf",
      "outputs": [
        {
          "internalType": "uint256",
          "name": "",
          "type": "uint256"
        }
      ],
      "stateMutability": "view",
      "type": "function"
    },
    {
      "inputs": [
        {
          "internalType": "uint256",
          "name": "value",
          "type": "uint256"
        }
      ],
      "name": "burn",
      "outputs": [],
      "stateMutability": "nonpayable",
      "type": "function"
    },
    {
      "inputs": [
        {
          "internalType": "address",
          "name": "account",
          "type": "address"
        },
        {
          "internalType": "uint256",
          "name": "value",
          "type": "uint256"
        }
      ],
      "name": "burnFrom",
      "outputs": [],
      "stateMutability": "nonpayable",
      "type": "function"
    },
    {
      "inputs": [],
      "name": "decimals",
      "outputs": [
        {
          "internalType": "uint8",
          "name": "",
          "type": "uint8"
        }
      ],
      "stateMutability": "view",
      "type": "function"
    },
    {
      "inputs": [
        {
          "internalType": "bytes32",
          "name": "role",
          "type": "bytes32"
        }
      ],
      "name": "getRoleAdmin",
      "outputs": [
        {
          "internalType": "bytes32",
          "name": "",
          "type": "bytes32"
        }
      ],
      "stateMutability": "view",
      "type": "function"
    },
    {
      "inputs": [
        {
          "internalType": "bytes32",
          "name": "role",
          "type": "bytes32"
        },
        {
          "internalType": "address",
          "name": "account",
          "type": "address"
        }
      ],
      "name": "grantRole",
      "outputs": [],
      "stateMutability": "nonpayable",
      "type": "function"
    },
    {
      "inputs": [
        {
          "internalType": "bytes32",
          "name": "role",
          "type": "bytes32"
        },
        {
          "internalType": "address",
          "name": "account",
          "type": "address"
        }
      ],
      "name": "hasRole",
      "outputs": [
        {
          "internalType": "bool",
          "name": "",
          "type": "bool"
        }
      ],
      "stateMutability": "view",
      "type": "function"
    },
    {
      "inputs": [
        {
          "internalType": "address",
          "name": "to",
          "type": "address"
        },
        {
          "internalType": "uint256",
          "name": "amount",
          "type": "uint256"
        }
      ],
      "name": "mint",
      "outputs": [],
      "stateMutability": "nonpayable",
      "type": "function"
    },
    {
      "inputs": [
        {
          "internalType": "address[]",
          "name": "tos",
          "type": "address[]"
        },
        {
          "internalType": "uint256",
          "name": "amount",
          "type": "uint256"
        }
      ],
      "name": "mintMany",
      "outputs": [],
      "stateMutability": "nonpayable",
      "type": "function"
    },
    {
      "inputs": [],
      "name": "name",
      "outputs": [
        {
          "internalType": "string",
          "name": "",
          "type": "string"
        }
      ],
      "stateMutability": "view",
      "type": "function"
    },
    {
      "inputs": [],
      "name": "owner",
      "outputs": [
        {
          "internalType": "address",
          "name": "",
          "type": "address"
        }
      ],
      "stateMutability": "view",
      "type": "function"
    },
    {
      "inputs": [
        {
          "internalType": "bytes32",
          "name": "role",
          "type": "bytes32"
        },
        {
          "internalType": "address",
          "name": "callerConfirmation",
          "type": "address"
        }
      ],
      "name": "renounceRole",
      "outputs": [],
      "stateMutability": "nonpayable",
      "type": "function"
    },
    {
      "inputs": [
        {
          "internalType": "bytes32",
          "name": "role",
          "type": "bytes32"
        },
        {
          "internalType": "address",
          "name": "account",
          "type": "address"
        }
      ],
      "name": "revokeRole",
      "outputs": [],
      "stateMutability": "nonpayable",
      "type": "function"
    },
    {
      "inputs": [
        {
          "internalType": "bytes4",
          "name": "interfaceId",
          "type": "bytes4"
        }
      ],
      "name": "supportsInterface",
      "outputs": [
        {
          "internalType": "bool",
          "name": "",
          "type": "bool"
        }
      ],
      "stateMutability": "view",
      "type": "function"
    },
    {
      "inputs": [],
      "name": "symbol",
      "outputs": [
        {
          "internalType": "string",
          "name": "",
          "type": "string"
        }
      ],
      "stateMutability": "view",
      "type": "function"
    },
    {
      "inputs": [],
      "name": "totalSupply",
      "outputs": [
        {
          "internalType": "uint256",
          "name": "",
          "type": "uint256"
        }
      ],
      "stateMutability": "view",
      "type": "function"
    },
    {
      "inputs": [
        {
          "internalType": "address",
          "name": "to",
          "type": "address"
        },
        {
          "internalType": "uint256",
          "name": "value",
          "type": "uint256"
        }
      ],
      "name": "transfer",
      "outputs": [
        {
          "internalType": "bool",
          "name": "",
          "type": "bool"
        }
      ],
      "stateMutability": "nonpayable",
      "type": "function"
    },
    {
      "inputs": [
        {
          "internalType": "address",
          "name": "from",
          "type": "address"
        },
        {
          "internalType": "address",
          "name": "to",
          "type": "address"
        },
        {
          "internalType": "uint256",
          "name": "value",
          "type": "uint256"
        }
      ],
      "name": "transferFrom",
      "outputs": [
        {
          "internalType": "bool",
          "name": "",
          "type": "bool"
        }
      ],
      "stateMutability": "nonpayable",
      "type": "function"
    },
    {
      "inputs": [
        {
          "internalType": "address",
          "name": "newOwner",
          "type": "address"
        }
      ],
      "name": "transferOwnership",
      "outputs": [],
      "stateMutability": "nonpayable",
      "type": "function"
    }
  ],
  "bytecode": "0x60a060405234801561001057600080fd5b506040516112fe3803806112fe83398101604081905261002f9161021f565b8282600361003d838261032b565b50600461004a828261032b565b50505060ff8116608052600680546001600160a01b03191633908117909155610075906000906100b6565b506006546100ad907f9f2df0fed2c77648de5860a4cc508cd0818c85b8b8a1ab4ceeef8d981c8956a6906001600160a01b03166100b6565b505050506103e9565b60008281526005602090815260408083206001600160a01b038516845290915281205460ff1661015c5760008381526005602090815260408083206001600160a01b03861684529091529020805460ff191660011790556101143390565b6001600160a01b0316826001600160a01b0316847f2f8788117e7eff1d82e926ec794901d17c78024a50270940304540a733656f0d60405160405180910390a4506001610160565b5060005b92915050565b634e487b7160e01b600052604160045260246000fd5b600082601f83011261018d57600080fd5b81516001600160401b038111156101a6576101a6610166565b604051601f8201601f19908116603f011681016001600160401b03811182821017156101d4576101d4610166565b6040528181528382016020018510156101ec57600080fd5b60005b8281101561020b576020818601810151838301820152016101ef565b506000918101602001919091529392505050565b60008060006060848603121561023457600080fd5b83516001600160401b0381111561024a57600080fd5b6102568682870161017c565b602086015190945090506001600160401b0381111561027457600080fd5b6102808682870161017c565b925050604084015160ff8116811461029757600080fd5b809150509250925092565b600181811c908216806102b657607f821691505b6020821081036102d657634e487b7160e01b600052602260045260246000fd5b50919050565b601f82111561032657806000526020600020601f840160051c810160208510156103035750805b601f840160051c820191505b81811015610323576000815560010161030f565b50505b505050565b81516001600160401b0381111561034457610344610166565b6103588161035284546102a2565b846102dc565b6020601f82116001811461038c57600083156103745750848201515b600019600385901b1c1916600184901b178455610323565b600084815260208120601f198516915b828110156103bc578785015182556020948501946001909201910161039c565b50848210156103da5786840151600019600387901b60f8161c191681555b50505050600190811b01905550565b608051610efa61040460003960006102060152610efa6000f3fe608060405234801561001057600080fd5b506004361061014d5760003560e01c8063645b569d116100c3578063a217fddf1161007c578063a217fddf146102ee578063a9059cbb146102f6578063d539139314610309578063d547741f1461031e578063dd62ed3e14610331578063f2fde38b1461036a57600080fd5b8063645b569d1461026957806370a082311461027c57806379cc6790146102a55780638da5cb5b146102b857806391d14854146102d357806395d89b41146102e657600080fd5b8063248a9ca311610115578063248a9ca3146101c75780632f2ff15d146101ea578063313ce567146101ff57806336568abe1461023057806340c10f191461024357806342966c681461025657600080fd5b806301ffc9a71461015257806306fdde031461017a578063095ea7b31461018f57806318160ddd146101a257806323b872dd146101b4575b600080fd5b610165610160366004610c32565b61037d565b60405190151581526020015b60405180910390f35b6101826103b4565b6040516101719190610c5c565b61016561019d366004610cc6565b610446565b6002545b604051908152602001610171565b6101656101c2366004610cf0565b61045e565b6101a66101d5366004610d2d565b60009081526005602052604090206001015490565b6101fd6101f8366004610d46565b610482565b005b60405160ff7f0000000000000000000000000000000000000000000000000000000000000000168152602001610171565b6101fd61023e366004610d46565b6104ad565b6101fd610251366004610cc6565b6104e5565b6101fd610264366004610d2d565b610507565b6101fd610277366004610d72565b610514565b6101a661028a366004610dee565b6001600160a01b031660009081526020819052604090205490565b6101fd6102b3366004610cc6565b610576565b6006546040516001600160a01b039091168152602001610171565b6101656102e1366004610d46565b61058f565b6101826105ba565b6101a6600081565b610165610304366004610cc6565b6105c9565b6101a6600080516020610ea583398151915281565b6101fd61032c366004610d46565b6105d7565b6101a661033f366004610e09565b6001600160a01b03918216600090815260016020908152604080832093909416825291909152205490565b6101fd610378366004610dee565b6105fc565b60006001600160e01b03198216637965db0b60e01b14806103ae57506301ffc9a760e01b6001600160e01b03198316145b92915050565b6060600380546103c390610e33565b80601f01602080910402602001604051908101604052809291908181526020018280546103ef90610e33565b801561043c5780601f106104115761010080835404028352916020019161043c565b820191906000526020600020905b81548152906001019060200180831161041f57829003601f168201915b5050505050905090565b60003361045481858561073f565b5060019392505050565b60003361046c85828561074c565b6104778585856107c9565b506001949350505050565b60008281526005602052604090206001015461049d81610828565b6104a78383610832565b50505050565b6001600160a01b03811633146104d65760405163334bd91960e11b815260040160405180910390fd5b6104e08282610863565b505050565b600080516020610ea58339815191526104fd81610828565b6104e0838361088d565b61051133826108c3565b50565b600080516020610ea583398151915261052c81610828565b60005b8381101561056f5761056785858381811061054c5761054c610e6d565b90506020020160208101906105619190610dee565b8461088d565b60010161052f565b5050505050565b61058182338361074c565b61058b82826108c3565b5050565b60009182526005602090815260408084206001600160a01b0393909316845291905290205460ff1690565b6060600480546103c390610e33565b6000336104548185856107c9565b6000828152600560205260409020600101546105f281610828565b6104a78383610863565b600061060781610828565b6006546001600160a01b03163314610632576040516330cd747160e01b815260040160405180910390fd5b6001600160a01b0382166106595760405163e6c4247b60e01b815260040160405180910390fd5b6106646000836108f9565b15806106855750600654610683906000906001600160a01b031661098d565b155b156106a35760405163436f612b60e11b815260040160405180910390fd5b6106bb600080516020610ea5833981519152836108f9565b506006546106e190600080516020610ea5833981519152906001600160a01b031661098d565b506006546040516001600160a01b038085169216907f8be0079c531659141344cd1fd0a4f28419497f9722a3daafe3b4186f6b6457e090600090a350600680546001600160a01b0319166001600160a01b0392909216919091179055565b6104e083838360016109fa565b6001600160a01b0383811660009081526001602090815260408083209386168352929052205460001981146104a757818110156107ba57604051637dc7a0d960e11b81526001600160a01b038416600482015260248101829052604481018390526064015b60405180910390fd5b6104a7848484840360006109fa565b6001600160a01b0383166107f357604051634b637e8f60e11b8152600060048201526024016107b1565b6001600160a01b03821661081d5760405163ec442f0560e01b8152600060048201526024016107b1565b6104e0838383610acf565b6105118133610bf9565b60008261085257604051634ea5912360e11b815260040160405180910390fd5b61085c83836108f9565b9392505050565b60008261088357604051634ea5912360e11b815260040160405180910390fd5b61085c838361098d565b6001600160a01b0382166108b75760405163ec442f0560e01b8152600060048201526024016107b1565b61058b60008383610acf565b6001600160a01b0382166108ed57604051634b637e8f60e11b8152600060048201526024016107b1565b61058b82600083610acf565b6000610905838361058f565b6109855760008381526005602090815260408083206001600160a01b03861684529091529020805460ff1916600117905561093d3390565b6001600160a01b0316826001600160a01b0316847f2f8788117e7eff1d82e926ec794901d17c78024a50270940304540a733656f0d60405160405180910390a45060016103ae565b5060006103ae565b6000610999838361058f565b156109855760008381526005602090815260408083206001600160a01b0386168085529252808320805460ff1916905551339286917ff6391f5c32d9c69d2a47ea670b442974b53935d1edc7fd64eb21e047a839171b9190a45060016103ae565b6001600160a01b038416610a245760405163e602df0560e01b8152600060048201526024016107b1565b6001600160a01b038316610a4e57604051634a1406b160e11b8152600060048201526024016107b1565b6001600160a01b03808516600090815260016020908152604080832093871683529290522082905580156104a757826001600160a01b0316846001600160a01b03167f8c5be1e5ebec7d5bd14f71427d1e84f3dd0314c0f7b2291e5b200ac8c7c3b92584604051610ac191815260200190565b60405180910390a350505050565b6001600160a01b038316610afa578060026000828254610aef9190610e83565b90915550610b6c9050565b6001600160a01b03831660009081526020819052604090205481811015610b4d5760405163391434e360e21b81526001600160a01b038516600482015260248101829052604481018390526064016107b1565b6001600160a01b03841660009081526020819052604090209082900390555b6001600160a01b038216610b8857600280548290039055610ba7565b6001600160a01b03821660009081526020819052604090208054820190555b816001600160a01b0316836001600160a01b03167fddf252ad1be2c89b69c2b068fc378daa952ba7f163c4a11628f55a4df523b3ef83604051610bec91815260200190565b60405180910390a3505050565b610c03828261058f565b61058b5760405163e2517d3f60e01b81526001600160a01b0382166004820152602481018390526044016107b1565b600060208284031215610c4457600080fd5b81356001600160e01b03198116811461085c57600080fd5b602081526000825180602084015260005b81811015610c8a5760208186018101516040868401015201610c6d565b506000604082850101526040601f19601f83011684010191505092915050565b80356001600160a01b0381168114610cc157600080fd5b919050565b60008060408385031215610cd957600080fd5b610ce283610caa565b946020939093013593505050565b600080600060608486031215610d0557600080fd5b610d0e84610caa565b9250610d1c60208501610caa565b929592945050506040919091013590565b600060208284031215610d3f57600080fd5b5035919050565b60008060408385031215610d5957600080fd5b82359150610d6960208401610caa565b90509250929050565b600080600060408486031215610d8757600080fd5b833567ffffffffffffffff811115610d9e57600080fd5b8401601f81018613610daf57600080fd5b803567ffffffffffffffff811115610dc657600080fd5b8660208260051b8401011115610ddb57600080fd5b6020918201979096509401359392505050565b600060208284031215610e0057600080fd5b61085c82610caa565b60008060408385031215610e1c57600080fd5b610e2583610caa565b9150610d6960208401610caa565b600181811c90821680610e4757607f821691505b602082108103610e6757634e487b7160e01b600052602260045260246000fd5b50919050565b634e487b7160e01b600052603260045260246000fd5b808201808211156103ae57634e487b7160e01b600052601160045260246000fdfe9f2df0fed2c77648de5860a4cc508cd0818c85b8b8a1ab4ceeef8d981c8956a6a2646970667358221220b7eb49dd3f54304e856209fdab273b595b3a27d318e3d41f2f1529679d4bd4bc64736f6c634300081c0033",
  "linkReferences": {},
  "deployedLinkReferences": {}
}