{
  "_format": "hh-sol-artifact-1",
  "contractName": "Token",
  "sourceName": "contracts/Token.sol",
  "abi": [
    {
      "inputs": [
        {
          "internalType": "string",
          "name": "name_",
          "type": "string"
        },
        {
          "internalType": "string",
          "name": "symbol_",
          "type": "string"
        },
        {
          "internalType": "uint8",
          "name": "decimals_",
          "type": "uint8"
        }
      ],
      "stateMutability": "nonpayable",
      "type": "constructor"
    },
    {
      "inputs": [],
      "name": "AccessControlBadConfirmation",
      "type": "error"
    },
    {
      "inputs": [
        {
          "internalType": "address",
          "name": "account",
          "type": "address"
        },
        {
          "internalType": "bytes32",
          "name": "neededRole",
          "type": "bytes32"
        }
      ],
      "name": "AccessControlUnauthorizedAccount",
      "type": "error"
    },
    {
      "inputs": [
        {
          "internalType": "address",
          "name": "spender",
          "type": "address"
        },
        {
          "internalType": "uint256",
          "name": "allowance",
          "type": "uint256"
        },
        {
          "internalType": "uint256",
          "name": "needed",
          "type": "uint256"
        }
      ],
      "name": "ERC20InsufficientAllowance",
      "type": "error"
    },
    {
      "inputs": [
        {
          "internalType": "address",
          "name": "sender",
          "type": "address"
        },
        {
          "internalType": "uint256",
          "name": "balance",
          "type": "uint256"
        },
        {
          "internalType": "uint256",
          "name": "needed",
          "type": "uint256"
        }
      ],
      "name": "ERC20InsufficientBalance",
      "type": "error"
    },
    {
      "inputs": [
        {
          "internalType": "address",
          "name": "approver",
          "type": "address"
        }
      ],
      "name": "ERC20InvalidApprover",
      "type": "error"
    },
    {
      "inputs": [
        {
          "internalType": "address",
          "name": "receiver",
          "type": "address"
        }
      ],
      "name": "ERC20InvalidReceiver",
      "type": "error"
    },
    {
      "inputs": [
        {
          "internalType": "address",
          "name": "sender",
          "type": "address"
        }
      ],
      "name": "ERC20InvalidSender",
      "type": "error"
    },
    {
      "inputs": [
        {
          "internalType": "address",
          "name": "spender",
          "type": "address"
        }
      ],
      "name": "ERC20InvalidSpender",
      "type": "error"
    },
    {
      "inputs": [],
      "name": "FailedRoleTransfer",
      "type": "error"
    },
    {
      "inputs": [],
      "name": "InvalidAddress",
      "type": "error"
    },
    {
      "inputs": [],
      "name": "NotOwner",
      "type": "error"
    },
    {
      "inputs": [],
      "name": "ProtectedRole",
      "type": "error"
    },
    {
      "anonymous": false,
      "inputs": [
        {
          "indexed": true,
          "internalType": "address",
          "name": "owner",
          "type": "address"
        },
        {
          "indexed": true,
          "internalType": "address",
          "name": "spender",
          "type": "address"
        },
        {
          "indexed": false,
          "internalType": "uint256",
          "name": "value",
          "type": "uint256"
        }
      ],
      "name": "Approval",
      "type": "event"
    },
    {
      "anonymous": false,
      "inputs": [
        {
          "indexed": true,
          "internalType": "address",
          "name": "previousOwner",
          "type": "address"
        },
        {
          "indexed": true,
          "internalType": "address",
          "name": "newOwner",
          "type": "address"
        }
      ],
      "name": "OwnershipTransferred",
      "type": "event"
    },
    {
      "anonymous": false,
      "inputs": [
        {
          "indexed": true,
          "internalType": "bytes32",
          "name": "role",
          "type": "bytes32"
        },
        {
          "indexed": true,
          "internalType": "bytes32",
          "name": "previousAdminRole",
          "type": "bytes32"
        },
        {
          "indexed": true,
          "internalType": "bytes32",
          "name": "newAdminRole",
          "type": "bytes32"
        }
      ],
      "name": "RoleAdminChanged",
      "type": "event"
    },
    {
      "anonymous": false,
      "inputs": [
        {
          "indexed": true,
          "internalType": "bytes32",
          "name": "role",
          "type": "bytes32"
        },
        {
          "indexed": true,
          "internalType": "address",
          "name": "account",
          "type": "address"
        },
        {
          "indexed": true,
          "internalType": "address",
          "name": "sender",
          "type": "address"
        }
      ],
      "name": "RoleGranted",
      "type": "event"
    },
    {
      "anonymous": false,
      "inputs": [
        {
          "indexed": true,
          "internalType": "bytes32",
          "name": "role",
          "type": "bytes32"
        },
        {
          "indexed": true,
          "internalType": "address",
          "name": "account",
          "type": "address"
        },
        {
          "indexed": true,
          "internalType": "address",
          "name": "sender",
          "type": "address"
        }
      ],
      "name": "RoleRevoked",
      "type": "event"
    },
    {
      "anonymous": false,
      "inputs": [
        {
          "indexed": true,
          "internalType": "address",
          "name": "from",
          "type": "address"
        },
        {
          "indexed": true,
          "internalType": "address",
          "name": "to",
          "type": "address"
        },
        {
          "indexed": false,
          "internalType": "uint256",
          "name": "value",
          "type": "uint256"
        }
      ],
      "name": "Transfer",
      "type": "event"
    },
    {
      "inputs": [],
      "name": "DEFAULT_ADMIN_ROLE",
      "outputs": [
        {
          "internalType": "bytes32",
          "name": "",
          "type": "bytes32"
        }
      ],
      "stateMutability": "view",
      "type": "function"
    },
    {
      "inputs": [],
      "name": "MINTER_ROLE",
      "outputs": [
        {
          "internalType": "bytes32",
          "name": "",
          "type": "bytes32"
        }
      ],
      "stateMutability": "view",
      "type": "function"
    },
    {
      "inputs": [
        {
          "internalType": "address",
          "name": "owner",
          "type": "address"
        },
        {
          "internalType": "address",
          "name": "spender",
          "type": "address"
        }
      ],
      "name": "allowance",
      "outputs": [
        {
          "internalType": "uint256",
          "name": "",
          "type": "uint256"
        }
      ],
      "stateMutability": "view",
      "type": "function"
    },
    {
      "inputs": [
        {
          "internalType": "address",
          "name": "spender",
          "type": "address"
        },
        {
          "internalType": "uint256",
          "name": "value",
          "type": "uint256"
        }
      ],
      "name": "approve",
      "outputs": [
        {
          "internalType": "bool",
          "name": "",
          "type": "bool"
        }
      ],
      "stateMutability": "nonpayable",
      "type": "function"
    },
    {
      "inputs": [
        {
          "internalType": "address",
          "name": "account",
          "type": "address"
        }
      ],
      "name": "balanceOf",
      "outputs": [
        {
          "internalType": "uint256",
          "name": "",
          "type": "uint256"
        }
      ],
      "stateMutability": "view",
      "type": "function"
    },
    {
      "inputs": [
        {
          "internalType": "uint256",
          "name": "value",
          "type": "uint256"
        }
      ],
      "name": "burn",
      "outputs": [],
      "stateMutability": "nonpayable",
      "type": "function"
    },
    {
      "inputs": [
        {
          "internalType": "address",
          "name": "account",
          "type": "address"
        },
        {
          "internalType": "uint256",
          "name": "value",
          "type": "uint256"
        }
      ],
      "name": "burnFrom",
      "outputs": [],
      "stateMutability": "nonpayable",
      "type": "function"
    },
    {
      "inputs": [],
      "name": "decimals",
      "outputs": [
        {
          "internalType": "uint8",
          "name": "",
          "type": "uint8"
        }
      ],
      "stateMutability": "view",
      "type": "function"
    },
    {
      "inputs": [
        {
          "internalType": "bytes32",
          "name": "role",
          "type": "bytes32"
        }
      ],
      "name": "getRoleAdmin",
      "outputs": [
        {
          "internalType": "bytes32",
          "name": "",
          "type": "bytes32"
        }
      ],
      "stateMutability": "view",
      "type": "function"
    },
    {
      "inputs": [
        {
          "internalType": "bytes32",
          "name": "role",
          "type": "bytes32"
        },
        {
          "internalType": "address",
          "name": "account",
          "type": "address"
        }
      ],
      "name": "grantRole",
      "outputs": [],
      "stateMutability": "nonpayable",
      "type": "function"
    },
    {
      "inputs": [
        {
          "internalType": "bytes32",
          "name": "role",
          "type": "bytes32"
        },
        {
          "internalType": "address",
          "name": "account",
          "type": "address"
        }
      ],
      "name": "hasRole",
      "outputs": [
        {
          "internalType": "bool",
          "name": "",
          "type": "bool"
        }
      ],
      "stateMutability": "view",
      "type": "function"
    },
    {
      "inputs": [
        {
          "internalType": "address",
          "name": "to",
          "type": "address"
        },
        {
          "internalType": "uint256",
          "name": "amount",
          "type": "uint256"
        }
      ],
      "name": "mint",
      "outputs": [],
      "stateMutability": "nonpayable",
      "type": "function"
    },
    {
      "inputs": [
        {
          "internalType": "address[]",
          "name": "tos",
          "type": "address[]"
        },
        {
          "internalType": "uint256",
          "name": "amount",
          "type": "uint256"
        }
      ],
      "name": "mintMany",
      "outputs": [],
      "stateMutability": "nonpayable",
      "type": "function"
    },
    {
      "inputs": [],
      "name": "name",
      "outputs": [
        {
          "internalType": "string",
          "name": "",
          "type": "string"
        }
      ],
      "stateMutability": "view",
      "type": "function"
    },
    {
      "inputs": [],
      "name": "owner",
      "outputs": [
        {
          "internalType": "address",
          "name": "",
          "type": "address"
        }
      ],
      "stateMutability": "view",
      "type": "function"
    },
    {
      "inputs": [
        {
          "internalType": "bytes32",
          "name": "role",
          "type": "bytes32"
        },
        {
          "internalType": "address",
          "name": "callerConfirmation",
          "type": "address"
        }
      ],
      "name": "renounceRole",
      "outputs": [],
      "stateMutability": "nonpayable",
      "type": "function"
    },
    {
      "inputs": [
        {
          "internalType": "bytes32",
          "name": "role",
          "type": "bytes32"
        },
        {
          "internalType": "address",
          "name": "account",
          "type": "address"
        }
      ],
      "name": "revokeRole",
      "outputs": [],
      "stateMutability": "nonpayable",
      "type": "function"
    },
    {
      "inputs": [
        {
          "internalType": "bytes4",
          "name": "interfaceId",
          "type": "bytes4"
        }
      ],
      "name": "supportsInterface",
      "outputs": [
        {
          "internalType": "bool",
          "name": "",
          "type": "bool"
        }
      ],
      "stateMutability": "view",
      "type": "function"
    },
    {
      "inputs": [],
      "name": "symbol",
      "outputs": [
        {
          "internalType": "string",
          "name": "",
          "type": "string"
        }
      ],
      "stateMutability": "view",
      "type": "function"
    },
    {
      "inputs": [],
      "name": "totalSupply",
      "outputs": [
        {
          "internalType": "uint256",
          "name": "",
          "type": "uint256"
        }
      ],
      "stateMutability": "view",
      "type": "function"
    },
    {
      "inputs": [
        {
          "internalType": "address",
          "name": "to",
          "type": "address"
        },
        {
          "internalType": "uint256",
          "name": "value",
          "type": "uint256"
        }
      ],
      "name": "transfer",
      "outputs": [
        {
          "internalType": "bool",
          "name": "",
          "type": "bool"
        }
      ],
      "stateMutability": "nonpayable",
      "type": "function"
    },
    {
      "inputs": [
        {
          "internalType": "address",
          "name": "from",
          "type": "address"
        },
        {
          "internalType": "address",
          "name": "to",
          "type": "address"
        },
        {
          "internalType": "uint256",
          "name": "value",
          "type": "uint256"
        }
      ],
      "name": "transferFrom",
      "outputs": [
        {
          "internalType": "bool",
          "name": "",
          "type": "bool"
        }
      ],
      "stateMutability": "nonpayable",
      "type": "function"
    },
    {
      "inputs": [
        {
          "internalType": "address",
          "name": "newOwner",
          "type": "address"
        }
      ],
      "name": "transferOwnership",
      "outputs": [],
      "stateMutability": "nonpayable",
      "type": "function"
    }
  ],
  "bytecode": "0x60a060405234801561001057600080fd5b506040516125a53803806125a583398181016040528101906100329190610462565b82828160039081610043919061070e565b508060049081610053919061070e565b5050508060ff1660808160ff168152505061007261014360201b60201c565b600660006101000a81548173ffffffffffffffffffffffffffffffffffffffff021916908373ffffffffffffffffffffffffffffffffffffffff1602179055506100e76000801b600660009054906101000a900473ffffffffffffffffffffffffffffffffffffffff1661014b60201b60201c565b5061013a7f9f2df0fed2c77648de5860a4cc508cd0818c85b8b8a1ab4ceeef8d981c8956a6600660009054906101000a900473ffffffffffffffffffffffffffffffffffffffff1661014b60201b60201c565b505050506107e0565b600033905090565b600061015d838361024960201b60201c565b61023e5760016005600085815260200190815260200160002060000160008473ffffffffffffffffffffffffffffffffffffffff1673ffffffffffffffffffffffffffffffffffffffff16815260200190815260200160002060006101000a81548160ff0219169083151502179055506101db61014360201b60201c565b73ffffffffffffffffffffffffffffffffffffffff168273ffffffffffffffffffffffffffffffffffffffff16847f2f8788117e7eff1d82e926ec794901d17c78024a50270940304540a733656f0d60405160405180910390a460019050610243565b600090505b92915050565b60006005600084815260200190815260200160002060000160008373ffffffffffffffffffffffffffffffffffffffff1673ffffffffffffffffffffffffffffffffffffffff16815260200190815260200160002060009054906101000a900460ff16905092915050565b6000604051905090565b600080fd5b600080fd5b600080fd5b600080fd5b6000601f19601f8301169050919050565b7f4e487b7100000000000000000000000000000000000000000000000000000000600052604160045260246000fd5b61031b826102d2565b810181811067ffffffffffffffff8211171561033a576103396102e3565b5b80604052505050565b600061034d6102b4565b90506103598282610312565b919050565b600067ffffffffffffffff821115610379576103786102e3565b5b610382826102d2565b9050602081019050919050565b60005b838110156103ad578082015181840152602081019050610392565b60008484015250505050565b60006103cc6103c78461035e565b610343565b9050828152602081018484840111156103e8576103e76102cd565b5b6103f384828561038f565b509392505050565b600082601f8301126104105761040f6102c8565b5b81516104208482602086016103b9565b91505092915050565b600060ff82169050919050565b61043f81610429565b811461044a57600080fd5b50565b60008151905061045c81610436565b92915050565b60008060006060848603121561047b5761047a6102be565b5b600084015167ffffffffffffffff811115610499576104986102c3565b5b6104a5868287016103fb565b935050602084015167ffffffffffffffff8111156104c6576104c56102c3565b5b6104d2868287016103fb565b92505060406104e38682870161044d565b9150509250925092565b600081519050919050565b7f4e487b7100000000000000000000000000000000000000000000000000000000600052602260045260246000fd5b6000600282049050600182168061053f57607f821691505b602082108103610552576105516104f8565b5b50919050565b60008190508160005260206000209050919050565b60006020601f8301049050919050565b600082821b905092915050565b6000600883026105ba7fffffffffffffffffffffffffffffffffffffffffffffffffffffffffffffffff8261057d565b6105c4868361057d565b95508019841693508086168417925050509392505050565b6000819050919050565b6000819050919050565b600061060b610606610601846105dc565b6105e6565b6105dc565b9050919050565b6000819050919050565b610625836105f0565b61063961063182610612565b84845461058a565b825550505050565b600090565b61064e610641565b61065981848461061c565b505050565b5b8181101561067d57610672600082610646565b60018101905061065f565b5050565b601f8211156106c25761069381610558565b61069c8461056d565b810160208510156106ab578190505b6106bf6106b78561056d565b83018261065e565b50505b505050565b600082821c905092915050565b60006106e5600019846008026106c7565b1980831691505092915050565b60006106fe83836106d4565b9150826002028217905092915050565b610717826104ed565b67ffffffffffffffff8111156107305761072f6102e3565b5b61073a8254610527565b610745828285610681565b600060209050601f8311600181146107785760008415610766578287015190505b61077085826106f2565b8655506107d8565b601f19841661078686610558565b60005b828110156107ae57848901518255600182019150602085019450602081019050610789565b868310156107cb57848901516107c7601f8916826106d4565b8355505b6001600288020188555050505b505050505050565b608051611daa6107fb60003960006106320152611daa6000f3fe608060405234801561001057600080fd5b506004361061014d5760003560e01c8063645b569d116100c3578063a217fddf1161007c578063a217fddf146103b0578063a9059cbb146103ce578063d5391393146103fe578063d547741f1461041c578063dd62ed3e14610438578063f2fde38b146104685761014d565b8063645b569d146102dc57806370a08231146102f857806379cc6790146103285780638da5cb5b1461034457806391d148541461036257806395d89b41146103925761014d565b8063248a9ca311610115578063248a9ca31461021e5780632f2ff15d1461024e578063313ce5671461026a57806336568abe1461028857806340c10f19146102a457806342966c68146102c05761014d565b806301ffc9a71461015257806306fdde0314610182578063095ea7b3146101a057806318160ddd146101d057806323b872dd146101ee575b600080fd5b61016c6004803603810190610167919061172f565b610484565b6040516101799190611777565b60405180910390f35b61018a6104fe565b6040516101979190611822565b60405180910390f35b6101ba60048036038101906101b591906118d8565b610590565b6040516101c79190611777565b60405180910390f35b6101d86105b3565b6040516101e59190611927565b60405180910390f35b61020860048036038101906102039190611942565b6105bd565b6040516102159190611777565b60405180910390f35b610238600480360381019061023391906119cb565b6105ec565b6040516102459190611a07565b60405180910390f35b61026860048036038101906102639190611a22565b61060c565b005b61027261062e565b60405161027f9190611a7e565b60405180910390f35b6102a2600480360381019061029d9190611a22565b610656565b005b6102be60048036038101906102b991906118d8565b6106d1565b005b6102da60048036038101906102d59190611a99565b61070a565b005b6102f660048036038101906102f19190611b2b565b61071e565b005b610312600480360381019061030d9190611b8b565b61079b565b60405161031f9190611927565b60405180910390f35b610342600480360381019061033d91906118d8565b6107e3565b005b61034c610803565b6040516103599190611bc7565b60405180910390f35b61037c60048036038101906103779190611a22565b61082d565b6040516103899190611777565b60405180910390f35b61039a610898565b6040516103a79190611822565b60405180910390f35b6103b861092a565b6040516103c59190611a07565b60405180910390f35b6103e860048036038101906103e391906118d8565b610931565b6040516103f59190611777565b60405180910390f35b610406610954565b6040516104139190611a07565b60405180910390f35b61043660048036038101906104319190611a22565b610978565b005b610452600480360381019061044d9190611be2565b61099a565b60405161045f9190611927565b60405180910390f35b610482600480360381019061047d9190611b8b565b610a21565b005b60007f7965db0b000000000000000000000000000000000000000000000000000000007bffffffffffffffffffffffffffffffffffffffffffffffffffffffff1916827bffffffffffffffffffffffffffffffffffffffffffffffffffffffff191614806104f757506104f682610cd7565b5b9050919050565b60606003805461050d90611c51565b80601f016020809104026020016040519081016040528092919081815260200182805461053990611c51565b80156105865780601f1061055b57610100808354040283529160200191610586565b820191906000526020600020905b81548152906001019060200180831161056957829003601f168201915b5050505050905090565b60008061059b610d41565b90506105a8818585610d49565b600191505092915050565b6000600254905090565b6000806105c8610d41565b90506105d5858285610d5b565b6105e0858585610def565b60019150509392505050565b600060056000838152602001908152602001600020600101549050919050565b610615826105ec565b61061e81610ee3565b6106288383610ef7565b50505050565b60007f0000000000000000000000000000000000000000000000000000000000000000905090565b61065e610d41565b73ffffffffffffffffffffffffffffffffffffffff168173ffffffffffffffffffffffffffffffffffffffff16146106c2576040517f6697b23200000000000000000000000000000000000000000000000000000000815260040160405180910390fd5b6106cc8282610f47565b505050565b7f9f2df0fed2c77648de5860a4cc508cd0818c85b8b8a1ab4ceeef8d981c8956a66106fb81610ee3565b6107058383610f97565b505050565b61071b610715610d41565b82611019565b50565b7f9f2df0fed2c77648de5860a4cc508cd0818c85b8b8a1ab4ceeef8d981c8956a661074881610ee3565b60005b848490508110156107945761078785858381811061076c5761076b611c82565b5b90506020020160208101906107819190611b8b565b84610f97565b808060010191505061074b565b5050505050565b60008060008373ffffffffffffffffffffffffffffffffffffffff1673ffffffffffffffffffffffffffffffffffffffff168152602001908152602001600020549050919050565b6107f5826107ef610d41565b83610d5b565b6107ff8282611019565b5050565b6000600660009054906101000a900473ffffffffffffffffffffffffffffffffffffffff16905090565b60006005600084815260200190815260200160002060000160008373ffffffffffffffffffffffffffffffffffffffff1673ffffffffffffffffffffffffffffffffffffffff16815260200190815260200160002060009054906101000a900460ff16905092915050565b6060600480546108a790611c51565b80601f01602080910402602001604051908101604052809291908181526020018280546108d390611c51565b80156109205780601f106108f557610100808354040283529160200191610920565b820191906000526020600020905b81548152906001019060200180831161090357829003601f168201915b5050505050905090565b6000801b81565b60008061093c610d41565b9050610949818585610def565b600191505092915050565b7f9f2df0fed2c77648de5860a4cc508cd0818c85b8b8a1ab4ceeef8d981c8956a681565b610981826105ec565b61098a81610ee3565b6109948383610f47565b50505050565b6000600160008473ffffffffffffffffffffffffffffffffffffffff1673ffffffffffffffffffffffffffffffffffffffff16815260200190815260200160002060008373ffffffffffffffffffffffffffffffffffffffff1673ffffffffffffffffffffffffffffffffffffffff16815260200190815260200160002054905092915050565b6000801b610a2e81610ee3565b610a36610d41565b73ffffffffffffffffffffffffffffffffffffffff16600660009054906101000a900473ffffffffffffffffffffffffffffffffffffffff1673ffffffffffffffffffffffffffffffffffffffff1614610abc576040517f30cd747100000000000000000000000000000000000000000000000000000000815260040160405180910390fd5b600073ffffffffffffffffffffffffffffffffffffffff168273ffffffffffffffffffffffffffffffffffffffff1603610b22576040517fe6c4247b00000000000000000000000000000000000000000000000000000000815260040160405180910390fd5b610b2f6000801b8361109b565b1580610b675750610b656000801b600660009054906101000a900473ffffffffffffffffffffffffffffffffffffffff1661118d565b155b15610b9e576040517f86dec25600000000000000000000000000000000000000000000000000000000815260040160405180910390fd5b610bc87f9f2df0fed2c77648de5860a4cc508cd0818c85b8b8a1ab4ceeef8d981c8956a68361109b565b50610c157f9f2df0fed2c77648de5860a4cc508cd0818c85b8b8a1ab4ceeef8d981c8956a6600660009054906101000a900473ffffffffffffffffffffffffffffffffffffffff1661118d565b508173ffffffffffffffffffffffffffffffffffffffff16600660009054906101000a900473ffffffffffffffffffffffffffffffffffffffff1673ffffffffffffffffffffffffffffffffffffffff167f8be0079c531659141344cd1fd0a4f28419497f9722a3daafe3b4186f6b6457e060405160405180910390a381600660006101000a81548173ffffffffffffffffffffffffffffffffffffffff021916908373ffffffffffffffffffffffffffffffffffffffff1602179055505050565b60007f01ffc9a7000000000000000000000000000000000000000000000000000000007bffffffffffffffffffffffffffffffffffffffffffffffffffffffff1916827bffffffffffffffffffffffffffffffffffffffffffffffffffffffff1916149050919050565b600033905090565b610d568383836001611280565b505050565b6000610d67848461099a565b90507fffffffffffffffffffffffffffffffffffffffffffffffffffffffffffffffff8114610de95781811015610dd9578281836040517ffb8f41b2000000000000000000000000000000000000000000000000000000008152600401610dd093929190611cb1565b60405180910390fd5b610de884848484036000611280565b5b50505050565b600073ffffffffffffffffffffffffffffffffffffffff168373ffffffffffffffffffffffffffffffffffffffff1603610e615760006040517f96c6fd1e000000000000000000000000000000000000000000000000000000008152600401610e589190611bc7565b60405180910390fd5b600073ffffffffffffffffffffffffffffffffffffffff168273ffffffffffffffffffffffffffffffffffffffff1603610ed35760006040517fec442f05000000000000000000000000000000000000000000000000000000008152600401610eca9190611bc7565b60405180910390fd5b610ede838383611457565b505050565b610ef481610eef610d41565b61167c565b50565b60008060001b8303610f35576040517f9d4b224600000000000000000000000000000000000000000000000000000000815260040160405180910390fd5b610f3f838361109b565b905092915050565b60008060001b8303610f85576040517f9d4b224600000000000000000000000000000000000000000000000000000000815260040160405180910390fd5b610f8f838361118d565b905092915050565b600073ffffffffffffffffffffffffffffffffffffffff168273ffffffffffffffffffffffffffffffffffffffff16036110095760006040517fec442f050000000000000000000000000000000000000000000000000000000081526004016110009190611bc7565b60405180910390fd5b61101560008383611457565b5050565b600073ffffffffffffffffffffffffffffffffffffffff168273ffffffffffffffffffffffffffffffffffffffff160361108b5760006040517f96c6fd1e0000000000000000000000000000000000000000000000000000000081526004016110829190611bc7565b60405180910390fd5b61109782600083611457565b5050565b60006110a7838361082d565b6111825760016005600085815260200190815260200160002060000160008473ffffffffffffffffffffffffffffffffffffffff1673ffffffffffffffffffffffffffffffffffffffff16815260200190815260200160002060006101000a81548160ff02191690831515021790555061111f610d41565b73ffffffffffffffffffffffffffffffffffffffff168273ffffffffffffffffffffffffffffffffffffffff16847f2f8788117e7eff1d82e926ec794901d17c78024a50270940304540a733656f0d60405160405180910390a460019050611187565b600090505b92915050565b6000611199838361082d565b156112755760006005600085815260200190815260200160002060000160008473ffffffffffffffffffffffffffffffffffffffff1673ffffffffffffffffffffffffffffffffffffffff16815260200190815260200160002060006101000a81548160ff021916908315150217905550611212610d41565b73ffffffffffffffffffffffffffffffffffffffff168273ffffffffffffffffffffffffffffffffffffffff16847ff6391f5c32d9c69d2a47ea670b442974b53935d1edc7fd64eb21e047a839171b60405160405180910390a46001905061127a565b600090505b92915050565b600073ffffffffffffffffffffffffffffffffffffffff168473ffffffffffffffffffffffffffffffffffffffff16036112f25760006040517fe602df050000000000000000000000000000000000000000000000000000000081526004016112e99190611bc7565b60405180910390fd5b600073ffffffffffffffffffffffffffffffffffffffff168373ffffffffffffffffffffffffffffffffffffffff16036113645760006040517f94280d6200000000000000000000000000000000000000000000000000000000815260040161135b9190611bc7565b60405180910390fd5b81600160008673ffffffffffffffffffffffffffffffffffffffff1673ffffffffffffffffffffffffffffffffffffffff16815260200190815260200160002060008573ffffffffffffffffffffffffffffffffffffffff1673ffffffffffffffffffffffffffffffffffffffff168152602001908152602001600020819055508015611451578273ffffffffffffffffffffffffffffffffffffffff168473ffffffffffffffffffffffffffffffffffffffff167f8c5be1e5ebec7d5bd14f71427d1e84f3dd0314c0f7b2291e5b200ac8c7c3b925846040516114489190611927565b60405180910390a35b50505050565b600073ffffffffffffffffffffffffffffffffffffffff168373ffffffffffffffffffffffffffffffffffffffff16036114a957806002600082825461149d9190611d17565b9250508190555061157c565b60008060008573ffffffffffffffffffffffffffffffffffffffff1673ffffffffffffffffffffffffffffffffffffffff16815260200190815260200160002054905081811015611535578381836040517fe450d38c00000000000000000000000000000000000000000000000000000000815260040161152c93929190611cb1565b60405180910390fd5b8181036000808673ffffffffffffffffffffffffffffffffffffffff1673ffffffffffffffffffffffffffffffffffffffff16815260200190815260200160002081905550505b600073ffffffffffffffffffffffffffffffffffffffff168273ffffffffffffffffffffffffffffffffffffffff16036115c55780600260008282540392505081905550611612565b806000808473ffffffffffffffffffffffffffffffffffffffff1673ffffffffffffffffffffffffffffffffffffffff168152602001908152602001600020600082825401925050819055505b8173ffffffffffffffffffffffffffffffffffffffff168373ffffffffffffffffffffffffffffffffffffffff167fddf252ad1be2c89b69c2b068fc378daa952ba7f163c4a11628f55a4df523b3ef8360405161166f9190611927565b60405180910390a3505050565b611686828261082d565b6116c95780826040517fe2517d3f0000000000000000000000000000000000000000000000000000000081526004016116c0929190611d4b565b60405180910390fd5b5050565b600080fd5b600080fd5b60007fffffffff0000000000000000000000000000000000000000000000000000000082169050919050565b61170c816116d7565b811461171757600080fd5b50565b60008135905061172981611703565b92915050565b600060208284031215611745576117446116cd565b5b60006117538482850161171a565b91505092915050565b60008115159050919050565b6117718161175c565b82525050565b600060208201905061178c6000830184611768565b92915050565b600081519050919050565b600082825260208201905092915050565b60005b838110156117cc5780820151818401526020810190506117b1565b60008484015250505050565b6000601f19601f8301169050919050565b60006117f482611792565b6117fe818561179d565b935061180e8185602086016117ae565b611817816117d8565b840191505092915050565b6000602082019050818103600083015261183c81846117e9565b905092915050565b600073ffffffffffffffffffffffffffffffffffffffff82169050919050565b600061186f82611844565b9050919050565b61187f81611864565b811461188a57600080fd5b50565b60008135905061189c81611876565b92915050565b6000819050919050565b6118b5816118a2565b81146118c057600080fd5b50565b6000813590506118d2816118ac565b92915050565b600080604083850312156118ef576118ee6116cd565b5b60006118fd8582860161188d565b925050602061190e858286016118c3565b9150509250929050565b611921816118a2565b82525050565b600060208201905061193c6000830184611918565b92915050565b60008060006060848603121561195b5761195a6116cd565b5b60006119698682870161188d565b935050602061197a8682870161188d565b925050604061198b868287016118c3565b9150509250925092565b6000819050919050565b6119a881611995565b81146119b357600080fd5b50565b6000813590506119c58161199f565b92915050565b6000602082840312156119e1576119e06116cd565b5b60006119ef848285016119b6565b91505092915050565b611a0181611995565b82525050565b6000602082019050611a1c60008301846119f8565b92915050565b60008060408385031215611a3957611a386116cd565b5b6000611a47858286016119b6565b9250506020611a588582860161188d565b9150509250929050565b600060ff82169050919050565b611a7881611a62565b82525050565b6000602082019050611a936000830184611a6f565b92915050565b600060208284031215611aaf57611aae6116cd565b5b6000611abd848285016118c3565b91505092915050565b600080fd5b600080fd5b600080fd5b60008083601f840112611aeb57611aea611ac6565b5b8235905067ffffffffffffffff811115611b0857611b07611acb565b5b602083019150836020820283011115611b2457611b23611ad0565b5b9250929050565b600080600060408486031215611b4457611b436116cd565b5b600084013567ffffffffffffffff811115611b6257611b616116d2565b5b611b6e86828701611ad5565b93509350506020611b81868287016118c3565b9150509250925092565b600060208284031215611ba157611ba06116cd565b5b6000611baf8482850161188d565b91505092915050565b611bc181611864565b82525050565b6000602082019050611bdc6000830184611bb8565b92915050565b60008060408385031215611bf957611bf86116cd565b5b6000611c078582860161188d565b9250506020611c188582860161188d565b9150509250929050565b7f4e487b7100000000000000000000000000000000000000000000000000000000600052602260045260246000fd5b60006002820490506001821680611c6957607f821691505b602082108103611c7c57611c7b611c22565b5b50919050565b7f4e487b7100000000000000000000000000000000000000000000000000000000600052603260045260246000fd5b6000606082019050611cc66000830186611bb8565b611cd36020830185611918565b611ce06040830184611918565b949350505050565b7f4e487b7100000000000000000000000000000000000000000000000000000000600052601160045260246000fd5b6000611d22826118a2565b9150611d2d836118a2565b9250828201905080821115611d4557611d44611ce8565b5b92915050565b6000604082019050611d606000830185611bb8565b611d6d60208301846119f8565b939250505056fea2646970667358221220e1084a6209fa6024d984847a6aa9fbc2eed95f38c7830aade8ce8ac2068bf70e64736f6c634300081c0033",
  "linkReferences": {},
  "deployedLinkReferences": {}
}