{
  "_format": "hh-sol-artifact-1",
  "contractName": "Offer",
  "sourceName": "contracts/Offer.sol",
  "abi": [
    {
      "inputs": [
        {
          "internalType": "string",
          "name": "name_",
          "type": "string"
        },
        {
          "internalType": "string",
          "name": "symbol_",
          "type": "string"
        }
      ],
      "stateMutability": "nonpayable",
      "type": "constructor"
    },
    {
      "inputs": [
        {
          "internalType": "address",
          "name": "sender",
          "type": "address"
        },
        {
          "internalType": "uint256",
          "name": "balance",
          "type": "uint256"
        },
        {
          "internalType": "uint256",
          "name": "needed",
          "type": "uint256"
        },
        {
          "internalType": "uint256",
          "name": "tokenId",
          "type": "uint256"
        }
      ],
      "name": "ERC1155InsufficientBalance",
      "type": "error"
    },
    {
      "inputs": [
        {
          "internalType": "address",
          "name": "approver",
          "type": "address"
        }
      ],
      "name": "ERC1155InvalidApprover",
      "type": "error"
    },
    {
      "inputs": [
        {
          "internalType": "uint256",
          "name": "idsLength",
          "type": "uint256"
        },
        {
          "internalType": "uint256",
          "name": "valuesLength",
          "type": "uint256"
        }
      ],
      "name": "ERC1155InvalidArrayLength",
      "type": "error"
    },
    {
      "inputs": [
        {
          "internalType": "address",
          "name": "operator",
          "type": "address"
        }
      ],
      "name": "ERC1155InvalidOperator",
      "type": "error"
    },
    {
      "inputs": [
        {
          "internalType": "address",
          "name": "receiver",
          "type": "address"
        }
      ],
      "name": "ERC1155InvalidReceiver",
      "type": "error"
    },
    {
      "inputs": [
        {
          "internalType": "address",
          "name": "receiver",
          "type": "address"
        }
      ],
      "name": "ERC1155InvalidReceiver",
      "type": "error"
    },
    {
      "inputs": [
        {
          "internalType": "address",
          "name": "sender",
          "type": "address"
        }
      ],
      "name": "ERC1155InvalidSender",
      "type": "error"
    },
    {
      "inputs": [
        {
          "internalType": "address",
          "name": "operator",
          "type": "address"
        },
        {
          "internalType": "address",
          "name": "owner",
          "type": "address"
        }
      ],
      "name": "ERC1155MissingApprovalForAll",
      "type": "error"
    },
    {
      "inputs": [],
      "name": "ERC721EnumerableForbiddenBatchMint",
      "type": "error"
    },
    {
      "inputs": [
        {
          "internalType": "address",
          "name": "sender",
          "type": "address"
        },
        {
          "internalType": "uint256",
          "name": "tokenId",
          "type": "uint256"
        },
        {
          "internalType": "address",
          "name": "owner",
          "type": "address"
        }
      ],
      "name": "ERC721IncorrectOwner",
      "type": "error"
    },
    {
      "inputs": [
        {
          "internalType": "address",
          "name": "operator",
          "type": "address"
        },
        {
          "internalType": "uint256",
          "name": "tokenId",
          "type": "uint256"
        }
      ],
      "name": "ERC721InsufficientApproval",
      "type": "error"
    },
    {
      "inputs": [
        {
          "internalType": "address",
          "name": "approver",
          "type": "address"
        }
      ],
      "name": "ERC721InvalidApprover",
      "type": "error"
    },
    {
      "inputs": [
        {
          "internalType": "address",
          "name": "operator",
          "type": "address"
        }
      ],
      "name": "ERC721InvalidOperator",
      "type": "error"
    },
    {
      "inputs": [
        {
          "internalType": "address",
          "name": "owner",
          "type": "address"
        }
      ],
      "name": "ERC721InvalidOwner",
      "type": "error"
    },
    {
      "inputs": [
        {
          "internalType": "address",
          "name": "receiver",
          "type": "address"
        }
      ],
      "name": "ERC721InvalidReceiver",
      "type": "error"
    },
    {
      "inputs": [
        {
          "internalType": "address",
          "name": "sender",
          "type": "address"
        }
      ],
      "name": "ERC721InvalidSender",
      "type": "error"
    },
    {
      "inputs": [
        {
          "internalType": "uint256",
          "name": "tokenId",
          "type": "uint256"
        }
      ],
      "name": "ERC721NonexistentToken",
      "type": "error"
    },
    {
      "inputs": [
        {
          "internalType": "address",
          "name": "owner",
          "type": "address"
        },
        {
          "internalType": "uint256",
          "name": "index",
          "type": "uint256"
        }
      ],
      "name": "ERC721OutOfBoundsIndex",
      "type": "error"
    },
    {
      "inputs": [
        {
          "internalType": "address",
          "name": "owner",
          "type": "address"
        }
      ],
      "name": "OwnableInvalidOwner",
      "type": "error"
    },
    {
      "inputs": [
        {
          "internalType": "address",
          "name": "account",
          "type": "address"
        }
      ],
      "name": "OwnableUnauthorizedAccount",
      "type": "error"
    },
    {
      "inputs": [
        {
          "internalType": "uint256",
          "name": "value",
          "type": "uint256"
        },
        {
          "internalType": "uint256",
          "name": "length",
          "type": "uint256"
        }
      ],
      "name": "StringsInsufficientHexLength",
      "type": "error"
    },
    {
      "inputs": [],
      "name": "UnsupportedMethod",
      "type": "error"
    },
    {
      "anonymous": false,
      "inputs": [
        {
          "indexed": true,
          "internalType": "address",
          "name": "owner",
          "type": "address"
        },
        {
          "indexed": true,
          "internalType": "address",
          "name": "approved",
          "type": "address"
        },
        {
          "indexed": true,
          "internalType": "uint256",
          "name": "tokenId",
          "type": "uint256"
        }
      ],
      "name": "Approval",
      "type": "event"
    },
    {
      "anonymous": false,
      "inputs": [
        {
          "indexed": true,
          "internalType": "address",
          "name": "owner",
          "type": "address"
        },
        {
          "indexed": true,
          "internalType": "address",
          "name": "operator",
          "type": "address"
        },
        {
          "indexed": false,
          "internalType": "bool",
          "name": "approved",
          "type": "bool"
        }
      ],
      "name": "ApprovalForAll",
      "type": "event"
    },
    {
      "anonymous": false,
      "inputs": [
        {
          "indexed": false,
          "internalType": "uint256",
          "name": "_fromTokenId",
          "type": "uint256"
        },
        {
          "indexed": false,
          "internalType": "uint256",
          "name": "_toTokenId",
          "type": "uint256"
        }
      ],
      "name": "BatchMetadataUpdate",
      "type": "event"
    },
    {
      "anonymous": false,
      "inputs": [
        {
          "indexed": false,
          "internalType": "uint256",
          "name": "_tokenId",
          "type": "uint256"
        }
      ],
      "name": "MetadataUpdate",
      "type": "event"
    },
    {
      "anonymous": false,
      "inputs": [
        {
          "indexed": true,
          "internalType": "address",
          "name": "previousOwner",
          "type": "address"
        },
        {
          "indexed": true,
          "internalType": "address",
          "name": "newOwner",
          "type": "address"
        }
      ],
      "name": "OwnershipTransferred",
      "type": "event"
    },
    {
      "anonymous": false,
      "inputs": [
        {
          "indexed": true,
          "internalType": "address",
          "name": "from",
          "type": "address"
        },
        {
          "indexed": true,
          "internalType": "address",
          "name": "to",
          "type": "address"
        },
        {
          "indexed": true,
          "internalType": "uint256",
          "name": "tokenId",
          "type": "uint256"
        }
      ],
      "name": "Transfer",
      "type": "event"
    },
    {
      "anonymous": false,
      "inputs": [
        {
          "indexed": true,
          "internalType": "address",
          "name": "operator",
          "type": "address"
        },
        {
          "indexed": true,
          "internalType": "address",
          "name": "from",
          "type": "address"
        },
        {
          "indexed": true,
          "internalType": "address",
          "name": "to",
          "type": "address"
        },
        {
          "indexed": false,
          "internalType": "uint256[]",
          "name": "ids",
          "type": "uint256[]"
        },
        {
          "indexed": false,
          "internalType": "uint256[]",
          "name": "values",
          "type": "uint256[]"
        }
      ],
      "name": "TransferBatch",
      "type": "event"
    },
    {
      "anonymous": false,
      "inputs": [
        {
          "indexed": true,
          "internalType": "address",
          "name": "operator",
          "type": "address"
        },
        {
          "indexed": true,
          "internalType": "address",
          "name": "from",
          "type": "address"
        },
        {
          "indexed": true,
          "internalType": "address",
          "name": "to",
          "type": "address"
        },
        {
          "indexed": false,
          "internalType": "uint256",
          "name": "id",
          "type": "uint256"
        },
        {
          "indexed": false,
          "internalType": "uint256",
          "name": "value",
          "type": "uint256"
        }
      ],
      "name": "TransferSingle",
      "type": "event"
    },
    {
      "anonymous": false,
      "inputs": [
        {
          "indexed": false,
          "internalType": "string",
          "name": "value",
          "type": "string"
        },
        {
          "indexed": true,
          "internalType": "uint256",
          "name": "id",
          "type": "uint256"
        }
      ],
      "name": "URI",
      "type": "event"
    },
    {
      "inputs": [
        {
          "internalType": "address",
          "name": "to",
          "type": "address"
        },
        {
          "internalType": "uint256",
          "name": "tokenId",
          "type": "uint256"
        }
      ],
      "name": "approve",
      "outputs": [],
      "stateMutability": "nonpayable",
      "type": "function"
    },
    {
      "inputs": [
        {
          "internalType": "uint256",
          "name": "tokenId",
          "type": "uint256"
        }
      ],
      "name": "attributes",
      "outputs": [
        {
          "components": [
            {
              "internalType": "bytes32",
              "name": "tokenTxHash",
              "type": "bytes32"
            }
          ],
          "internalType": "struct Offer.Attributes",
          "name": "",
          "type": "tuple"
        }
      ],
      "stateMutability": "view",
      "type": "function"
    },
    {
      "inputs": [
        {
          "internalType": "address",
          "name": "account",
          "type": "address"
        },
        {
          "internalType": "uint256",
          "name": "tokenId",
          "type": "uint256"
        }
      ],
      "name": "balanceOf",
      "outputs": [
        {
          "internalType": "uint256",
          "name": "",
          "type": "uint256"
        }
      ],
      "stateMutability": "view",
      "type": "function"
    },
    {
      "inputs": [
        {
          "internalType": "address",
          "name": "owner",
          "type": "address"
        }
      ],
      "name": "balanceOf",
      "outputs": [
        {
          "internalType": "uint256",
          "name": "",
          "type": "uint256"
        }
      ],
      "stateMutability": "view",
      "type": "function"
    },
    {
      "inputs": [
        {
          "internalType": "address[]",
          "name": "",
          "type": "address[]"
        },
        {
          "internalType": "uint256[]",
          "name": "",
          "type": "uint256[]"
        }
      ],
      "name": "balanceOfBatch",
      "outputs": [
        {
          "internalType": "uint256[]",
          "name": "",
          "type": "uint256[]"
        }
      ],
      "stateMutability": "pure",
      "type": "function"
    },
    {
      "inputs": [
        {
          "internalType": "uint256",
          "name": "tokenId",
          "type": "uint256"
        }
      ],
      "name": "burn",
      "outputs": [],
      "stateMutability": "nonpayable",
      "type": "function"
    },
    {
      "inputs": [
        {
          "internalType": "uint256",
          "name": "tokenId",
          "type": "uint256"
        }
      ],
      "name": "getApproved",
      "outputs": [
        {
          "internalType": "address",
          "name": "",
          "type": "address"
        }
      ],
      "stateMutability": "view",
      "type": "function"
    },
    {
      "inputs": [
        {
          "internalType": "uint256",
          "name": "tokenId",
          "type": "uint256"
        }
      ],
      "name": "getIndex",
      "outputs": [
        {
          "internalType": "uint128",
          "name": "",
          "type": "uint128"
        }
      ],
      "stateMutability": "pure",
      "type": "function"
    },
    {
      "inputs": [
        {
          "internalType": "uint256",
          "name": "tokenId",
          "type": "uint256"
        }
      ],
      "name": "getType",
      "outputs": [
        {
          "internalType": "uint128",
          "name": "",
          "type": "uint128"
        }
      ],
      "stateMutability": "pure",
      "type": "function"
    },
    {
      "inputs": [
        {
          "internalType": "address",
          "name": "owner",
          "type": "address"
        },
        {
          "internalType": "address",
          "name": "operator",
          "type": "address"
        }
      ],
      "name": "isApprovedForAll",
      "outputs": [
        {
          "internalType": "bool",
          "name": "",
          "type": "bool"
        }
      ],
      "stateMutability": "view",
      "type": "function"
    },
    {
      "inputs": [
        {
          "internalType": "address",
          "name": "to",
          "type": "address"
        },
        {
          "internalType": "uint128",
          "name": "type_",
          "type": "uint128"
        },
        {
          "components": [
            {
              "internalType": "bytes32",
              "name": "tokenTxHash",
              "type": "bytes32"
            }
          ],
          "internalType": "struct Offer.Attributes",
          "name": "attributes_",
          "type": "tuple"
        }
      ],
      "name": "mint",
      "outputs": [],
      "stateMutability": "nonpayable",
      "type": "function"
    },
    {
      "inputs": [
        {
          "internalType": "address",
          "name": "to",
          "type": "address"
        },
        {
          "internalType": "uint128",
          "name": "type_",
          "type": "uint128"
        }
      ],
      "name": "mint",
      "outputs": [],
      "stateMutability": "nonpayable",
      "type": "function"
    },
    {
      "inputs": [],
      "name": "name",
      "outputs": [
        {
          "internalType": "string",
          "name": "",
          "type": "string"
        }
      ],
      "stateMutability": "view",
      "type": "function"
    },
    {
      "inputs": [],
      "name": "owner",
      "outputs": [
        {
          "internalType": "address",
          "name": "",
          "type": "address"
        }
      ],
      "stateMutability": "view",
      "type": "function"
    },
    {
      "inputs": [
        {
          "internalType": "uint256",
          "name": "tokenId",
          "type": "uint256"
        }
      ],
      "name": "ownerOf",
      "outputs": [
        {
          "internalType": "address",
          "name": "",
          "type": "address"
        }
      ],
      "stateMutability": "view",
      "type": "function"
    },
    {
      "inputs": [],
      "name": "renounceOwnership",
      "outputs": [],
      "stateMutability": "nonpayable",
      "type": "function"
    },
    {
      "inputs": [
        {
          "internalType": "address",
          "name": "",
          "type": "address"
        },
        {
          "internalType": "address",
          "name": "",
          "type": "address"
        },
        {
          "internalType": "uint256[]",
          "name": "",
          "type": "uint256[]"
        },
        {
          "internalType": "uint256[]",
          "name": "",
          "type": "uint256[]"
        },
        {
          "internalType": "bytes",
          "name": "",
          "type": "bytes"
        }
      ],
      "name": "safeBatchTransferFrom",
      "outputs": [],
      "stateMutability": "pure",
      "type": "function"
    },
    {
      "inputs": [
        {
          "internalType": "address",
          "name": "from",
          "type": "address"
        },
        {
          "internalType": "address",
          "name": "to",
          "type": "address"
        },
        {
          "internalType": "uint256",
          "name": "tokenId",
          "type": "uint256"
        }
      ],
      "name": "safeTransferFrom",
      "outputs": [],
      "stateMutability": "nonpayable",
      "type": "function"
    },
    {
      "inputs": [
        {
          "internalType": "address",
          "name": "from",
          "type": "address"
        },
        {
          "internalType": "address",
          "name": "to",
          "type": "address"
        },
        {
          "internalType": "uint256",
          "name": "tokenId",
          "type": "uint256"
        },
        {
          "internalType": "bytes",
          "name": "data",
          "type": "bytes"
        }
      ],
      "name": "safeTransferFrom",
      "outputs": [],
      "stateMutability": "nonpayable",
      "type": "function"
    },
    {
      "inputs": [
        {
          "internalType": "address",
          "name": "from",
          "type": "address"
        },
        {
          "internalType": "address",
          "name": "to",
          "type": "address"
        },
        {
          "internalType": "uint256",
          "name": "tokenId",
          "type": "uint256"
        },
        {
          "internalType": "uint256",
          "name": "value",
          "type": "uint256"
        },
        {
          "internalType": "bytes",
          "name": "data",
          "type": "bytes"
        }
      ],
      "name": "safeTransferFrom",
      "outputs": [],
      "stateMutability": "nonpayable",
      "type": "function"
    },
    {
      "inputs": [
        {
          "internalType": "address",
          "name": "operator",
          "type": "address"
        },
        {
          "internalType": "bool",
          "name": "approved",
          "type": "bool"
        }
      ],
      "name": "setApprovalForAll",
      "outputs": [],
      "stateMutability": "nonpayable",
      "type": "function"
    },
    {
      "inputs": [
        {
          "internalType": "string",
          "name": "baseURI",
          "type": "string"
        }
      ],
      "name": "setBaseURI",
      "outputs": [],
      "stateMutability": "nonpayable",
      "type": "function"
    },
    {
      "inputs": [
        {
          "internalType": "uint256",
          "name": "tokenId",
          "type": "uint256"
        },
        {
          "internalType": "string",
          "name": "uri_",
          "type": "string"
        },
        {
          "internalType": "bool",
          "name": "isRelative",
          "type": "bool"
        }
      ],
      "name": "setTokenURI",
      "outputs": [],
      "stateMutability": "nonpayable",
      "type": "function"
    },
    {
      "inputs": [
        {
          "internalType": "bytes4",
          "name": "interfaceId",
          "type": "bytes4"
        }
      ],
      "name": "supportsInterface",
      "outputs": [
        {
          "internalType": "bool",
          "name": "",
          "type": "bool"
        }
      ],
      "stateMutability": "view",
      "type": "function"
    },
    {
      "inputs": [],
      "name": "symbol",
      "outputs": [
        {
          "internalType": "string",
          "name": "",
          "type": "string"
        }
      ],
      "stateMutability": "view",
      "type": "function"
    },
    {
      "inputs": [
        {
          "internalType": "uint256",
          "name": "index",
          "type": "uint256"
        }
      ],
      "name": "tokenByIndex",
      "outputs": [
        {
          "internalType": "uint256",
          "name": "",
          "type": "uint256"
        }
      ],
      "stateMutability": "view",
      "type": "function"
    },
    {
      "inputs": [
        {
          "internalType": "address",
          "name": "owner",
          "type": "address"
        },
        {
          "internalType": "uint256",
          "name": "index",
          "type": "uint256"
        }
      ],
      "name": "tokenOfOwnerByIndex",
      "outputs": [
        {
          "internalType": "uint256",
          "name": "",
          "type": "uint256"
        }
      ],
      "stateMutability": "view",
      "type": "function"
    },
    {
      "inputs": [
        {
          "internalType": "uint256",
          "name": "tokenId",
          "type": "uint256"
        }
      ],
      "name": "tokenURI",
      "outputs": [
        {
          "internalType": "string",
          "name": "",
          "type": "string"
        }
      ],
      "stateMutability": "view",
      "type": "function"
    },
    {
      "inputs": [],
      "name": "totalSupply",
      "outputs": [
        {
          "internalType": "uint256",
          "name": "",
          "type": "uint256"
        }
      ],
      "stateMutability": "view",
      "type": "function"
    },
    {
      "inputs": [
        {
          "internalType": "address",
          "name": "from",
          "type": "address"
        },
        {
          "internalType": "address",
          "name": "to",
          "type": "address"
        },
        {
          "internalType": "uint256",
          "name": "tokenId",
          "type": "uint256"
        }
      ],
      "name": "transferFrom",
      "outputs": [],
      "stateMutability": "nonpayable",
      "type": "function"
    },
    {
      "inputs": [
        {
          "internalType": "address",
          "name": "newOwner",
          "type": "address"
        }
      ],
      "name": "transferOwnership",
      "outputs": [],
      "stateMutability": "nonpayable",
      "type": "function"
    },
    {
      "inputs": [
        {
          "internalType": "string",
          "name": "str",
          "type": "string"
        },
        {
          "internalType": "uint256",
          "name": "start",
          "type": "uint256"
        }
      ],
      "name": "trimStart",
      "outputs": [
        {
          "internalType": "string",
          "name": "",
          "type": "string"
        }
      ],
      "stateMutability": "pure",
      "type": "function"
    },
    {
      "inputs": [
        {
          "internalType": "uint256",
          "name": "tokenId",
          "type": "uint256"
        }
      ],
      "name": "uri",
      "outputs": [
        {
          "internalType": "string",
          "name": "",
          "type": "string"
        }
      ],
      "stateMutability": "view",
      "type": "function"
    }
  ],
  "bytecode": "0x60a0604052600060809081526010906100189082610193565b5034801561002557600080fd5b50604051612a79380380612a79833981016040819052610044916102f4565b33828260006100538382610193565b5060016100608282610193565b5050506001600160a01b03811661009157604051631e4fbdf760e01b81526000600482015260240160405180910390fd5b61009a816100a2565b50505061035d565b600a80546001600160a01b038381166001600160a01b0319831681179093556040519116919082907f8be0079c531659141344cd1fd0a4f28419497f9722a3daafe3b4186f6b6457e090600090a35050565b634e487b7160e01b600052604160045260246000fd5b600181811c9082168061011e57607f821691505b60208210810361013e57634e487b7160e01b600052602260045260246000fd5b50919050565b601f82111561018e57806000526020600020601f840160051c8101602085101561016b5750805b601f840160051c820191505b8181101561018b5760008155600101610177565b50505b505050565b81516001600160401b038111156101ac576101ac6100f4565b6101c0816101ba845461010a565b84610144565b6020601f8211600181146101f457600083156101dc5750848201515b600019600385901b1c1916600184901b17845561018b565b600084815260208120601f198516915b828110156102245787850151825560209485019460019092019101610204565b50848210156102425786840151600019600387901b60f8161c191681555b50505050600190811b01905550565b600082601f83011261026257600080fd5b81516001600160401b0381111561027b5761027b6100f4565b604051601f8201601f19908116603f011681016001600160401b03811182821017156102a9576102a96100f4565b6040528181528382016020018510156102c157600080fd5b60005b828110156102e0576020818601810151838301820152016102c4565b506000918101602001919091529392505050565b6000806040838503121561030757600080fd5b82516001600160401b0381111561031d57600080fd5b61032985828601610251565b602085015190935090506001600160401b0381111561034757600080fd5b61035385828601610251565b9150509250929050565b61270d8061036c6000396000f3fe608060405234801561001057600080fd5b50600436106101fa5760003560e01c80636352211e1161011a578063b88d4fde116100ad578063da8438ac1161007c578063da8438ac1461046b578063e985e9c51461047e578063f242432a14610491578063f2fde38b146104a4578063f46273eb146104b757600080fd5b8063b88d4fde14610410578063be29184f14610423578063c87b56dd14610436578063d05dcc6a1461044957600080fd5b80638e7cb6e1116100e95780638e7cb6e1146103c857806395d89b41146103e2578063a22cb465146103ea578063b6c32c75146103fd57600080fd5b80636352211e1461038957806370a082311461039c578063715018a6146103af5780638da5cb5b146103b757600080fd5b80632eb2c2d61161019257806342966c681161016157806342966c68146103305780634e1273f4146103435780634f6ccce71461036357806355f804b31461037657600080fd5b80632eb2c2d6146102cb5780632f745c59146102de5780634036ab78146102f157806342842e0e1461031d57600080fd5b8063095ea7b3116101ce578063095ea7b3146102885780630e89341c1461029d57806318160ddd146102b057806323b872dd146102b857600080fd5b8062fdd58e146101ff57806301ffc9a71461022557806306fdde0314610248578063081812fc1461025d575b600080fd5b61021261020d366004611c89565b6104ca565b6040519081526020015b60405180910390f35b610238610233366004611cc9565b61055e565b604051901515815260200161021c565b6102506105b9565b60405161021c9190611d3d565b61027061026b366004611d50565b61064b565b6040516001600160a01b03909116815260200161021c565b61029b610296366004611c89565b610674565b005b6102506102ab366004611d50565b610683565b600854610212565b61029b6102c6366004611d69565b61068e565b61029b6102d9366004611e32565b61071e565b6102126102ec366004611c89565b610737565b6103056102ff366004611d50565b60801c90565b6040516001600160801b03909116815260200161021c565b61029b61032b366004611d69565b61079c565b61029b61033e366004611d50565b6107bc565b610356610351366004611ef6565b6107c8565b60405161021c9190611f65565b610212610371366004611d50565b6107e3565b61029b61038436600461206e565b61083c565b610270610397366004611d50565b610850565b6102126103aa3660046120a2565b61085b565b61029b6108a3565b600a546001600160a01b0316610270565b6103056103d6366004611d50565b6001600160801b031690565b6102506108b7565b61029b6103f83660046120cd565b6108c6565b61029b61040b366004612117565b6108d1565b61029b61041e366004612166565b61090d565b61029b6104313660046121cd565b610925565b610250610444366004611d50565b61093f565b61045c610457366004611d50565b610b8c565b6040519051815260200161021c565b61029b6104793660046121f7565b610bc7565b61023861048c36600461224d565b610c9e565b61029b61049f366004612277565b610ccc565b61029b6104b23660046120a2565b610eb5565b6102506104c53660046122e8565b610ef3565b60006001600160801b0382168103610527576001600160a01b0383166000908152600d60205260408120906104ff8460801c90565b6001600160801b03166001600160801b03168152602001908152602001600020549050610558565b6000828152600260205260409020546001600160a01b0384811691161461054f576000610552565b60015b60ff1690505b92915050565b60006001600160e01b03198216636cdb3d1360e11b148061058f57506001600160e01b031982166303a24d0760e21b145b806105aa57506001600160e01b03198216632483248360e11b145b80610558575061055882610f3e565b6060600080546105c890612333565b80601f01602080910402602001604051908101604052809291908181526020018280546105f490612333565b80156106415780601f1061061657610100808354040283529160200191610641565b820191906000526020600020905b81548152906001019060200180831161062457829003601f168201915b5050505050905090565b600061065682610f63565b506000828152600460205260409020546001600160a01b0316610558565b61067f828233610f9c565b5050565b60606105588261093f565b6001600160a01b0382166106bd57604051633250574960e11b8152600060048201526024015b60405180910390fd5b60006106ca838333610fa9565b9050836001600160a01b0316816001600160a01b031614610718576040516364283d7b60e01b81526001600160a01b03808616600483015260248201849052821660448201526064016106b4565b50505050565b60405163036a2f6360e31b815260040160405180910390fd5b60006107428361085b565b82106107735760405163295f44f760e21b81526001600160a01b0384166004820152602481018390526044016106b4565b506001600160a01b03919091166000908152600660209081526040808320938352929052205490565b6107b78383836040518060200160405280600081525061090d565b505050565b61067f60008233610fa9565b606060405163036a2f6360e31b815260040160405180910390fd5b60006107ee60085490565b82106108175760405163295f44f760e21b815260006004820152602481018390526044016106b4565b6008828154811061082a5761082a61236d565b90600052602060002001549050919050565b610844611186565b601061067f82826123ca565b600061055882610f63565b60006001600160a01b038216610887576040516322718ad960e21b8152600060048201526024016106b4565b506001600160a01b031660009081526003602052604090205490565b6108ab611186565b6108b560006111b3565b565b6060600180546105c890612333565b61067f338383611205565b6108d9611186565b60006108e4836112a4565b90506108f084826112e9565b6000818152600f602052604090208235815582905b505050505050565b61091884848461068e565b610718338585858561134e565b61092d611186565b61067f8261093a836112a4565b6112e9565b606061094a82610f63565b506000828152600e60205260408120805461096490612333565b80601f016020809104026020016040519081016040528092919081815260200182805461099090612333565b80156109dd5780601f106109b2576101008083540402835291602001916109dd565b820191906000526020600020905b8154815290600101906020018083116109c057829003601f168201915b505050505090506000601080546109f390612333565b80601f0160208091040260200160405190810160405280929190818152602001828054610a1f90612333565b8015610a6c5780601f10610a4157610100808354040283529160200191610a6c565b820191906000526020600020905b815481529060010190602001808311610a4f57829003601f168201915b50505050509050600082511115610ac7576000848152600e602052604090206001015460ff16610a9c5781610abf565b8082604051602001610aaf929190612488565b6040516020818303038152906040525b949350505050565b805115610b75576000610adb856020611477565b60405163f46273eb60e01b81529091508290309063f46273eb90610b069085906002906004016124b7565b600060405180830381865afa158015610b23573d6000803e3d6000fd5b505050506040513d6000823e601f3d908101601f19168201604052610b4b91908101906124d9565b604051602001610b5c929190612488565b6040516020818303038152906040529350505050919050565b505060408051602081019091526000815292915050565b604080516020810190915260008152610ba482610f63565b50506000908152600f602090815260409182902082519182019092529054815290565b610bcf611186565b610bd883610f63565b506040805180820182528381528215156020808301919091526000868152600e9091529190912081518190610c0d90826123ca565b506020918201516001909101805460ff19169115159190911790556040518481527ff8e1a15aba9398e019f0b49df1a4fde98ee17ae345cb5f6b5e2c27f5033e8ce7910160405180910390a1827f6bb7ff708619ba0610cba295a58592e0451dee2622938c8755667688daf3529b610c8485610683565b604051610c919190611d3d565b60405180910390a2505050565b6001600160a01b03918216600090815260056020908152604080832093909416825291909152205460ff1690565b336001600160a01b0386168114801590610ced5750610ceb8682610c9e565b155b15610d1e5760405163711bec9160e11b81526001600160a01b038083166004830152871660248201526044016106b4565b6001600160a01b038516610d4857604051632bfa23e760e11b8152600060048201526024016106b4565b6001600160a01b038616610d7157604051626a0d4560e21b8152600060048201526024016106b4565b6001600160801b038416600003610da45785600084866040516303dee4c560e01b81526004016106b4949392919061254f565b6000610db087866104ca565b90506001841180610dbf575080155b15610de557868185876040516303dee4c560e01b81526004016106b4949392919061254f565b83600103610e3d576000610dfb87876000610fa9565b9050876001600160a01b0316816001600160a01b031614610e3757878286886040516303dee4c560e01b81526004016106b4949392919061254f565b50610e9e565b856001600160a01b0316876001600160a01b0316836001600160a01b03167fc3d58168c5ae7397731d063d5bbf3d657854427343f4c083240f7aacaa2d0f628888604051610e95929190918252602082015260400190565b60405180910390a45b610eac8288888888886115ee565b50505050505050565b610ebd611186565b6001600160a01b038116610ee757604051631e4fbdf760e01b8152600060048201526024016106b4565b610ef0816111b3565b50565b6060610f0183838187612575565b8080601f01602080910402602001604051908101604052809392919081815260200183838082843760009201919091525092979650505050505050565b60006001600160e01b0319821663780e9d6360e01b148061055857506105588261170a565b6000818152600260205260408120546001600160a01b03168061055857604051637e27328960e01b8152600481018490526024016106b4565b6107b7838383600161175a565b600080610fb7858585611860565b9050846001600160a01b0316816001600160a01b0316610fd43390565b6001600160a01b03167fc3d58168c5ae7397731d063d5bbf3d657854427343f4c083240f7aacaa2d0f62876001604051611018929190918252602082015260400190565b60405180910390a4600061102c8560801c90565b90506001600160a01b038216611093576001600160801b0381166000908152600b60205260408120805491611060836125b5565b90915550506001600160801b0381166000908152600c60205260408120805491611089836125b5565b91905055506110ea565b856001600160a01b0316826001600160a01b0316146110ea576001600160a01b0382166000908152600d602090815260408083206001600160801b038516845290915281208054916110e4836125ce565b91905055505b6001600160a01b038616611126576001600160801b0381166000908152600c6020526040812080549161111c836125ce565b919050555061117d565b856001600160a01b0316826001600160a01b03161461117d576001600160a01b0386166000908152600d602090815260408083206001600160801b03851684529091528120805491611177836125b5565b91905055505b50949350505050565b600a546001600160a01b031633146108b55760405163118cdaa760e01b81523360048201526024016106b4565b600a80546001600160a01b038381166001600160a01b0319831681179093556040519116919082907f8be0079c531659141344cd1fd0a4f28419497f9722a3daafe3b4186f6b6457e090600090a35050565b6001600160a01b03821661123757604051630b61174360e31b81526001600160a01b03831660048201526024016106b4565b6001600160a01b03838116600081815260056020908152604080832094871680845294825291829020805460ff191686151590811790915591519182527f17307eab39ab6107e8899845ad3d59bd9653f200f220920489ca2b5937696c31910160405180910390a3505050565b6001600160801b0381166000908152600b60205260408120546112de906fffffffffffffffffffffffffffffffff19608085901b166125e5565b6105589060016125e5565b6001600160a01b03821661131357604051633250574960e11b8152600060048201526024016106b4565b600061132183836000610fa9565b90506001600160a01b038116156107b7576040516339e3563760e11b8152600060048201526024016106b4565b6001600160a01b0383163b1561147057604051630a85bd0160e11b81526001600160a01b0384169063150b7a02906113909088908890879087906004016125f8565b6020604051808303816000875af19250505080156113cb575060408051601f3d908101601f191682019092526113c891810190612635565b60015b611434573d8080156113f9576040519150601f19603f3d011682016040523d82523d6000602084013e6113fe565b606091505b50805160000361142c57604051633250574960e11b81526001600160a01b03851660048201526024016106b4565b805181602001fd5b6001600160e01b03198116630a85bd0160e11b1461090557604051633250574960e11b81526001600160a01b03851660048201526024016106b4565b5050505050565b6060826000611487846002612652565b6114929060026125e5565b6001600160401b038111156114a9576114a9611fa8565b6040519080825280601f01601f1916602001820160405280156114d3576020820181803683370190505b509050600360fc1b816000815181106114ee576114ee61236d565b60200101906001600160f81b031916908160001a905350600f60fb1b8160018151811061151d5761151d61236d565b60200101906001600160f81b031916908160001a9053506000611541856002612652565b61154c9060016125e5565b90505b60018111156115c4576f181899199a1a9b1b9c1cb0b131b232b360811b83600f16601081106115805761158061236d565b1a60f81b8282815181106115965761159661236d565b60200101906001600160f81b031916908160001a90535060049290921c916115bd816125ce565b905061154f565b508115610abf5760405163e22e27eb60e01b815260048101869052602481018590526044016106b4565b6001600160a01b0384163b156109055760405163f23a6e6160e01b81526001600160a01b0385169063f23a6e61906116329089908990889088908890600401612669565b6020604051808303816000875af192505050801561166d575060408051601f3d908101601f1916820190925261166a91810190612635565b60015b6116ce573d80801561169b576040519150601f19603f3d011682016040523d82523d6000602084013e6116a0565b606091505b50805160000361142c57604051632bfa23e760e11b81526001600160a01b03861660048201526024016106b4565b6001600160e01b0319811663f23a6e6160e01b14610eac57604051632bfa23e760e11b81526001600160a01b03861660048201526024016106b4565b60006001600160e01b031982166380ac58cd60e01b148061173b57506001600160e01b03198216635b5e139f60e01b145b8061055857506301ffc9a760e01b6001600160e01b0319831614610558565b808061176e57506001600160a01b03821615155b1561183057600061177e84610f63565b90506001600160a01b038316158015906117aa5750826001600160a01b0316816001600160a01b031614155b80156117bd57506117bb8184610c9e565b155b156117e65760405163a9fbf51f60e01b81526001600160a01b03841660048201526024016106b4565b811561182e5783856001600160a01b0316826001600160a01b03167f8c5be1e5ebec7d5bd14f71427d1e84f3dd0314c0f7b2291e5b200ac8c7c3b92560405160405180910390a45b505b5050600090815260046020526040902080546001600160a01b0319166001600160a01b0392909216919091179055565b60008061186e85858561192d565b90506001600160a01b0381166118cb576118c684600880546000838152600960205260408120829055600182018355919091527ff3f7a9fe364faab93b216da50a3214154f22a0a2b415b23a84c8169e8b636ee30155565b6118ee565b846001600160a01b0316816001600160a01b0316146118ee576118ee8185611a26565b6001600160a01b03851661190a5761190584611aa7565b610abf565b846001600160a01b0316816001600160a01b031614610abf57610abf8585611b56565b6000828152600260205260408120546001600160a01b039081169083161561195a5761195a818486611ba6565b6001600160a01b038116156119985761197760008560008061175a565b6001600160a01b038116600090815260036020526040902080546000190190555b6001600160a01b038516156119c7576001600160a01b0385166000908152600360205260409020805460010190555b60008481526002602052604080822080546001600160a01b0319166001600160a01b0389811691821790925591518793918516917fddf252ad1be2c89b69c2b068fc378daa952ba7f163c4a11628f55a4df523b3ef91a4949350505050565b6000611a318361085b565b6000838152600760209081526040808320546001600160a01b0388168452600690925290912091925090818314611a8857600083815260208281526040808320548584528184208190558352600790915290208290555b6000938452600760209081526040808620869055938552525081205550565b600854600090611ab9906001906126ae565b60008381526009602052604081205460088054939450909284908110611ae157611ae161236d565b906000526020600020015490508060088381548110611b0257611b0261236d565b6000918252602080832090910192909255828152600990915260408082208490558582528120556008805480611b3a57611b3a6126c1565b6001900381819060005260206000200160009055905550505050565b60006001611b638461085b565b611b6d91906126ae565b6001600160a01b039093166000908152600660209081526040808320868452825280832085905593825260079052919091209190915550565b611bb1838383611c0a565b6107b7576001600160a01b038316611bdf57604051637e27328960e01b8152600481018290526024016106b4565b60405163177e802f60e01b81526001600160a01b0383166004820152602481018290526044016106b4565b60006001600160a01b03831615801590610abf5750826001600160a01b0316846001600160a01b03161480611c445750611c448484610c9e565b80610abf5750506000908152600460205260409020546001600160a01b03908116911614919050565b80356001600160a01b0381168114611c8457600080fd5b919050565b60008060408385031215611c9c57600080fd5b611ca583611c6d565b946020939093013593505050565b6001600160e01b031981168114610ef057600080fd5b600060208284031215611cdb57600080fd5b8135611ce681611cb3565b9392505050565b60005b83811015611d08578181015183820152602001611cf0565b50506000910152565b60008151808452611d29816020860160208601611ced565b601f01601f19169290920160200192915050565b602081526000611ce66020830184611d11565b600060208284031215611d6257600080fd5b5035919050565b600080600060608486031215611d7e57600080fd5b611d8784611c6d565b9250611d9560208501611c6d565b929592945050506040919091013590565b60008083601f840112611db857600080fd5b5081356001600160401b03811115611dcf57600080fd5b6020830191508360208260051b8501011115611dea57600080fd5b9250929050565b60008083601f840112611e0357600080fd5b5081356001600160401b03811115611e1a57600080fd5b602083019150836020828501011115611dea57600080fd5b60008060008060008060008060a0898b031215611e4e57600080fd5b611e5789611c6d565b9750611e6560208a01611c6d565b965060408901356001600160401b03811115611e8057600080fd5b611e8c8b828c01611da6565b90975095505060608901356001600160401b03811115611eab57600080fd5b611eb78b828c01611da6565b90955093505060808901356001600160401b03811115611ed657600080fd5b611ee28b828c01611df1565b999c989b5096995094979396929594505050565b60008060008060408587031215611f0c57600080fd5b84356001600160401b03811115611f2257600080fd5b611f2e87828801611da6565b90955093505060208501356001600160401b03811115611f4d57600080fd5b611f5987828801611da6565b95989497509550505050565b602080825282518282018190526000918401906040840190835b81811015611f9d578351835260209384019390920191600101611f7f565b509095945050505050565b634e487b7160e01b600052604160045260246000fd5b604051601f8201601f191681016001600160401b0381118282101715611fe657611fe6611fa8565b604052919050565b60006001600160401b0382111561200757612007611fa8565b50601f01601f191660200190565b600082601f83011261202657600080fd5b813560208301600061203f61203a84611fee565b611fbe565b905082815285838301111561205357600080fd5b82826020830137600092810160200192909252509392505050565b60006020828403121561208057600080fd5b81356001600160401b0381111561209657600080fd5b610abf84828501612015565b6000602082840312156120b457600080fd5b611ce682611c6d565b80358015158114611c8457600080fd5b600080604083850312156120e057600080fd5b6120e983611c6d565b91506120f7602084016120bd565b90509250929050565b80356001600160801b0381168114611c8457600080fd5b6000806000838503606081121561212d57600080fd5b61213685611c6d565b935061214460208601612100565b92506020603f198201121561215857600080fd5b506040840190509250925092565b6000806000806080858703121561217c57600080fd5b61218585611c6d565b935061219360208601611c6d565b92506040850135915060608501356001600160401b038111156121b557600080fd5b6121c187828801612015565b91505092959194509250565b600080604083850312156121e057600080fd5b6121e983611c6d565b91506120f760208401612100565b60008060006060848603121561220c57600080fd5b8335925060208401356001600160401b0381111561222957600080fd5b61223586828701612015565b925050612244604085016120bd565b90509250925092565b6000806040838503121561226057600080fd5b61226983611c6d565b91506120f760208401611c6d565b600080600080600060a0868803121561228f57600080fd5b61229886611c6d565b94506122a660208701611c6d565b9350604086013592506060860135915060808601356001600160401b038111156122cf57600080fd5b6122db88828901612015565b9150509295509295909350565b6000806000604084860312156122fd57600080fd5b83356001600160401b0381111561231357600080fd5b61231f86828701611df1565b909790965060209590950135949350505050565b600181811c9082168061234757607f821691505b60208210810361236757634e487b7160e01b600052602260045260246000fd5b50919050565b634e487b7160e01b600052603260045260246000fd5b601f8211156107b757806000526020600020601f840160051c810160208510156123aa5750805b601f840160051c820191505b8181101561147057600081556001016123b6565b81516001600160401b038111156123e3576123e3611fa8565b6123f7816123f18454612333565b84612383565b6020601f82116001811461242b57600083156124135750848201515b600019600385901b1c1916600184901b178455611470565b600084815260208120601f198516915b8281101561245b578785015182556020948501946001909201910161243b565b50848210156124795786840151600019600387901b60f8161c191681555b50505050600190811b01905550565b6000835161249a818460208801611ced565b8351908301906124ae818360208801611ced565b01949350505050565b6040815260006124ca6040830185611d11565b90508260208301529392505050565b6000602082840312156124eb57600080fd5b81516001600160401b0381111561250157600080fd5b8201601f8101841361251257600080fd5b805161252061203a82611fee565b81815285602083850101111561253557600080fd5b612546826020830160208601611ced565b95945050505050565b6001600160a01b0394909416845260208401929092526040830152606082015260800190565b6000808585111561258557600080fd5b8386111561259257600080fd5b5050820193919092039150565b634e487b7160e01b600052601160045260246000fd5b6000600182016125c7576125c761259f565b5060010190565b6000816125dd576125dd61259f565b506000190190565b808201808211156105585761055861259f565b6001600160a01b038581168252841660208201526040810183905260806060820181905260009061262b90830184611d11565b9695505050505050565b60006020828403121561264757600080fd5b8151611ce681611cb3565b80820281158282048414176105585761055861259f565b6001600160a01b03868116825285166020820152604081018490526060810183905260a0608082018190526000906126a390830184611d11565b979650505050505050565b818103818111156105585761055861259f565b634e487b7160e01b600052603160045260246000fdfea26469706673582212207b412489b061360e5ab0fcaacc30eae2f369ed62261a5c1c2d5c799a47262e3e64736f6c634300081c0033",
  "linkReferences": {},
  "deployedLinkReferences": {}
}