{
  "_format": "hh-sol-artifact-1",
  "contractName": "Offer",
  "sourceName": "contracts/Offer.sol",
  "abi": [
    {
      "inputs": [
        {
          "internalType": "string",
          "name": "name_",
          "type": "string"
        },
        {
          "internalType": "string",
          "name": "symbol_",
          "type": "string"
        }
      ],
      "stateMutability": "nonpayable",
      "type": "constructor"
    },
    {
      "inputs": [
        {
          "internalType": "address",
          "name": "sender",
          "type": "address"
        },
        {
          "internalType": "uint256",
          "name": "balance",
          "type": "uint256"
        },
        {
          "internalType": "uint256",
          "name": "needed",
          "type": "uint256"
        },
        {
          "internalType": "uint256",
          "name": "tokenId",
          "type": "uint256"
        }
      ],
      "name": "ERC1155InsufficientBalance",
      "type": "error"
    },
    {
      "inputs": [
        {
          "internalType": "address",
          "name": "approver",
          "type": "address"
        }
      ],
      "name": "ERC1155InvalidApprover",
      "type": "error"
    },
    {
      "inputs": [
        {
          "internalType": "uint256",
          "name": "idsLength",
          "type": "uint256"
        },
        {
          "internalType": "uint256",
          "name": "valuesLength",
          "type": "uint256"
        }
      ],
      "name": "ERC1155InvalidArrayLength",
      "type": "error"
    },
    {
      "inputs": [
        {
          "internalType": "address",
          "name": "operator",
          "type": "address"
        }
      ],
      "name": "ERC1155InvalidOperator",
      "type": "error"
    },
    {
      "inputs": [
        {
          "internalType": "address",
          "name": "receiver",
          "type": "address"
        }
      ],
      "name": "ERC1155InvalidReceiver",
      "type": "error"
    },
    {
      "inputs": [
        {
          "internalType": "address",
          "name": "receiver",
          "type": "address"
        }
      ],
      "name": "ERC1155InvalidReceiver",
      "type": "error"
    },
    {
      "inputs": [
        {
          "internalType": "address",
          "name": "sender",
          "type": "address"
        }
      ],
      "name": "ERC1155InvalidSender",
      "type": "error"
    },
    {
      "inputs": [
        {
          "internalType": "address",
          "name": "operator",
          "type": "address"
        },
        {
          "internalType": "address",
          "name": "owner",
          "type": "address"
        }
      ],
      "name": "ERC1155MissingApprovalForAll",
      "type": "error"
    },
    {
      "inputs": [],
      "name": "ERC721EnumerableForbiddenBatchMint",
      "type": "error"
    },
    {
      "inputs": [
        {
          "internalType": "address",
          "name": "sender",
          "type": "address"
        },
        {
          "internalType": "uint256",
          "name": "tokenId",
          "type": "uint256"
        },
        {
          "internalType": "address",
          "name": "owner",
          "type": "address"
        }
      ],
      "name": "ERC721IncorrectOwner",
      "type": "error"
    },
    {
      "inputs": [
        {
          "internalType": "address",
          "name": "operator",
          "type": "address"
        },
        {
          "internalType": "uint256",
          "name": "tokenId",
          "type": "uint256"
        }
      ],
      "name": "ERC721InsufficientApproval",
      "type": "error"
    },
    {
      "inputs": [
        {
          "internalType": "address",
          "name": "approver",
          "type": "address"
        }
      ],
      "name": "ERC721InvalidApprover",
      "type": "error"
    },
    {
      "inputs": [
        {
          "internalType": "address",
          "name": "operator",
          "type": "address"
        }
      ],
      "name": "ERC721InvalidOperator",
      "type": "error"
    },
    {
      "inputs": [
        {
          "internalType": "address",
          "name": "owner",
          "type": "address"
        }
      ],
      "name": "ERC721InvalidOwner",
      "type": "error"
    },
    {
      "inputs": [
        {
          "internalType": "address",
          "name": "receiver",
          "type": "address"
        }
      ],
      "name": "ERC721InvalidReceiver",
      "type": "error"
    },
    {
      "inputs": [
        {
          "internalType": "address",
          "name": "sender",
          "type": "address"
        }
      ],
      "name": "ERC721InvalidSender",
      "type": "error"
    },
    {
      "inputs": [
        {
          "internalType": "uint256",
          "name": "tokenId",
          "type": "uint256"
        }
      ],
      "name": "ERC721NonexistentToken",
      "type": "error"
    },
    {
      "inputs": [
        {
          "internalType": "address",
          "name": "owner",
          "type": "address"
        },
        {
          "internalType": "uint256",
          "name": "index",
          "type": "uint256"
        }
      ],
      "name": "ERC721OutOfBoundsIndex",
      "type": "error"
    },
    {
      "inputs": [
        {
          "internalType": "address",
          "name": "owner",
          "type": "address"
        }
      ],
      "name": "OwnableInvalidOwner",
      "type": "error"
    },
    {
      "inputs": [
        {
          "internalType": "address",
          "name": "account",
          "type": "address"
        }
      ],
      "name": "OwnableUnauthorizedAccount",
      "type": "error"
    },
    {
      "inputs": [
        {
          "internalType": "uint256",
          "name": "value",
          "type": "uint256"
        },
        {
          "internalType": "uint256",
          "name": "length",
          "type": "uint256"
        }
      ],
      "name": "StringsInsufficientHexLength",
      "type": "error"
    },
    {
      "inputs": [],
      "name": "UnsupportedMethod",
      "type": "error"
    },
    {
      "anonymous": false,
      "inputs": [
        {
          "indexed": true,
          "internalType": "address",
          "name": "owner",
          "type": "address"
        },
        {
          "indexed": true,
          "internalType": "address",
          "name": "approved",
          "type": "address"
        },
        {
          "indexed": true,
          "internalType": "uint256",
          "name": "tokenId",
          "type": "uint256"
        }
      ],
      "name": "Approval",
      "type": "event"
    },
    {
      "anonymous": false,
      "inputs": [
        {
          "indexed": true,
          "internalType": "address",
          "name": "owner",
          "type": "address"
        },
        {
          "indexed": true,
          "internalType": "address",
          "name": "operator",
          "type": "address"
        },
        {
          "indexed": false,
          "internalType": "bool",
          "name": "approved",
          "type": "bool"
        }
      ],
      "name": "ApprovalForAll",
      "type": "event"
    },
    {
      "anonymous": false,
      "inputs": [
        {
          "indexed": false,
          "internalType": "uint256",
          "name": "_fromTokenId",
          "type": "uint256"
        },
        {
          "indexed": false,
          "internalType": "uint256",
          "name": "_toTokenId",
          "type": "uint256"
        }
      ],
      "name": "BatchMetadataUpdate",
      "type": "event"
    },
    {
      "anonymous": false,
      "inputs": [
        {
          "indexed": false,
          "internalType": "uint256",
          "name": "_tokenId",
          "type": "uint256"
        }
      ],
      "name": "MetadataUpdate",
      "type": "event"
    },
    {
      "anonymous": false,
      "inputs": [
        {
          "indexed": true,
          "internalType": "address",
          "name": "previousOwner",
          "type": "address"
        },
        {
          "indexed": true,
          "internalType": "address",
          "name": "newOwner",
          "type": "address"
        }
      ],
      "name": "OwnershipTransferred",
      "type": "event"
    },
    {
      "anonymous": false,
      "inputs": [
        {
          "indexed": true,
          "internalType": "address",
          "name": "from",
          "type": "address"
        },
        {
          "indexed": true,
          "internalType": "address",
          "name": "to",
          "type": "address"
        },
        {
          "indexed": true,
          "internalType": "uint256",
          "name": "tokenId",
          "type": "uint256"
        }
      ],
      "name": "Transfer",
      "type": "event"
    },
    {
      "anonymous": false,
      "inputs": [
        {
          "indexed": true,
          "internalType": "address",
          "name": "operator",
          "type": "address"
        },
        {
          "indexed": true,
          "internalType": "address",
          "name": "from",
          "type": "address"
        },
        {
          "indexed": true,
          "internalType": "address",
          "name": "to",
          "type": "address"
        },
        {
          "indexed": false,
          "internalType": "uint256[]",
          "name": "ids",
          "type": "uint256[]"
        },
        {
          "indexed": false,
          "internalType": "uint256[]",
          "name": "values",
          "type": "uint256[]"
        }
      ],
      "name": "TransferBatch",
      "type": "event"
    },
    {
      "anonymous": false,
      "inputs": [
        {
          "indexed": true,
          "internalType": "address",
          "name": "operator",
          "type": "address"
        },
        {
          "indexed": true,
          "internalType": "address",
          "name": "from",
          "type": "address"
        },
        {
          "indexed": true,
          "internalType": "address",
          "name": "to",
          "type": "address"
        },
        {
          "indexed": false,
          "internalType": "uint256",
          "name": "id",
          "type": "uint256"
        },
        {
          "indexed": false,
          "internalType": "uint256",
          "name": "value",
          "type": "uint256"
        }
      ],
      "name": "TransferSingle",
      "type": "event"
    },
    {
      "anonymous": false,
      "inputs": [
        {
          "indexed": false,
          "internalType": "string",
          "name": "value",
          "type": "string"
        },
        {
          "indexed": true,
          "internalType": "uint256",
          "name": "id",
          "type": "uint256"
        }
      ],
      "name": "URI",
      "type": "event"
    },
    {
      "inputs": [
        {
          "internalType": "address",
          "name": "to",
          "type": "address"
        },
        {
          "internalType": "uint256",
          "name": "tokenId",
          "type": "uint256"
        }
      ],
      "name": "approve",
      "outputs": [],
      "stateMutability": "nonpayable",
      "type": "function"
    },
    {
      "inputs": [
        {
          "internalType": "uint256",
          "name": "tokenId",
          "type": "uint256"
        }
      ],
      "name": "attributes",
      "outputs": [
        {
          "components": [
            {
              "internalType": "bytes32",
              "name": "tokenTxHash",
              "type": "bytes32"
            }
          ],
          "internalType": "struct Offer.Attributes",
          "name": "",
          "type": "tuple"
        }
      ],
      "stateMutability": "view",
      "type": "function"
    },
    {
      "inputs": [
        {
          "internalType": "address",
          "name": "account",
          "type": "address"
        },
        {
          "internalType": "uint256",
          "name": "tokenId",
          "type": "uint256"
        }
      ],
      "name": "balanceOf",
      "outputs": [
        {
          "internalType": "uint256",
          "name": "",
          "type": "uint256"
        }
      ],
      "stateMutability": "view",
      "type": "function"
    },
    {
      "inputs": [
        {
          "internalType": "address",
          "name": "owner",
          "type": "address"
        }
      ],
      "name": "balanceOf",
      "outputs": [
        {
          "internalType": "uint256",
          "name": "",
          "type": "uint256"
        }
      ],
      "stateMutability": "view",
      "type": "function"
    },
    {
      "inputs": [
        {
          "internalType": "address[]",
          "name": "",
          "type": "address[]"
        },
        {
          "internalType": "uint256[]",
          "name": "",
          "type": "uint256[]"
        }
      ],
      "name": "balanceOfBatch",
      "outputs": [
        {
          "internalType": "uint256[]",
          "name": "",
          "type": "uint256[]"
        }
      ],
      "stateMutability": "pure",
      "type": "function"
    },
    {
      "inputs": [
        {
          "internalType": "uint128",
          "name": "type_",
          "type": "uint128"
        }
      ],
      "name": "balanceOfType",
      "outputs": [
        {
          "internalType": "uint256",
          "name": "",
          "type": "uint256"
        }
      ],
      "stateMutability": "view",
      "type": "function"
    },
    {
      "inputs": [
        {
          "internalType": "uint256",
          "name": "tokenId",
          "type": "uint256"
        }
      ],
      "name": "burn",
      "outputs": [],
      "stateMutability": "nonpayable",
      "type": "function"
    },
    {
      "inputs": [
        {
          "internalType": "uint256",
          "name": "tokenId",
          "type": "uint256"
        }
      ],
      "name": "getApproved",
      "outputs": [
        {
          "internalType": "address",
          "name": "",
          "type": "address"
        }
      ],
      "stateMutability": "view",
      "type": "function"
    },
    {
      "inputs": [
        {
          "internalType": "uint256",
          "name": "tokenId",
          "type": "uint256"
        }
      ],
      "name": "getInstance",
      "outputs": [
        {
          "internalType": "uint128",
          "name": "",
          "type": "uint128"
        }
      ],
      "stateMutability": "pure",
      "type": "function"
    },
    {
      "inputs": [
        {
          "internalType": "uint256",
          "name": "tokenId",
          "type": "uint256"
        }
      ],
      "name": "getType",
      "outputs": [
        {
          "internalType": "uint128",
          "name": "",
          "type": "uint128"
        }
      ],
      "stateMutability": "pure",
      "type": "function"
    },
    {
      "inputs": [
        {
          "internalType": "address",
          "name": "owner",
          "type": "address"
        },
        {
          "internalType": "address",
          "name": "operator",
          "type": "address"
        }
      ],
      "name": "isApprovedForAll",
      "outputs": [
        {
          "internalType": "bool",
          "name": "",
          "type": "bool"
        }
      ],
      "stateMutability": "view",
      "type": "function"
    },
    {
      "inputs": [
        {
          "internalType": "address",
          "name": "to",
          "type": "address"
        },
        {
          "internalType": "uint128",
          "name": "type_",
          "type": "uint128"
        },
        {
          "components": [
            {
              "internalType": "bytes32",
              "name": "tokenTxHash",
              "type": "bytes32"
            }
          ],
          "internalType": "struct Offer.Attributes",
          "name": "attributes_",
          "type": "tuple"
        }
      ],
      "name": "mint",
      "outputs": [],
      "stateMutability": "nonpayable",
      "type": "function"
    },
    {
      "inputs": [
        {
          "internalType": "address",
          "name": "to",
          "type": "address"
        },
        {
          "internalType": "uint128",
          "name": "type_",
          "type": "uint128"
        }
      ],
      "name": "mint",
      "outputs": [],
      "stateMutability": "nonpayable",
      "type": "function"
    },
    {
      "inputs": [],
      "name": "name",
      "outputs": [
        {
          "internalType": "string",
          "name": "",
          "type": "string"
        }
      ],
      "stateMutability": "view",
      "type": "function"
    },
    {
      "inputs": [],
      "name": "owner",
      "outputs": [
        {
          "internalType": "address",
          "name": "",
          "type": "address"
        }
      ],
      "stateMutability": "view",
      "type": "function"
    },
    {
      "inputs": [
        {
          "internalType": "uint256",
          "name": "tokenId",
          "type": "uint256"
        }
      ],
      "name": "ownerOf",
      "outputs": [
        {
          "internalType": "address",
          "name": "",
          "type": "address"
        }
      ],
      "stateMutability": "view",
      "type": "function"
    },
    {
      "inputs": [],
      "name": "renounceOwnership",
      "outputs": [],
      "stateMutability": "nonpayable",
      "type": "function"
    },
    {
      "inputs": [
        {
          "internalType": "address",
          "name": "",
          "type": "address"
        },
        {
          "internalType": "address",
          "name": "",
          "type": "address"
        },
        {
          "internalType": "uint256[]",
          "name": "",
          "type": "uint256[]"
        },
        {
          "internalType": "uint256[]",
          "name": "",
          "type": "uint256[]"
        },
        {
          "internalType": "bytes",
          "name": "",
          "type": "bytes"
        }
      ],
      "name": "safeBatchTransferFrom",
      "outputs": [],
      "stateMutability": "pure",
      "type": "function"
    },
    {
      "inputs": [
        {
          "internalType": "address",
          "name": "from",
          "type": "address"
        },
        {
          "internalType": "address",
          "name": "to",
          "type": "address"
        },
        {
          "internalType": "uint256",
          "name": "tokenId",
          "type": "uint256"
        }
      ],
      "name": "safeTransferFrom",
      "outputs": [],
      "stateMutability": "nonpayable",
      "type": "function"
    },
    {
      "inputs": [
        {
          "internalType": "address",
          "name": "from",
          "type": "address"
        },
        {
          "internalType": "address",
          "name": "to",
          "type": "address"
        },
        {
          "internalType": "uint256",
          "name": "tokenId",
          "type": "uint256"
        },
        {
          "internalType": "bytes",
          "name": "data",
          "type": "bytes"
        }
      ],
      "name": "safeTransferFrom",
      "outputs": [],
      "stateMutability": "nonpayable",
      "type": "function"
    },
    {
      "inputs": [
        {
          "internalType": "address",
          "name": "from",
          "type": "address"
        },
        {
          "internalType": "address",
          "name": "to",
          "type": "address"
        },
        {
          "internalType": "uint256",
          "name": "tokenId",
          "type": "uint256"
        },
        {
          "internalType": "uint256",
          "name": "value",
          "type": "uint256"
        },
        {
          "internalType": "bytes",
          "name": "data",
          "type": "bytes"
        }
      ],
      "name": "safeTransferFrom",
      "outputs": [],
      "stateMutability": "nonpayable",
      "type": "function"
    },
    {
      "inputs": [
        {
          "internalType": "address",
          "name": "operator",
          "type": "address"
        },
        {
          "internalType": "bool",
          "name": "approved",
          "type": "bool"
        }
      ],
      "name": "setApprovalForAll",
      "outputs": [],
      "stateMutability": "nonpayable",
      "type": "function"
    },
    {
      "inputs": [
        {
          "internalType": "string",
          "name": "baseURI",
          "type": "string"
        }
      ],
      "name": "setBaseURI",
      "outputs": [],
      "stateMutability": "nonpayable",
      "type": "function"
    },
    {
      "inputs": [
        {
          "internalType": "uint256",
          "name": "tokenId",
          "type": "uint256"
        },
        {
          "internalType": "string",
          "name": "uri_",
          "type": "string"
        },
        {
          "internalType": "bool",
          "name": "isRelative",
          "type": "bool"
        }
      ],
      "name": "setTokenURI",
      "outputs": [],
      "stateMutability": "nonpayable",
      "type": "function"
    },
    {
      "inputs": [
        {
          "internalType": "bytes4",
          "name": "interfaceId",
          "type": "bytes4"
        }
      ],
      "name": "supportsInterface",
      "outputs": [
        {
          "internalType": "bool",
          "name": "",
          "type": "bool"
        }
      ],
      "stateMutability": "view",
      "type": "function"
    },
    {
      "inputs": [],
      "name": "symbol",
      "outputs": [
        {
          "internalType": "string",
          "name": "",
          "type": "string"
        }
      ],
      "stateMutability": "view",
      "type": "function"
    },
    {
      "inputs": [
        {
          "internalType": "uint256",
          "name": "index",
          "type": "uint256"
        }
      ],
      "name": "tokenByIndex",
      "outputs": [
        {
          "internalType": "uint256",
          "name": "",
          "type": "uint256"
        }
      ],
      "stateMutability": "view",
      "type": "function"
    },
    {
      "inputs": [
        {
          "internalType": "address",
          "name": "owner",
          "type": "address"
        },
        {
          "internalType": "uint256",
          "name": "index",
          "type": "uint256"
        }
      ],
      "name": "tokenOfOwnerByIndex",
      "outputs": [
        {
          "internalType": "uint256",
          "name": "",
          "type": "uint256"
        }
      ],
      "stateMutability": "view",
      "type": "function"
    },
    {
      "inputs": [
        {
          "internalType": "uint256",
          "name": "tokenId",
          "type": "uint256"
        }
      ],
      "name": "tokenURI",
      "outputs": [
        {
          "internalType": "string",
          "name": "",
          "type": "string"
        }
      ],
      "stateMutability": "view",
      "type": "function"
    },
    {
      "inputs": [],
      "name": "totalSupply",
      "outputs": [
        {
          "internalType": "uint256",
          "name": "",
          "type": "uint256"
        }
      ],
      "stateMutability": "view",
      "type": "function"
    },
    {
      "inputs": [],
      "name": "totalTypes",
      "outputs": [
        {
          "internalType": "uint256",
          "name": "",
          "type": "uint256"
        }
      ],
      "stateMutability": "view",
      "type": "function"
    },
    {
      "inputs": [
        {
          "internalType": "address",
          "name": "from",
          "type": "address"
        },
        {
          "internalType": "address",
          "name": "to",
          "type": "address"
        },
        {
          "internalType": "uint256",
          "name": "tokenId",
          "type": "uint256"
        }
      ],
      "name": "transferFrom",
      "outputs": [],
      "stateMutability": "nonpayable",
      "type": "function"
    },
    {
      "inputs": [
        {
          "internalType": "address",
          "name": "newOwner",
          "type": "address"
        }
      ],
      "name": "transferOwnership",
      "outputs": [],
      "stateMutability": "nonpayable",
      "type": "function"
    },
    {
      "inputs": [
        {
          "internalType": "string",
          "name": "str",
          "type": "string"
        },
        {
          "internalType": "uint256",
          "name": "start",
          "type": "uint256"
        }
      ],
      "name": "trimStart",
      "outputs": [
        {
          "internalType": "string",
          "name": "",
          "type": "string"
        }
      ],
      "stateMutability": "pure",
      "type": "function"
    },
    {
      "inputs": [
        {
          "internalType": "uint256",
          "name": "index",
          "type": "uint256"
        }
      ],
      "name": "typeByIndex",
      "outputs": [
        {
          "internalType": "uint128",
          "name": "",
          "type": "uint128"
        }
      ],
      "stateMutability": "view",
      "type": "function"
    },
    {
      "inputs": [
        {
          "internalType": "uint256",
          "name": "tokenId",
          "type": "uint256"
        }
      ],
      "name": "uri",
      "outputs": [
        {
          "internalType": "string",
          "name": "",
          "type": "string"
        }
      ],
      "stateMutability": "view",
      "type": "function"
    }
  ],
  "bytecode": "0x60a0604052600060809081526011906100189082610193565b5034801561002557600080fd5b50604051612bed380380612bed833981016040819052610044916102f4565b33828260006100538382610193565b5060016100608282610193565b5050506001600160a01b03811661009157604051631e4fbdf760e01b81526000600482015260240160405180910390fd5b61009a816100a2565b50505061035d565b600a80546001600160a01b038381166001600160a01b0319831681179093556040519116919082907f8be0079c531659141344cd1fd0a4f28419497f9722a3daafe3b4186f6b6457e090600090a35050565b634e487b7160e01b600052604160045260246000fd5b600181811c9082168061011e57607f821691505b60208210810361013e57634e487b7160e01b600052602260045260246000fd5b50919050565b601f82111561018e57806000526020600020601f840160051c8101602085101561016b5750805b601f840160051c820191505b8181101561018b5760008155600101610177565b50505b505050565b81516001600160401b038111156101ac576101ac6100f4565b6101c0816101ba845461010a565b84610144565b6020601f8211600181146101f457600083156101dc5750848201515b600019600385901b1c1916600184901b17845561018b565b600084815260208120601f198516915b828110156102245787850151825560209485019460019092019101610204565b50848210156102425786840151600019600387901b60f8161c191681555b50505050600190811b01905550565b600082601f83011261026257600080fd5b81516001600160401b0381111561027b5761027b6100f4565b604051601f8201601f19908116603f011681016001600160401b03811182821017156102a9576102a96100f4565b6040528181528382016020018510156102c157600080fd5b60005b828110156102e0576020818601810151838301820152016102c4565b506000918101602001919091529392505050565b6000806040838503121561030757600080fd5b82516001600160401b0381111561031d57600080fd5b61032985828601610251565b602085015190935090506001600160401b0381111561034757600080fd5b61035385828601610251565b9150509250929050565b6128818061036c6000396000f3fe608060405234801561001057600080fd5b506004361061021b5760003560e01c806370a0823111610125578063c87b56dd116100ad578063ebd348de1161007c578063ebd348de146104d4578063f15df2e5146104ee578063f242432a146104f6578063f2fde38b14610509578063f46273eb1461051c57600080fd5b8063c87b56dd14610479578063d05dcc6a1461048c578063da8438ac146104ae578063e985e9c5146104c157600080fd5b806395d89b41116100f457806395d89b4114610425578063a22cb4651461042d578063b6c32c7514610440578063b88d4fde14610453578063be29184f1461046657600080fd5b806370a08231146103d0578063715018a6146103e3578063862dbd3a146103eb5780638da5cb5b1461041457600080fd5b80632f745c59116101a85780634e1273f4116101775780634e1273f4146103645780634f6ccce71461038457806355f804b3146103975780635b7852c9146103aa5780636352211e146103bd57600080fd5b80632f745c59146102ff5780634036ab781461031257806342842e0e1461033e57806342966c681461035157600080fd5b8063095ea7b3116101ef578063095ea7b3146102a95780630e89341c146102be57806318160ddd146102d157806323b872dd146102d95780632eb2c2d6146102ec57600080fd5b8062fdd58e1461022057806301ffc9a71461024657806306fdde0314610269578063081812fc1461027e575b600080fd5b61023361022e366004611de2565b61052f565b6040519081526020015b60405180910390f35b610259610254366004611e22565b6105c3565b604051901515815260200161023d565b61027161061e565b60405161023d9190611e96565b61029161028c366004611ea9565b6106b0565b6040516001600160a01b03909116815260200161023d565b6102bc6102b7366004611de2565b6106d9565b005b6102716102cc366004611ea9565b6106e8565b600854610233565b6102bc6102e7366004611ec2565b6106f3565b6102bc6102fa366004611f8b565b610783565b61023361030d366004611de2565b61079c565b610326610320366004611ea9565b60801c90565b6040516001600160801b03909116815260200161023d565b6102bc61034c366004611ec2565b610801565b6102bc61035f366004611ea9565b610821565b61037761037236600461204f565b61082d565b60405161023d91906120be565b610233610392366004611ea9565b610848565b6102bc6103a53660046121c7565b6108a1565b6103266103b8366004611ea9565b6108b5565b6102916103cb366004611ea9565b61092c565b6102336103de3660046121fb565b610937565b6102bc61097f565b6102336103f936600461222d565b6001600160801b03166000908152600d602052604090205490565b600a546001600160a01b0316610291565b610271610993565b6102bc61043b366004612258565b6109a2565b6102bc61044e36600461228b565b6109ad565b6102bc6104613660046122da565b6109e9565b6102bc610474366004612341565b610a01565b610271610487366004611ea9565b610a1b565b61049f61049a366004611ea9565b610c68565b6040519051815260200161023d565b6102bc6104bc36600461236b565b610ca3565b6102596104cf3660046123c1565b610d7a565b6103266104e2366004611ea9565b6001600160801b031690565b600b54610233565b6102bc6105043660046123eb565b610da8565b6102bc6105173660046121fb565b610f91565b61027161052a36600461245c565b610fcf565b60006001600160801b038216810361058c576001600160a01b0383166000908152600e60205260408120906105648460801c90565b6001600160801b03166001600160801b031681526020019081526020016000205490506105bd565b6000828152600260205260409020546001600160a01b038481169116146105b45760006105b7565b60015b60ff1690505b92915050565b60006001600160e01b03198216636cdb3d1360e11b14806105f457506001600160e01b031982166303a24d0760e21b145b8061060f57506001600160e01b03198216632483248360e11b145b806105bd57506105bd8261101a565b60606000805461062d906124a7565b80601f0160208091040260200160405190810160405280929190818152602001828054610659906124a7565b80156106a65780601f1061067b576101008083540402835291602001916106a6565b820191906000526020600020905b81548152906001019060200180831161068957829003601f168201915b5050505050905090565b60006106bb8261103f565b506000828152600460205260409020546001600160a01b03166105bd565b6106e4828233611078565b5050565b60606105bd82610a1b565b6001600160a01b03821661072257604051633250574960e11b8152600060048201526024015b60405180910390fd5b600061072f838333611085565b9050836001600160a01b0316816001600160a01b03161461077d576040516364283d7b60e01b81526001600160a01b0380861660048301526024820184905282166044820152606401610719565b50505050565b60405163036a2f6360e31b815260040160405180910390fd5b60006107a783610937565b82106107d85760405163295f44f760e21b81526001600160a01b038416600482015260248101839052604401610719565b506001600160a01b03919091166000908152600660209081526040808320938352929052205490565b61081c838383604051806020016040528060008152506109e9565b505050565b6106e460008233611085565b606060405163036a2f6360e31b815260040160405180910390fd5b600061085360085490565b821061087c5760405163295f44f760e21b81526000600482015260248101839052604401610719565b6008828154811061088f5761088f6124e1565b90600052602060002001549050919050565b6108a96112df565b60116106e4828261253e565b60006108c0600b5490565b82106108e95760405163295f44f760e21b81526000600482015260248101839052604401610719565b600b82815481106108fc576108fc6124e1565b90600052602060002090600291828204019190066010029054906101000a90046001600160801b03169050919050565b60006105bd8261103f565b60006001600160a01b038216610963576040516322718ad960e21b815260006004820152602401610719565b506001600160a01b031660009081526003602052604090205490565b6109876112df565b610991600061130c565b565b60606001805461062d906124a7565b6106e433838361135e565b6109b56112df565b60006109c0836113fd565b90506109cc8482611442565b60008181526010602052604090208235815582905b505050505050565b6109f48484846106f3565b61077d33858585856114a7565b610a096112df565b6106e482610a16836113fd565b611442565b6060610a268261103f565b506000828152600f602052604081208054610a40906124a7565b80601f0160208091040260200160405190810160405280929190818152602001828054610a6c906124a7565b8015610ab95780601f10610a8e57610100808354040283529160200191610ab9565b820191906000526020600020905b815481529060010190602001808311610a9c57829003601f168201915b50505050509050600060118054610acf906124a7565b80601f0160208091040260200160405190810160405280929190818152602001828054610afb906124a7565b8015610b485780601f10610b1d57610100808354040283529160200191610b48565b820191906000526020600020905b815481529060010190602001808311610b2b57829003601f168201915b50505050509050600082511115610ba3576000848152600f602052604090206001015460ff16610b785781610b9b565b8082604051602001610b8b9291906125fc565b6040516020818303038152906040525b949350505050565b805115610c51576000610bb78560206115d0565b60405163f46273eb60e01b81529091508290309063f46273eb90610be290859060029060040161262b565b600060405180830381865afa158015610bff573d6000803e3d6000fd5b505050506040513d6000823e601f3d908101601f19168201604052610c27919081019061264d565b604051602001610c389291906125fc565b6040516020818303038152906040529350505050919050565b505060408051602081019091526000815292915050565b604080516020810190915260008152610c808261103f565b505060009081526010602090815260409182902082519182019092529054815290565b610cab6112df565b610cb48361103f565b506040805180820182528381528215156020808301919091526000868152600f9091529190912081518190610ce9908261253e565b506020918201516001909101805460ff19169115159190911790556040518481527ff8e1a15aba9398e019f0b49df1a4fde98ee17ae345cb5f6b5e2c27f5033e8ce7910160405180910390a1827f6bb7ff708619ba0610cba295a58592e0451dee2622938c8755667688daf3529b610d60856106e8565b604051610d6d9190611e96565b60405180910390a2505050565b6001600160a01b03918216600090815260056020908152604080832093909416825291909152205460ff1690565b336001600160a01b0386168114801590610dc95750610dc78682610d7a565b155b15610dfa5760405163711bec9160e11b81526001600160a01b03808316600483015287166024820152604401610719565b6001600160a01b038516610e2457604051632bfa23e760e11b815260006004820152602401610719565b6001600160a01b038616610e4d57604051626a0d4560e21b815260006004820152602401610719565b6001600160801b038416600003610e805785600084866040516303dee4c560e01b815260040161071994939291906126c3565b6000610e8c878661052f565b90506001841180610e9b575080155b15610ec157868185876040516303dee4c560e01b815260040161071994939291906126c3565b83600103610f19576000610ed787876000611085565b9050876001600160a01b0316816001600160a01b031614610f1357878286886040516303dee4c560e01b815260040161071994939291906126c3565b50610f7a565b856001600160a01b0316876001600160a01b0316836001600160a01b03167fc3d58168c5ae7397731d063d5bbf3d657854427343f4c083240f7aacaa2d0f628888604051610f71929190918252602082015260400190565b60405180910390a45b610f88828888888888611747565b50505050505050565b610f996112df565b6001600160a01b038116610fc357604051631e4fbdf760e01b815260006004820152602401610719565b610fcc8161130c565b50565b6060610fdd838381876126e9565b8080601f01602080910402602001604051908101604052809392919081815260200183838082843760009201919091525092979650505050505050565b60006001600160e01b0319821663780e9d6360e01b14806105bd57506105bd82611863565b6000818152600260205260408120546001600160a01b0316806105bd57604051637e27328960e01b815260048101849052602401610719565b61081c83838360016118b3565b6000806110938585856119b9565b9050846001600160a01b0316816001600160a01b03166110b03390565b6001600160a01b03167fc3d58168c5ae7397731d063d5bbf3d657854427343f4c083240f7aacaa2d0f628760016040516110f4929190918252602082015260400190565b60405180910390a460006111088560801c90565b90506001600160a01b0382166111ec576001600160801b0381166000908152600c6020526040812054900361119557600b8054600180820183556000929092527f0175b7a638427703f0dbe7bb9bbf987a2551717b34e79f33b5b1008d1fa01db960028204018054929091166010026101000a6001600160801b0381810219909316928416029190911790555b6001600160801b0381166000908152600c602052604081208054916111b983612729565b90915550506001600160801b0381166000908152600d602052604081208054916111e283612729565b9190505550611243565b856001600160a01b0316826001600160a01b031614611243576001600160a01b0382166000908152600e602090815260408083206001600160801b0385168452909152812080549161123d83612742565b91905055505b6001600160a01b03861661127f576001600160801b0381166000908152600d6020526040812080549161127583612742565b91905055506112d6565b856001600160a01b0316826001600160a01b0316146112d6576001600160a01b0386166000908152600e602090815260408083206001600160801b038516845290915281208054916112d083612729565b91905055505b50949350505050565b600a546001600160a01b031633146109915760405163118cdaa760e01b8152336004820152602401610719565b600a80546001600160a01b038381166001600160a01b0319831681179093556040519116919082907f8be0079c531659141344cd1fd0a4f28419497f9722a3daafe3b4186f6b6457e090600090a35050565b6001600160a01b03821661139057604051630b61174360e31b81526001600160a01b0383166004820152602401610719565b6001600160a01b03838116600081815260056020908152604080832094871680845294825291829020805460ff191686151590811790915591519182527f17307eab39ab6107e8899845ad3d59bd9653f200f220920489ca2b5937696c31910160405180910390a3505050565b6001600160801b0381166000908152600c6020526040812054611437906fffffffffffffffffffffffffffffffff19608085901b16612759565b6105bd906001612759565b6001600160a01b03821661146c57604051633250574960e11b815260006004820152602401610719565b600061147a83836000611085565b90506001600160a01b0381161561081c576040516339e3563760e11b815260006004820152602401610719565b6001600160a01b0383163b156115c957604051630a85bd0160e11b81526001600160a01b0384169063150b7a02906114e990889088908790879060040161276c565b6020604051808303816000875af1925050508015611524575060408051601f3d908101601f19168201909252611521918101906127a9565b60015b61158d573d808015611552576040519150601f19603f3d011682016040523d82523d6000602084013e611557565b606091505b50805160000361158557604051633250574960e11b81526001600160a01b0385166004820152602401610719565b805181602001fd5b6001600160e01b03198116630a85bd0160e11b146109e157604051633250574960e11b81526001600160a01b0385166004820152602401610719565b5050505050565b60608260006115e08460026127c6565b6115eb906002612759565b6001600160401b0381111561160257611602612101565b6040519080825280601f01601f19166020018201604052801561162c576020820181803683370190505b509050600360fc1b81600081518110611647576116476124e1565b60200101906001600160f81b031916908160001a905350600f60fb1b81600181518110611676576116766124e1565b60200101906001600160f81b031916908160001a905350600061169a8560026127c6565b6116a5906001612759565b90505b600181111561171d576f181899199a1a9b1b9c1cb0b131b232b360811b83600f16601081106116d9576116d96124e1565b1a60f81b8282815181106116ef576116ef6124e1565b60200101906001600160f81b031916908160001a90535060049290921c9161171681612742565b90506116a8565b508115610b9b5760405163e22e27eb60e01b81526004810186905260248101859052604401610719565b6001600160a01b0384163b156109e15760405163f23a6e6160e01b81526001600160a01b0385169063f23a6e619061178b90899089908890889088906004016127dd565b6020604051808303816000875af19250505080156117c6575060408051601f3d908101601f191682019092526117c3918101906127a9565b60015b611827573d8080156117f4576040519150601f19603f3d011682016040523d82523d6000602084013e6117f9565b606091505b50805160000361158557604051632bfa23e760e11b81526001600160a01b0386166004820152602401610719565b6001600160e01b0319811663f23a6e6160e01b14610f8857604051632bfa23e760e11b81526001600160a01b0386166004820152602401610719565b60006001600160e01b031982166380ac58cd60e01b148061189457506001600160e01b03198216635b5e139f60e01b145b806105bd57506301ffc9a760e01b6001600160e01b03198316146105bd565b80806118c757506001600160a01b03821615155b156119895760006118d78461103f565b90506001600160a01b038316158015906119035750826001600160a01b0316816001600160a01b031614155b801561191657506119148184610d7a565b155b1561193f5760405163a9fbf51f60e01b81526001600160a01b0384166004820152602401610719565b81156119875783856001600160a01b0316826001600160a01b03167f8c5be1e5ebec7d5bd14f71427d1e84f3dd0314c0f7b2291e5b200ac8c7c3b92560405160405180910390a45b505b5050600090815260046020526040902080546001600160a01b0319166001600160a01b0392909216919091179055565b6000806119c7858585611a86565b90506001600160a01b038116611a2457611a1f84600880546000838152600960205260408120829055600182018355919091527ff3f7a9fe364faab93b216da50a3214154f22a0a2b415b23a84c8169e8b636ee30155565b611a47565b846001600160a01b0316816001600160a01b031614611a4757611a478185611b7f565b6001600160a01b038516611a6357611a5e84611c00565b610b9b565b846001600160a01b0316816001600160a01b031614610b9b57610b9b8585611caf565b6000828152600260205260408120546001600160a01b0390811690831615611ab357611ab3818486611cff565b6001600160a01b03811615611af157611ad06000856000806118b3565b6001600160a01b038116600090815260036020526040902080546000190190555b6001600160a01b03851615611b20576001600160a01b0385166000908152600360205260409020805460010190555b60008481526002602052604080822080546001600160a01b0319166001600160a01b0389811691821790925591518793918516917fddf252ad1be2c89b69c2b068fc378daa952ba7f163c4a11628f55a4df523b3ef91a4949350505050565b6000611b8a83610937565b6000838152600760209081526040808320546001600160a01b0388168452600690925290912091925090818314611be157600083815260208281526040808320548584528184208190558352600790915290208290555b6000938452600760209081526040808620869055938552525081205550565b600854600090611c1290600190612822565b60008381526009602052604081205460088054939450909284908110611c3a57611c3a6124e1565b906000526020600020015490508060088381548110611c5b57611c5b6124e1565b6000918252602080832090910192909255828152600990915260408082208490558582528120556008805480611c9357611c93612835565b6001900381819060005260206000200160009055905550505050565b60006001611cbc84610937565b611cc69190612822565b6001600160a01b039093166000908152600660209081526040808320868452825280832085905593825260079052919091209190915550565b611d0a838383611d63565b61081c576001600160a01b038316611d3857604051637e27328960e01b815260048101829052602401610719565b60405163177e802f60e01b81526001600160a01b038316600482015260248101829052604401610719565b60006001600160a01b03831615801590610b9b5750826001600160a01b0316846001600160a01b03161480611d9d5750611d9d8484610d7a565b80610b9b5750506000908152600460205260409020546001600160a01b03908116911614919050565b80356001600160a01b0381168114611ddd57600080fd5b919050565b60008060408385031215611df557600080fd5b611dfe83611dc6565b946020939093013593505050565b6001600160e01b031981168114610fcc57600080fd5b600060208284031215611e3457600080fd5b8135611e3f81611e0c565b9392505050565b60005b83811015611e61578181015183820152602001611e49565b50506000910152565b60008151808452611e82816020860160208601611e46565b601f01601f19169290920160200192915050565b602081526000611e3f6020830184611e6a565b600060208284031215611ebb57600080fd5b5035919050565b600080600060608486031215611ed757600080fd5b611ee084611dc6565b9250611eee60208501611dc6565b929592945050506040919091013590565b60008083601f840112611f1157600080fd5b5081356001600160401b03811115611f2857600080fd5b6020830191508360208260051b8501011115611f4357600080fd5b9250929050565b60008083601f840112611f5c57600080fd5b5081356001600160401b03811115611f7357600080fd5b602083019150836020828501011115611f4357600080fd5b60008060008060008060008060a0898b031215611fa757600080fd5b611fb089611dc6565b9750611fbe60208a01611dc6565b965060408901356001600160401b03811115611fd957600080fd5b611fe58b828c01611eff565b90975095505060608901356001600160401b0381111561200457600080fd5b6120108b828c01611eff565b90955093505060808901356001600160401b0381111561202f57600080fd5b61203b8b828c01611f4a565b999c989b5096995094979396929594505050565b6000806000806040858703121561206557600080fd5b84356001600160401b0381111561207b57600080fd5b61208787828801611eff565b90955093505060208501356001600160401b038111156120a657600080fd5b6120b287828801611eff565b95989497509550505050565b602080825282518282018190526000918401906040840190835b818110156120f65783518352602093840193909201916001016120d8565b509095945050505050565b634e487b7160e01b600052604160045260246000fd5b604051601f8201601f191681016001600160401b038111828210171561213f5761213f612101565b604052919050565b60006001600160401b0382111561216057612160612101565b50601f01601f191660200190565b600082601f83011261217f57600080fd5b813560208301600061219861219384612147565b612117565b90508281528583830111156121ac57600080fd5b82826020830137600092810160200192909252509392505050565b6000602082840312156121d957600080fd5b81356001600160401b038111156121ef57600080fd5b610b9b8482850161216e565b60006020828403121561220d57600080fd5b611e3f82611dc6565b80356001600160801b0381168114611ddd57600080fd5b60006020828403121561223f57600080fd5b611e3f82612216565b80358015158114611ddd57600080fd5b6000806040838503121561226b57600080fd5b61227483611dc6565b915061228260208401612248565b90509250929050565b600080600083850360608112156122a157600080fd5b6122aa85611dc6565b93506122b860208601612216565b92506020603f19820112156122cc57600080fd5b506040840190509250925092565b600080600080608085870312156122f057600080fd5b6122f985611dc6565b935061230760208601611dc6565b92506040850135915060608501356001600160401b0381111561232957600080fd5b6123358782880161216e565b91505092959194509250565b6000806040838503121561235457600080fd5b61235d83611dc6565b915061228260208401612216565b60008060006060848603121561238057600080fd5b8335925060208401356001600160401b0381111561239d57600080fd5b6123a98682870161216e565b9250506123b860408501612248565b90509250925092565b600080604083850312156123d457600080fd5b6123dd83611dc6565b915061228260208401611dc6565b600080600080600060a0868803121561240357600080fd5b61240c86611dc6565b945061241a60208701611dc6565b9350604086013592506060860135915060808601356001600160401b0381111561244357600080fd5b61244f8882890161216e565b9150509295509295909350565b60008060006040848603121561247157600080fd5b83356001600160401b0381111561248757600080fd5b61249386828701611f4a565b909790965060209590950135949350505050565b600181811c908216806124bb57607f821691505b6020821081036124db57634e487b7160e01b600052602260045260246000fd5b50919050565b634e487b7160e01b600052603260045260246000fd5b601f82111561081c57806000526020600020601f840160051c8101602085101561251e5750805b601f840160051c820191505b818110156115c9576000815560010161252a565b81516001600160401b0381111561255757612557612101565b61256b8161256584546124a7565b846124f7565b6020601f82116001811461259f57600083156125875750848201515b600019600385901b1c1916600184901b1784556115c9565b600084815260208120601f198516915b828110156125cf57878501518255602094850194600190920191016125af565b50848210156125ed5786840151600019600387901b60f8161c191681555b50505050600190811b01905550565b6000835161260e818460208801611e46565b835190830190612622818360208801611e46565b01949350505050565b60408152600061263e6040830185611e6a565b90508260208301529392505050565b60006020828403121561265f57600080fd5b81516001600160401b0381111561267557600080fd5b8201601f8101841361268657600080fd5b805161269461219382612147565b8181528560208385010111156126a957600080fd5b6126ba826020830160208601611e46565b95945050505050565b6001600160a01b0394909416845260208401929092526040830152606082015260800190565b600080858511156126f957600080fd5b8386111561270657600080fd5b5050820193919092039150565b634e487b7160e01b600052601160045260246000fd5b60006001820161273b5761273b612713565b5060010190565b60008161275157612751612713565b506000190190565b808201808211156105bd576105bd612713565b6001600160a01b038581168252841660208201526040810183905260806060820181905260009061279f90830184611e6a565b9695505050505050565b6000602082840312156127bb57600080fd5b8151611e3f81611e0c565b80820281158282048414176105bd576105bd612713565b6001600160a01b03868116825285166020820152604081018490526060810183905260a06080820181905260009061281790830184611e6a565b979650505050505050565b818103818111156105bd576105bd612713565b634e487b7160e01b600052603160045260246000fdfea2646970667358221220759ae65f1b49ed0dc2da577e6cdea0570b34a7c6d0e9b59ba8d57f7bd618595164736f6c634300081c0033",
  "linkReferences": {},
  "deployedLinkReferences": {}
}