{
  "_format": "hh-sol-artifact-1",
  "contractName": "Offer",
  "sourceName": "contracts/Offer.sol",
  "abi": [
    {
      "inputs": [
        {
          "internalType": "string",
          "name": "name_",
          "type": "string"
        },
        {
          "internalType": "string",
          "name": "symbol_",
          "type": "string"
        }
      ],
      "stateMutability": "nonpayable",
      "type": "constructor"
    },
    {
      "inputs": [
        {
          "internalType": "address",
          "name": "sender",
          "type": "address"
        },
        {
          "internalType": "uint256",
          "name": "balance",
          "type": "uint256"
        },
        {
          "internalType": "uint256",
          "name": "needed",
          "type": "uint256"
        },
        {
          "internalType": "uint256",
          "name": "tokenId",
          "type": "uint256"
        }
      ],
      "name": "ERC1155InsufficientBalance",
      "type": "error"
    },
    {
      "inputs": [
        {
          "internalType": "address",
          "name": "approver",
          "type": "address"
        }
      ],
      "name": "ERC1155InvalidApprover",
      "type": "error"
    },
    {
      "inputs": [
        {
          "internalType": "uint256",
          "name": "idsLength",
          "type": "uint256"
        },
        {
          "internalType": "uint256",
          "name": "valuesLength",
          "type": "uint256"
        }
      ],
      "name": "ERC1155InvalidArrayLength",
      "type": "error"
    },
    {
      "inputs": [
        {
          "internalType": "address",
          "name": "operator",
          "type": "address"
        }
      ],
      "name": "ERC1155InvalidOperator",
      "type": "error"
    },
    {
      "inputs": [
        {
          "internalType": "address",
          "name": "receiver",
          "type": "address"
        }
      ],
      "name": "ERC1155InvalidReceiver",
      "type": "error"
    },
    {
      "inputs": [
        {
          "internalType": "address",
          "name": "receiver",
          "type": "address"
        }
      ],
      "name": "ERC1155InvalidReceiver",
      "type": "error"
    },
    {
      "inputs": [
        {
          "internalType": "address",
          "name": "sender",
          "type": "address"
        }
      ],
      "name": "ERC1155InvalidSender",
      "type": "error"
    },
    {
      "inputs": [
        {
          "internalType": "address",
          "name": "operator",
          "type": "address"
        },
        {
          "internalType": "address",
          "name": "owner",
          "type": "address"
        }
      ],
      "name": "ERC1155MissingApprovalForAll",
      "type": "error"
    },
    {
      "inputs": [],
      "name": "ERC721EnumerableForbiddenBatchMint",
      "type": "error"
    },
    {
      "inputs": [
        {
          "internalType": "address",
          "name": "sender",
          "type": "address"
        },
        {
          "internalType": "uint256",
          "name": "tokenId",
          "type": "uint256"
        },
        {
          "internalType": "address",
          "name": "owner",
          "type": "address"
        }
      ],
      "name": "ERC721IncorrectOwner",
      "type": "error"
    },
    {
      "inputs": [
        {
          "internalType": "address",
          "name": "operator",
          "type": "address"
        },
        {
          "internalType": "uint256",
          "name": "tokenId",
          "type": "uint256"
        }
      ],
      "name": "ERC721InsufficientApproval",
      "type": "error"
    },
    {
      "inputs": [
        {
          "internalType": "address",
          "name": "approver",
          "type": "address"
        }
      ],
      "name": "ERC721InvalidApprover",
      "type": "error"
    },
    {
      "inputs": [
        {
          "internalType": "address",
          "name": "operator",
          "type": "address"
        }
      ],
      "name": "ERC721InvalidOperator",
      "type": "error"
    },
    {
      "inputs": [
        {
          "internalType": "address",
          "name": "owner",
          "type": "address"
        }
      ],
      "name": "ERC721InvalidOwner",
      "type": "error"
    },
    {
      "inputs": [
        {
          "internalType": "address",
          "name": "receiver",
          "type": "address"
        }
      ],
      "name": "ERC721InvalidReceiver",
      "type": "error"
    },
    {
      "inputs": [
        {
          "internalType": "address",
          "name": "sender",
          "type": "address"
        }
      ],
      "name": "ERC721InvalidSender",
      "type": "error"
    },
    {
      "inputs": [
        {
          "internalType": "uint256",
          "name": "tokenId",
          "type": "uint256"
        }
      ],
      "name": "ERC721NonexistentToken",
      "type": "error"
    },
    {
      "inputs": [
        {
          "internalType": "address",
          "name": "owner",
          "type": "address"
        },
        {
          "internalType": "uint256",
          "name": "index",
          "type": "uint256"
        }
      ],
      "name": "ERC721OutOfBoundsIndex",
      "type": "error"
    },
    {
      "inputs": [
        {
          "internalType": "address",
          "name": "owner",
          "type": "address"
        }
      ],
      "name": "OwnableInvalidOwner",
      "type": "error"
    },
    {
      "inputs": [
        {
          "internalType": "address",
          "name": "account",
          "type": "address"
        }
      ],
      "name": "OwnableUnauthorizedAccount",
      "type": "error"
    },
    {
      "inputs": [
        {
          "internalType": "uint256",
          "name": "value",
          "type": "uint256"
        },
        {
          "internalType": "uint256",
          "name": "length",
          "type": "uint256"
        }
      ],
      "name": "StringsInsufficientHexLength",
      "type": "error"
    },
    {
      "inputs": [],
      "name": "UnsupportedMethod",
      "type": "error"
    },
    {
      "anonymous": false,
      "inputs": [
        {
          "indexed": true,
          "internalType": "address",
          "name": "owner",
          "type": "address"
        },
        {
          "indexed": true,
          "internalType": "address",
          "name": "approved",
          "type": "address"
        },
        {
          "indexed": true,
          "internalType": "uint256",
          "name": "tokenId",
          "type": "uint256"
        }
      ],
      "name": "Approval",
      "type": "event"
    },
    {
      "anonymous": false,
      "inputs": [
        {
          "indexed": true,
          "internalType": "address",
          "name": "owner",
          "type": "address"
        },
        {
          "indexed": true,
          "internalType": "address",
          "name": "operator",
          "type": "address"
        },
        {
          "indexed": false,
          "internalType": "bool",
          "name": "approved",
          "type": "bool"
        }
      ],
      "name": "ApprovalForAll",
      "type": "event"
    },
    {
      "anonymous": false,
      "inputs": [
        {
          "indexed": false,
          "internalType": "uint256",
          "name": "_fromTokenId",
          "type": "uint256"
        },
        {
          "indexed": false,
          "internalType": "uint256",
          "name": "_toTokenId",
          "type": "uint256"
        }
      ],
      "name": "BatchMetadataUpdate",
      "type": "event"
    },
    {
      "anonymous": false,
      "inputs": [
        {
          "indexed": false,
          "internalType": "uint256",
          "name": "_tokenId",
          "type": "uint256"
        }
      ],
      "name": "MetadataUpdate",
      "type": "event"
    },
    {
      "anonymous": false,
      "inputs": [
        {
          "indexed": true,
          "internalType": "address",
          "name": "previousOwner",
          "type": "address"
        },
        {
          "indexed": true,
          "internalType": "address",
          "name": "newOwner",
          "type": "address"
        }
      ],
      "name": "OwnershipTransferred",
      "type": "event"
    },
    {
      "anonymous": false,
      "inputs": [
        {
          "indexed": true,
          "internalType": "address",
          "name": "from",
          "type": "address"
        },
        {
          "indexed": true,
          "internalType": "address",
          "name": "to",
          "type": "address"
        },
        {
          "indexed": true,
          "internalType": "uint256",
          "name": "tokenId",
          "type": "uint256"
        }
      ],
      "name": "Transfer",
      "type": "event"
    },
    {
      "anonymous": false,
      "inputs": [
        {
          "indexed": true,
          "internalType": "address",
          "name": "operator",
          "type": "address"
        },
        {
          "indexed": true,
          "internalType": "address",
          "name": "from",
          "type": "address"
        },
        {
          "indexed": true,
          "internalType": "address",
          "name": "to",
          "type": "address"
        },
        {
          "indexed": false,
          "internalType": "uint256[]",
          "name": "ids",
          "type": "uint256[]"
        },
        {
          "indexed": false,
          "internalType": "uint256[]",
          "name": "values",
          "type": "uint256[]"
        }
      ],
      "name": "TransferBatch",
      "type": "event"
    },
    {
      "anonymous": false,
      "inputs": [
        {
          "indexed": true,
          "internalType": "address",
          "name": "operator",
          "type": "address"
        },
        {
          "indexed": true,
          "internalType": "address",
          "name": "from",
          "type": "address"
        },
        {
          "indexed": true,
          "internalType": "address",
          "name": "to",
          "type": "address"
        },
        {
          "indexed": false,
          "internalType": "uint256",
          "name": "id",
          "type": "uint256"
        },
        {
          "indexed": false,
          "internalType": "uint256",
          "name": "value",
          "type": "uint256"
        }
      ],
      "name": "TransferSingle",
      "type": "event"
    },
    {
      "anonymous": false,
      "inputs": [
        {
          "indexed": false,
          "internalType": "string",
          "name": "value",
          "type": "string"
        },
        {
          "indexed": true,
          "internalType": "uint256",
          "name": "id",
          "type": "uint256"
        }
      ],
      "name": "URI",
      "type": "event"
    },
    {
      "inputs": [
        {
          "internalType": "address",
          "name": "to",
          "type": "address"
        },
        {
          "internalType": "uint256",
          "name": "tokenId",
          "type": "uint256"
        }
      ],
      "name": "approve",
      "outputs": [],
      "stateMutability": "nonpayable",
      "type": "function"
    },
    {
      "inputs": [
        {
          "internalType": "address",
          "name": "account",
          "type": "address"
        },
        {
          "internalType": "uint256",
          "name": "tokenId",
          "type": "uint256"
        }
      ],
      "name": "balanceOf",
      "outputs": [
        {
          "internalType": "uint256",
          "name": "",
          "type": "uint256"
        }
      ],
      "stateMutability": "view",
      "type": "function"
    },
    {
      "inputs": [
        {
          "internalType": "address",
          "name": "owner",
          "type": "address"
        }
      ],
      "name": "balanceOf",
      "outputs": [
        {
          "internalType": "uint256",
          "name": "",
          "type": "uint256"
        }
      ],
      "stateMutability": "view",
      "type": "function"
    },
    {
      "inputs": [
        {
          "internalType": "address[]",
          "name": "",
          "type": "address[]"
        },
        {
          "internalType": "uint256[]",
          "name": "",
          "type": "uint256[]"
        }
      ],
      "name": "balanceOfBatch",
      "outputs": [
        {
          "internalType": "uint256[]",
          "name": "",
          "type": "uint256[]"
        }
      ],
      "stateMutability": "pure",
      "type": "function"
    },
    {
      "inputs": [
        {
          "internalType": "uint256",
          "name": "tokenId",
          "type": "uint256"
        }
      ],
      "name": "getApproved",
      "outputs": [
        {
          "internalType": "address",
          "name": "",
          "type": "address"
        }
      ],
      "stateMutability": "view",
      "type": "function"
    },
    {
      "inputs": [
        {
          "internalType": "uint256",
          "name": "tokenId",
          "type": "uint256"
        }
      ],
      "name": "getIndex",
      "outputs": [
        {
          "internalType": "uint128",
          "name": "",
          "type": "uint128"
        }
      ],
      "stateMutability": "pure",
      "type": "function"
    },
    {
      "inputs": [
        {
          "internalType": "uint256",
          "name": "tokenId",
          "type": "uint256"
        }
      ],
      "name": "getType",
      "outputs": [
        {
          "internalType": "uint128",
          "name": "",
          "type": "uint128"
        }
      ],
      "stateMutability": "pure",
      "type": "function"
    },
    {
      "inputs": [
        {
          "internalType": "address",
          "name": "owner",
          "type": "address"
        },
        {
          "internalType": "address",
          "name": "operator",
          "type": "address"
        }
      ],
      "name": "isApprovedForAll",
      "outputs": [
        {
          "internalType": "bool",
          "name": "",
          "type": "bool"
        }
      ],
      "stateMutability": "view",
      "type": "function"
    },
    {
      "inputs": [
        {
          "internalType": "address",
          "name": "to",
          "type": "address"
        },
        {
          "internalType": "uint128",
          "name": "type_",
          "type": "uint128"
        }
      ],
      "name": "mint",
      "outputs": [],
      "stateMutability": "nonpayable",
      "type": "function"
    },
    {
      "inputs": [],
      "name": "name",
      "outputs": [
        {
          "internalType": "string",
          "name": "",
          "type": "string"
        }
      ],
      "stateMutability": "view",
      "type": "function"
    },
    {
      "inputs": [],
      "name": "owner",
      "outputs": [
        {
          "internalType": "address",
          "name": "",
          "type": "address"
        }
      ],
      "stateMutability": "view",
      "type": "function"
    },
    {
      "inputs": [
        {
          "internalType": "uint256",
          "name": "tokenId",
          "type": "uint256"
        }
      ],
      "name": "ownerOf",
      "outputs": [
        {
          "internalType": "address",
          "name": "",
          "type": "address"
        }
      ],
      "stateMutability": "view",
      "type": "function"
    },
    {
      "inputs": [],
      "name": "renounceOwnership",
      "outputs": [],
      "stateMutability": "nonpayable",
      "type": "function"
    },
    {
      "inputs": [
        {
          "internalType": "address",
          "name": "",
          "type": "address"
        },
        {
          "internalType": "address",
          "name": "",
          "type": "address"
        },
        {
          "internalType": "uint256[]",
          "name": "",
          "type": "uint256[]"
        },
        {
          "internalType": "uint256[]",
          "name": "",
          "type": "uint256[]"
        },
        {
          "internalType": "bytes",
          "name": "",
          "type": "bytes"
        }
      ],
      "name": "safeBatchTransferFrom",
      "outputs": [],
      "stateMutability": "pure",
      "type": "function"
    },
    {
      "inputs": [
        {
          "internalType": "address",
          "name": "from",
          "type": "address"
        },
        {
          "internalType": "address",
          "name": "to",
          "type": "address"
        },
        {
          "internalType": "uint256",
          "name": "tokenId",
          "type": "uint256"
        }
      ],
      "name": "safeTransferFrom",
      "outputs": [],
      "stateMutability": "nonpayable",
      "type": "function"
    },
    {
      "inputs": [
        {
          "internalType": "address",
          "name": "from",
          "type": "address"
        },
        {
          "internalType": "address",
          "name": "to",
          "type": "address"
        },
        {
          "internalType": "uint256",
          "name": "tokenId",
          "type": "uint256"
        },
        {
          "internalType": "bytes",
          "name": "data",
          "type": "bytes"
        }
      ],
      "name": "safeTransferFrom",
      "outputs": [],
      "stateMutability": "nonpayable",
      "type": "function"
    },
    {
      "inputs": [
        {
          "internalType": "address",
          "name": "from",
          "type": "address"
        },
        {
          "internalType": "address",
          "name": "to",
          "type": "address"
        },
        {
          "internalType": "uint256",
          "name": "tokenId",
          "type": "uint256"
        },
        {
          "internalType": "uint256",
          "name": "value",
          "type": "uint256"
        },
        {
          "internalType": "bytes",
          "name": "data",
          "type": "bytes"
        }
      ],
      "name": "safeTransferFrom",
      "outputs": [],
      "stateMutability": "nonpayable",
      "type": "function"
    },
    {
      "inputs": [
        {
          "internalType": "address",
          "name": "operator",
          "type": "address"
        },
        {
          "internalType": "bool",
          "name": "approved",
          "type": "bool"
        }
      ],
      "name": "setApprovalForAll",
      "outputs": [],
      "stateMutability": "nonpayable",
      "type": "function"
    },
    {
      "inputs": [
        {
          "internalType": "string",
          "name": "baseURI",
          "type": "string"
        }
      ],
      "name": "setBaseURI",
      "outputs": [],
      "stateMutability": "nonpayable",
      "type": "function"
    },
    {
      "inputs": [
        {
          "internalType": "uint256",
          "name": "tokenId",
          "type": "uint256"
        },
        {
          "internalType": "string",
          "name": "uri_",
          "type": "string"
        },
        {
          "internalType": "bool",
          "name": "isRelative",
          "type": "bool"
        }
      ],
      "name": "setTokenURI",
      "outputs": [],
      "stateMutability": "nonpayable",
      "type": "function"
    },
    {
      "inputs": [
        {
          "internalType": "bytes4",
          "name": "interfaceId",
          "type": "bytes4"
        }
      ],
      "name": "supportsInterface",
      "outputs": [
        {
          "internalType": "bool",
          "name": "",
          "type": "bool"
        }
      ],
      "stateMutability": "view",
      "type": "function"
    },
    {
      "inputs": [],
      "name": "symbol",
      "outputs": [
        {
          "internalType": "string",
          "name": "",
          "type": "string"
        }
      ],
      "stateMutability": "view",
      "type": "function"
    },
    {
      "inputs": [
        {
          "internalType": "uint256",
          "name": "index",
          "type": "uint256"
        }
      ],
      "name": "tokenByIndex",
      "outputs": [
        {
          "internalType": "uint256",
          "name": "",
          "type": "uint256"
        }
      ],
      "stateMutability": "view",
      "type": "function"
    },
    {
      "inputs": [
        {
          "internalType": "address",
          "name": "owner",
          "type": "address"
        },
        {
          "internalType": "uint256",
          "name": "index",
          "type": "uint256"
        }
      ],
      "name": "tokenOfOwnerByIndex",
      "outputs": [
        {
          "internalType": "uint256",
          "name": "",
          "type": "uint256"
        }
      ],
      "stateMutability": "view",
      "type": "function"
    },
    {
      "inputs": [
        {
          "internalType": "uint256",
          "name": "tokenId",
          "type": "uint256"
        }
      ],
      "name": "tokenURI",
      "outputs": [
        {
          "internalType": "string",
          "name": "",
          "type": "string"
        }
      ],
      "stateMutability": "view",
      "type": "function"
    },
    {
      "inputs": [],
      "name": "totalSupply",
      "outputs": [
        {
          "internalType": "uint256",
          "name": "",
          "type": "uint256"
        }
      ],
      "stateMutability": "view",
      "type": "function"
    },
    {
      "inputs": [
        {
          "internalType": "address",
          "name": "from",
          "type": "address"
        },
        {
          "internalType": "address",
          "name": "to",
          "type": "address"
        },
        {
          "internalType": "uint256",
          "name": "tokenId",
          "type": "uint256"
        }
      ],
      "name": "transferFrom",
      "outputs": [],
      "stateMutability": "nonpayable",
      "type": "function"
    },
    {
      "inputs": [
        {
          "internalType": "address",
          "name": "newOwner",
          "type": "address"
        }
      ],
      "name": "transferOwnership",
      "outputs": [],
      "stateMutability": "nonpayable",
      "type": "function"
    },
    {
      "inputs": [
        {
          "internalType": "string",
          "name": "str",
          "type": "string"
        },
        {
          "internalType": "uint256",
          "name": "start",
          "type": "uint256"
        }
      ],
      "name": "trimStart",
      "outputs": [
        {
          "internalType": "string",
          "name": "",
          "type": "string"
        }
      ],
      "stateMutability": "pure",
      "type": "function"
    },
    {
      "inputs": [
        {
          "internalType": "uint256",
          "name": "tokenId",
          "type": "uint256"
        }
      ],
      "name": "uri",
      "outputs": [
        {
          "internalType": "string",
          "name": "",
          "type": "string"
        }
      ],
      "stateMutability": "view",
      "type": "function"
    }
  ],
  "bytecode": "0x608060405260405180602001604052806000815250600f90816100229190610415565b5034801561002f57600080fd5b50604051614cd2380380614cd28339818101604052810190610051919061062d565b33828281600090816100639190610415565b5080600190816100739190610415565b505050600073ffffffffffffffffffffffffffffffffffffffff168173ffffffffffffffffffffffffffffffffffffffff16036100e85760006040517f1e4fbdf70000000000000000000000000000000000000000000000000000000081526004016100df91906106e6565b60405180910390fd5b6100f7816100ff60201b60201c565b505050610701565b6000600a60009054906101000a900473ffffffffffffffffffffffffffffffffffffffff16905081600a60006101000a81548173ffffffffffffffffffffffffffffffffffffffff021916908373ffffffffffffffffffffffffffffffffffffffff1602179055508173ffffffffffffffffffffffffffffffffffffffff168173ffffffffffffffffffffffffffffffffffffffff167f8be0079c531659141344cd1fd0a4f28419497f9722a3daafe3b4186f6b6457e060405160405180910390a35050565b600081519050919050565b7f4e487b7100000000000000000000000000000000000000000000000000000000600052604160045260246000fd5b7f4e487b7100000000000000000000000000000000000000000000000000000000600052602260045260246000fd5b6000600282049050600182168061024657607f821691505b602082108103610259576102586101ff565b5b50919050565b60008190508160005260206000209050919050565b60006020601f8301049050919050565b600082821b905092915050565b6000600883026102c17fffffffffffffffffffffffffffffffffffffffffffffffffffffffffffffffff82610284565b6102cb8683610284565b95508019841693508086168417925050509392505050565b6000819050919050565b6000819050919050565b600061031261030d610308846102e3565b6102ed565b6102e3565b9050919050565b6000819050919050565b61032c836102f7565b61034061033882610319565b848454610291565b825550505050565b600090565b610355610348565b610360818484610323565b505050565b5b818110156103845761037960008261034d565b600181019050610366565b5050565b601f8211156103c95761039a8161025f565b6103a384610274565b810160208510156103b2578190505b6103c66103be85610274565b830182610365565b50505b505050565b600082821c905092915050565b60006103ec600019846008026103ce565b1980831691505092915050565b600061040583836103db565b9150826002028217905092915050565b61041e826101c5565b67ffffffffffffffff811115610437576104366101d0565b5b610441825461022e565b61044c828285610388565b600060209050601f83116001811461047f576000841561046d578287015190505b61047785826103f9565b8655506104df565b601f19841661048d8661025f565b60005b828110156104b557848901518255600182019150602085019450602081019050610490565b868310156104d257848901516104ce601f8916826103db565b8355505b6001600288020188555050505b505050505050565b6000604051905090565b600080fd5b600080fd5b600080fd5b600080fd5b6000601f19601f8301169050919050565b61051f82610505565b810181811067ffffffffffffffff8211171561053e5761053d6101d0565b5b80604052505050565b60006105516104e7565b905061055d8282610516565b919050565b600067ffffffffffffffff82111561057d5761057c6101d0565b5b61058682610505565b9050602081019050919050565b60005b838110156105b1578082015181840152602081019050610596565b60008484015250505050565b60006105d06105cb84610562565b610547565b9050828152602081018484840111156105ec576105eb610500565b5b6105f7848285610593565b509392505050565b600082601f830112610614576106136104fb565b5b81516106248482602086016105bd565b91505092915050565b60008060408385031215610644576106436104f1565b5b600083015167ffffffffffffffff811115610662576106616104f6565b5b61066e858286016105ff565b925050602083015167ffffffffffffffff81111561068f5761068e6104f6565b5b61069b858286016105ff565b9150509250929050565b600073ffffffffffffffffffffffffffffffffffffffff82169050919050565b60006106d0826106a5565b9050919050565b6106e0816106c5565b82525050565b60006020820190506106fb60008301846106d7565b92915050565b6145c2806107106000396000f3fe608060405234801561001057600080fd5b50600436106101d95760003560e01c80636352211e11610104578063b88d4fde116100a2578063e985e9c511610071578063e985e9c51461059c578063f242432a146105cc578063f2fde38b146105e8578063f46273eb14610604576101d9565b8063b88d4fde14610518578063be29184f14610534578063c87b56dd14610550578063da8438ac14610580576101d9565b80638da5cb5b116100de5780638da5cb5b146104905780638e7cb6e1146104ae57806395d89b41146104de578063a22cb465146104fc576101d9565b80636352211e1461042657806370a0823114610456578063715018a614610486576101d9565b806323b872dd1161017c57806342842e0e1161014b57806342842e0e1461038e5780634e1273f4146103aa5780634f6ccce7146103da57806355f804b31461040a576101d9565b806323b872dd146102f65780632eb2c2d6146103125780632f745c591461032e5780634036ab781461035e576101d9565b8063081812fc116101b8578063081812fc1461025c578063095ea7b31461028c5780630e89341c146102a857806318160ddd146102d8576101d9565b8062fdd58e146101de57806301ffc9a71461020e57806306fdde031461023e575b600080fd5b6101f860048036038101906101f39190613072565b610634565b60405161020591906130c1565b60405180910390f35b61022860048036038101906102239190613134565b61072c565b604051610235919061317c565b60405180910390f35b61024661085d565b6040516102539190613227565b60405180910390f35b61027660048036038101906102719190613249565b6108ef565b6040516102839190613285565b60405180910390f35b6102a660048036038101906102a19190613072565b61090b565b005b6102c260048036038101906102bd9190613249565b610921565b6040516102cf9190613227565b60405180910390f35b6102e0610933565b6040516102ed91906130c1565b60405180910390f35b610310600480360381019061030b91906132a0565b610940565b005b61032c600480360381019061032791906133ae565b610a42565b005b61034860048036038101906103439190613072565b610a74565b60405161035591906130c1565b60405180910390f35b61037860048036038101906103739190613249565b610b1d565b60405161038591906134b5565b60405180910390f35b6103a860048036038101906103a391906132a0565b610b3d565b005b6103c460048036038101906103bf9190613526565b610b5d565b6040516103d19190613665565b60405180910390f35b6103f460048036038101906103ef9190613249565b610b91565b60405161040191906130c1565b60405180910390f35b610424600480360381019061041f91906137b7565b610c07565b005b610440600480360381019061043b9190613249565b610c22565b60405161044d9190613285565b60405180910390f35b610470600480360381019061046b9190613800565b610c34565b60405161047d91906130c1565b60405180910390f35b61048e610cee565b005b610498610d02565b6040516104a59190613285565b60405180910390f35b6104c860048036038101906104c39190613249565b610d2c565b6040516104d591906134b5565b60405180910390f35b6104e6610d48565b6040516104f39190613227565b60405180910390f35b61051660048036038101906105119190613859565b610dda565b005b610532600480360381019061052d919061393a565b610df0565b005b61054e600480360381019061054991906139e9565b610e15565b005b61056a60048036038101906105659190613249565b610e8f565b6040516105779190613227565b60405180910390f35b61059a60048036038101906105959190613a29565b61111a565b005b6105b660048036038101906105b19190613a98565b61120b565b6040516105c3919061317c565b60405180910390f35b6105e660048036038101906105e19190613ad8565b61129f565b005b61060260048036038101906105fd9190613800565b61160b565b005b61061e60048036038101906106199190613bc5565b611691565b60405161062b9190613227565b60405180910390f35b60008061064083610d2c565b6fffffffffffffffffffffffffffffffff16036106db57600d60008473ffffffffffffffffffffffffffffffffffffffff1673ffffffffffffffffffffffffffffffffffffffff16815260200190815260200160002060006106a184610b1d565b6fffffffffffffffffffffffffffffffff166fffffffffffffffffffffffffffffffff168152602001908152602001600020549050610726565b8273ffffffffffffffffffffffffffffffffffffffff166106fb836116f1565b73ffffffffffffffffffffffffffffffffffffffff161461071d576000610720565b60015b60ff1690505b92915050565b60007fd9b67a26000000000000000000000000000000000000000000000000000000007bffffffffffffffffffffffffffffffffffffffffffffffffffffffff1916827bffffffffffffffffffffffffffffffffffffffffffffffffffffffff191614806107f757507f0e89341c000000000000000000000000000000000000000000000000000000007bffffffffffffffffffffffffffffffffffffffffffffffffffffffff1916827bffffffffffffffffffffffffffffffffffffffffffffffffffffffff1916145b806108465750634906490660e01b7bffffffffffffffffffffffffffffffffffffffffffffffffffffffff1916827bffffffffffffffffffffffffffffffffffffffffffffffffffffffff1916145b8061085657506108558261172e565b5b9050919050565b60606000805461086c90613c54565b80601f016020809104026020016040519081016040528092919081815260200182805461089890613c54565b80156108e55780601f106108ba576101008083540402835291602001916108e5565b820191906000526020600020905b8154815290600101906020018083116108c857829003601f168201915b5050505050905090565b60006108fa826117a8565b5061090482611830565b9050919050565b61091d828261091861186d565b611875565b5050565b606061092c82610e8f565b9050919050565b6000600880549050905090565b600073ffffffffffffffffffffffffffffffffffffffff168273ffffffffffffffffffffffffffffffffffffffff16036109b25760006040517f64a0ae920000000000000000000000000000000000000000000000000000000081526004016109a99190613285565b60405180910390fd5b60006109c683836109c161186d565b611887565b90508373ffffffffffffffffffffffffffffffffffffffff168173ffffffffffffffffffffffffffffffffffffffff1614610a3c578382826040517f64283d7b000000000000000000000000000000000000000000000000000000008152600401610a3393929190613c85565b60405180910390fd5b50505050565b6040517f1b517b1800000000000000000000000000000000000000000000000000000000815260040160405180910390fd5b6000610a7f83610c34565b8210610ac45782826040517fa57d13dc000000000000000000000000000000000000000000000000000000008152600401610abb929190613cbc565b60405180910390fd5b600660008473ffffffffffffffffffffffffffffffffffffffff1673ffffffffffffffffffffffffffffffffffffffff168152602001908152602001600020600083815260200190815260200160002054905092915050565b60006fffffffffffffffffffffffffffffffff608083901c169050919050565b610b5883838360405180602001604052806000815250610df0565b505050565b60606040517f1b517b1800000000000000000000000000000000000000000000000000000000815260040160405180910390fd5b6000610b9b610933565b8210610be1576000826040517fa57d13dc000000000000000000000000000000000000000000000000000000008152600401610bd8929190613cbc565b60405180910390fd5b60088281548110610bf557610bf4613ce5565b5b90600052602060002001549050919050565b610c0f611c0d565b80600f9081610c1e9190613ec0565b5050565b6000610c2d826117a8565b9050919050565b60008073ffffffffffffffffffffffffffffffffffffffff168273ffffffffffffffffffffffffffffffffffffffff1603610ca75760006040517f89c62b64000000000000000000000000000000000000000000000000000000008152600401610c9e9190613285565b60405180910390fd5b600360008373ffffffffffffffffffffffffffffffffffffffff1673ffffffffffffffffffffffffffffffffffffffff168152602001908152602001600020549050919050565b610cf6611c0d565b610d006000611c94565b565b6000600a60009054906101000a900473ffffffffffffffffffffffffffffffffffffffff16905090565b60006fffffffffffffffffffffffffffffffff82169050919050565b606060018054610d5790613c54565b80601f0160208091040260200160405190810160405280929190818152602001828054610d8390613c54565b8015610dd05780601f10610da557610100808354040283529160200191610dd0565b820191906000526020600020905b815481529060010190602001808311610db357829003601f168201915b5050505050905090565b610dec610de561186d565b8383611d5a565b5050565b610dfb848484610940565b610e0f610e0661186d565b85858585611ec9565b50505050565b610e1d611c0d565b610e8b826001600b6000856fffffffffffffffffffffffffffffffff166fffffffffffffffffffffffffffffffff168152602001908152602001600020546080856fffffffffffffffffffffffffffffffff16901b610e7c9190613fc1565b610e869190613fc1565b61207a565b5050565b6060610e9a826117a8565b506000600e60008481526020019081526020016000206000018054610ebe90613c54565b80601f0160208091040260200160405190810160405280929190818152602001828054610eea90613c54565b8015610f375780601f10610f0c57610100808354040283529160200191610f37565b820191906000526020600020905b815481529060010190602001808311610f1a57829003601f168201915b505050505090506000600f8054610f4d90613c54565b80601f0160208091040260200160405190810160405280929190818152602001828054610f7990613c54565b8015610fc65780601f10610f9b57610100808354040283529160200191610fc6565b820191906000526020600020905b815481529060010190602001808311610fa957829003601f168201915b5050505050905060008251111561103157600e600085815260200190815260200160002060010160009054906101000a900460ff166110055781611028565b8082604051602001611018929190614031565b6040516020818303038152906040525b92505050611115565b60008151111561110057600061105160208661217390919063ffffffff16565b9050813073ffffffffffffffffffffffffffffffffffffffff1663f46273eb8360026040518363ffffffff1660e01b8152600401611090929190614090565b600060405180830381865afa1580156110ad573d6000803e3d6000fd5b505050506040513d6000823e3d601f19601f820116820180604052508101906110d69190614130565b6040516020016110e7929190614031565b6040516020818303038152906040529350505050611115565b60405180602001604052806000815250925050505b919050565b611122611c0d565b61112b836117a8565b506040518060400160405280838152602001821515815250600e6000858152602001908152602001600020600082015181600001908161116b9190613ec0565b5060208201518160010160006101000a81548160ff0219169083151502179055509050507ff8e1a15aba9398e019f0b49df1a4fde98ee17ae345cb5f6b5e2c27f5033e8ce7836040516111be91906130c1565b60405180910390a1827f6bb7ff708619ba0610cba295a58592e0451dee2622938c8755667688daf3529b6111f185610921565b6040516111fe9190613227565b60405180910390a2505050565b6000600560008473ffffffffffffffffffffffffffffffffffffffff1673ffffffffffffffffffffffffffffffffffffffff16815260200190815260200160002060008373ffffffffffffffffffffffffffffffffffffffff1673ffffffffffffffffffffffffffffffffffffffff16815260200190815260200160002060009054906101000a900460ff16905092915050565b60006112a961186d565b90508073ffffffffffffffffffffffffffffffffffffffff168673ffffffffffffffffffffffffffffffffffffffff16141580156112ee57506112ec868261120b565b155b156113325780866040517fe237d922000000000000000000000000000000000000000000000000000000008152600401611329929190614179565b60405180910390fd5b600073ffffffffffffffffffffffffffffffffffffffff168573ffffffffffffffffffffffffffffffffffffffff16036113a45760006040517f57f447ce00000000000000000000000000000000000000000000000000000000815260040161139b9190613285565b60405180910390fd5b600073ffffffffffffffffffffffffffffffffffffffff168673ffffffffffffffffffffffffffffffffffffffff16036114165760006040517f01a8351400000000000000000000000000000000000000000000000000000000815260040161140d9190613285565b60405180910390fd5b600061142185610d2c565b6fffffffffffffffffffffffffffffffff160361147c5785600084866040517f03dee4c500000000000000000000000000000000000000000000000000000000815260040161147394939291906141dd565b60405180910390fd5b60006114888786610634565b905060018411806114995750600081145b156114e157868185876040517f03dee4c50000000000000000000000000000000000000000000000000000000081526004016114d89493929190614222565b60405180910390fd5b600184036115755760006114f787876000611887565b90508773ffffffffffffffffffffffffffffffffffffffff168173ffffffffffffffffffffffffffffffffffffffff161461156f57878286886040517f03dee4c50000000000000000000000000000000000000000000000000000000081526004016115669493929190614222565b60405180910390fd5b506115f4565b8573ffffffffffffffffffffffffffffffffffffffff168773ffffffffffffffffffffffffffffffffffffffff168373ffffffffffffffffffffffffffffffffffffffff167fc3d58168c5ae7397731d063d5bbf3d657854427343f4c083240f7aacaa2d0f6288886040516115eb929190614267565b60405180910390a45b6116028288888888886123b9565b50505050505050565b611613611c0d565b600073ffffffffffffffffffffffffffffffffffffffff168173ffffffffffffffffffffffffffffffffffffffff16036116855760006040517f1e4fbdf700000000000000000000000000000000000000000000000000000000815260040161167c9190613285565b60405180910390fd5b61168e81611c94565b50565b60608383839080926116a59392919061429a565b8080601f016020809104026020016040519081016040528093929190818152602001838380828437600081840152601f19601f8201169050808301925050505050505090509392505050565b60006002600083815260200190815260200160002060009054906101000a900473ffffffffffffffffffffffffffffffffffffffff169050919050565b60007f780e9d63000000000000000000000000000000000000000000000000000000007bffffffffffffffffffffffffffffffffffffffffffffffffffffffff1916827bffffffffffffffffffffffffffffffffffffffffffffffffffffffff191614806117a157506117a08261256d565b5b9050919050565b6000806117b4836116f1565b9050600073ffffffffffffffffffffffffffffffffffffffff168173ffffffffffffffffffffffffffffffffffffffff160361182757826040517f7e27328900000000000000000000000000000000000000000000000000000000815260040161181e91906130c1565b60405180910390fd5b80915050919050565b60006004600083815260200190815260200160002060009054906101000a900473ffffffffffffffffffffffffffffffffffffffff169050919050565b600033905090565b611882838383600161264f565b505050565b600080611895858585612814565b90508473ffffffffffffffffffffffffffffffffffffffff168173ffffffffffffffffffffffffffffffffffffffff166118cd61186d565b73ffffffffffffffffffffffffffffffffffffffff167fc3d58168c5ae7397731d063d5bbf3d657854427343f4c083240f7aacaa2d0f62876001604051611915929190614310565b60405180910390a4600061192885610b1d565b9050600073ffffffffffffffffffffffffffffffffffffffff168273ffffffffffffffffffffffffffffffffffffffff16036119fd57600b6000826fffffffffffffffffffffffffffffffff166fffffffffffffffffffffffffffffffff16815260200190815260200160002060008154809291906119a690614339565b9190505550600c6000826fffffffffffffffffffffffffffffffff166fffffffffffffffffffffffffffffffff16815260200190815260200160002060008154809291906119f390614339565b9190505550611abc565b8573ffffffffffffffffffffffffffffffffffffffff168273ffffffffffffffffffffffffffffffffffffffff1614611abb57600d60008373ffffffffffffffffffffffffffffffffffffffff1673ffffffffffffffffffffffffffffffffffffffff1681526020019081526020016000206000826fffffffffffffffffffffffffffffffff166fffffffffffffffffffffffffffffffff1681526020019081526020016000206000815480929190611ab590614381565b91905055505b5b600073ffffffffffffffffffffffffffffffffffffffff168673ffffffffffffffffffffffffffffffffffffffff1603611b4257600c6000826fffffffffffffffffffffffffffffffff166fffffffffffffffffffffffffffffffff1681526020019081526020016000206000815480929190611b3890614381565b9190505550611c01565b8573ffffffffffffffffffffffffffffffffffffffff168273ffffffffffffffffffffffffffffffffffffffff1614611c0057600d60008773ffffffffffffffffffffffffffffffffffffffff1673ffffffffffffffffffffffffffffffffffffffff1681526020019081526020016000206000826fffffffffffffffffffffffffffffffff166fffffffffffffffffffffffffffffffff1681526020019081526020016000206000815480929190611bfa90614339565b91905055505b5b81925050509392505050565b611c1561186d565b73ffffffffffffffffffffffffffffffffffffffff16611c33610d02565b73ffffffffffffffffffffffffffffffffffffffff1614611c9257611c5661186d565b6040517f118cdaa7000000000000000000000000000000000000000000000000000000008152600401611c899190613285565b60405180910390fd5b565b6000600a60009054906101000a900473ffffffffffffffffffffffffffffffffffffffff16905081600a60006101000a81548173ffffffffffffffffffffffffffffffffffffffff021916908373ffffffffffffffffffffffffffffffffffffffff1602179055508173ffffffffffffffffffffffffffffffffffffffff168173ffffffffffffffffffffffffffffffffffffffff167f8be0079c531659141344cd1fd0a4f28419497f9722a3daafe3b4186f6b6457e060405160405180910390a35050565b600073ffffffffffffffffffffffffffffffffffffffff168273ffffffffffffffffffffffffffffffffffffffff1603611dcb57816040517f5b08ba18000000000000000000000000000000000000000000000000000000008152600401611dc29190613285565b60405180910390fd5b80600560008573ffffffffffffffffffffffffffffffffffffffff1673ffffffffffffffffffffffffffffffffffffffff16815260200190815260200160002060008473ffffffffffffffffffffffffffffffffffffffff1673ffffffffffffffffffffffffffffffffffffffff16815260200190815260200160002060006101000a81548160ff0219169083151502179055508173ffffffffffffffffffffffffffffffffffffffff168373ffffffffffffffffffffffffffffffffffffffff167f17307eab39ab6107e8899845ad3d59bd9653f200f220920489ca2b5937696c3183604051611ebc919061317c565b60405180910390a3505050565b60008373ffffffffffffffffffffffffffffffffffffffff163b1115612073578273ffffffffffffffffffffffffffffffffffffffff1663150b7a02868685856040518563ffffffff1660e01b8152600401611f2894939291906143ff565b6020604051808303816000875af1925050508015611f6457506040513d601f19601f82011682018060405250810190611f619190614460565b60015b611fe8573d8060008114611f94576040519150601f19603f3d011682016040523d82523d6000602084013e611f99565b606091505b506000815103611fe057836040517f64a0ae92000000000000000000000000000000000000000000000000000000008152600401611fd79190613285565b60405180910390fd5b805181602001fd5b63150b7a0260e01b7bffffffffffffffffffffffffffffffffffffffffffffffffffffffff1916817bffffffffffffffffffffffffffffffffffffffffffffffffffffffff19161461207157836040517f64a0ae920000000000000000000000000000000000000000000000000000000081526004016120689190613285565b60405180910390fd5b505b5050505050565b600073ffffffffffffffffffffffffffffffffffffffff168273ffffffffffffffffffffffffffffffffffffffff16036120ec5760006040517f64a0ae920000000000000000000000000000000000000000000000000000000081526004016120e39190613285565b60405180910390fd5b60006120fa83836000611887565b9050600073ffffffffffffffffffffffffffffffffffffffff168173ffffffffffffffffffffffffffffffffffffffff161461216e5760006040517f73c6ac6e0000000000000000000000000000000000000000000000000000000081526004016121659190613285565b60405180910390fd5b505050565b606060008390506000600284600261218b919061448d565b6121959190613fc1565b67ffffffffffffffff8111156121ae576121ad61368c565b5b6040519080825280601f01601f1916602001820160405280156121e05781602001600182028036833780820191505090505b5090507f30000000000000000000000000000000000000000000000000000000000000008160008151811061221857612217613ce5565b5b60200101907effffffffffffffffffffffffffffffffffffffffffffffffffffffffffffff1916908160001a9053507f78000000000000000000000000000000000000000000000000000000000000008160018151811061227c5761227b613ce5565b5b60200101907effffffffffffffffffffffffffffffffffffffffffffffffffffffffffffff1916908160001a905350600060018560026122bc919061448d565b6122c69190613fc1565b90505b6001811115612366577f3031323334353637383961626364656600000000000000000000000000000000600f84166010811061230857612307613ce5565b5b1a60f81b82828151811061231f5761231e613ce5565b5b60200101907effffffffffffffffffffffffffffffffffffffffffffffffffffffffffffff1916908160001a905350600483901c92508061235f90614381565b90506122c9565b50600082146123ae5784846040517fe22e27eb0000000000000000000000000000000000000000000000000000000081526004016123a5929190614267565b60405180910390fd5b809250505092915050565b60008473ffffffffffffffffffffffffffffffffffffffff163b1115612565578373ffffffffffffffffffffffffffffffffffffffff1663f23a6e6187878686866040518663ffffffff1660e01b815260040161241a9594939291906144cf565b6020604051808303816000875af192505050801561245657506040513d601f19601f820116820180604052508101906124539190614460565b60015b6124da573d8060008114612486576040519150601f19603f3d011682016040523d82523d6000602084013e61248b565b606091505b5060008151036124d257846040517f57f447ce0000000000000000000000000000000000000000000000000000000081526004016124c99190613285565b60405180910390fd5b805181602001fd5b63f23a6e6160e01b7bffffffffffffffffffffffffffffffffffffffffffffffffffffffff1916817bffffffffffffffffffffffffffffffffffffffffffffffffffffffff19161461256357846040517f57f447ce00000000000000000000000000000000000000000000000000000000815260040161255a9190613285565b60405180910390fd5b505b505050505050565b60007f80ac58cd000000000000000000000000000000000000000000000000000000007bffffffffffffffffffffffffffffffffffffffffffffffffffffffff1916827bffffffffffffffffffffffffffffffffffffffffffffffffffffffff1916148061263857507f5b5e139f000000000000000000000000000000000000000000000000000000007bffffffffffffffffffffffffffffffffffffffffffffffffffffffff1916827bffffffffffffffffffffffffffffffffffffffffffffffffffffffff1916145b80612648575061264782612931565b5b9050919050565b80806126885750600073ffffffffffffffffffffffffffffffffffffffff168273ffffffffffffffffffffffffffffffffffffffff1614155b156127bc576000612698846117a8565b9050600073ffffffffffffffffffffffffffffffffffffffff168373ffffffffffffffffffffffffffffffffffffffff161415801561270357508273ffffffffffffffffffffffffffffffffffffffff168173ffffffffffffffffffffffffffffffffffffffff1614155b80156127165750612714818461120b565b155b1561275857826040517fa9fbf51f00000000000000000000000000000000000000000000000000000000815260040161274f9190613285565b60405180910390fd5b81156127ba57838573ffffffffffffffffffffffffffffffffffffffff168273ffffffffffffffffffffffffffffffffffffffff167f8c5be1e5ebec7d5bd14f71427d1e84f3dd0314c0f7b2291e5b200ac8c7c3b92560405160405180910390a45b505b836004600085815260200190815260200160002060006101000a81548173ffffffffffffffffffffffffffffffffffffffff021916908373ffffffffffffffffffffffffffffffffffffffff16021790555050505050565b60008061282285858561299b565b9050600073ffffffffffffffffffffffffffffffffffffffff168173ffffffffffffffffffffffffffffffffffffffff16036128665761286184612bb5565b6128a5565b8473ffffffffffffffffffffffffffffffffffffffff168173ffffffffffffffffffffffffffffffffffffffff16146128a4576128a38185612bfe565b5b5b600073ffffffffffffffffffffffffffffffffffffffff168573ffffffffffffffffffffffffffffffffffffffff16036128e7576128e284612ce9565b612926565b8473ffffffffffffffffffffffffffffffffffffffff168173ffffffffffffffffffffffffffffffffffffffff1614612925576129248585612dba565b5b5b809150509392505050565b60007f01ffc9a7000000000000000000000000000000000000000000000000000000007bffffffffffffffffffffffffffffffffffffffffffffffffffffffff1916827bffffffffffffffffffffffffffffffffffffffffffffffffffffffff1916149050919050565b6000806129a7846116f1565b9050600073ffffffffffffffffffffffffffffffffffffffff168373ffffffffffffffffffffffffffffffffffffffff16146129e9576129e8818486612e45565b5b600073ffffffffffffffffffffffffffffffffffffffff168173ffffffffffffffffffffffffffffffffffffffff1614612a7a57612a2b60008560008061264f565b6001600360008373ffffffffffffffffffffffffffffffffffffffff1673ffffffffffffffffffffffffffffffffffffffff168152602001908152602001600020600082825403925050819055505b600073ffffffffffffffffffffffffffffffffffffffff168573ffffffffffffffffffffffffffffffffffffffff1614612afd576001600360008773ffffffffffffffffffffffffffffffffffffffff1673ffffffffffffffffffffffffffffffffffffffff168152602001908152602001600020600082825401925050819055505b846002600086815260200190815260200160002060006101000a81548173ffffffffffffffffffffffffffffffffffffffff021916908373ffffffffffffffffffffffffffffffffffffffff160217905550838573ffffffffffffffffffffffffffffffffffffffff168273ffffffffffffffffffffffffffffffffffffffff167fddf252ad1be2c89b69c2b068fc378daa952ba7f163c4a11628f55a4df523b3ef60405160405180910390a4809150509392505050565b6008805490506009600083815260200190815260200160002081905550600881908060018154018082558091505060019003906000526020600020016000909190919091505550565b6000612c0983610c34565b90506000600760008481526020019081526020016000205490506000600660008673ffffffffffffffffffffffffffffffffffffffff1673ffffffffffffffffffffffffffffffffffffffff1681526020019081526020016000209050828214612cb55760008160008581526020019081526020016000205490508082600085815260200190815260200160002081905550826007600083815260200190815260200160002081905550505b6007600085815260200190815260200160002060009055806000848152602001908152602001600020600090555050505050565b60006001600880549050612cfd9190614529565b9050600060096000848152602001908152602001600020549050600060088381548110612d2d57612d2c613ce5565b5b906000526020600020015490508060088381548110612d4f57612d4e613ce5565b5b906000526020600020018190555081600960008381526020019081526020016000208190555060096000858152602001908152602001600020600090556008805480612d9e57612d9d61455d565b5b6001900381819060005260206000200160009055905550505050565b60006001612dc784610c34565b612dd19190614529565b905081600660008573ffffffffffffffffffffffffffffffffffffffff1673ffffffffffffffffffffffffffffffffffffffff168152602001908152602001600020600083815260200190815260200160002081905550806007600084815260200190815260200160002081905550505050565b612e50838383612f09565b612f0457600073ffffffffffffffffffffffffffffffffffffffff168373ffffffffffffffffffffffffffffffffffffffff1603612ec557806040517f7e273289000000000000000000000000000000000000000000000000000000008152600401612ebc91906130c1565b60405180910390fd5b81816040517f177e802f000000000000000000000000000000000000000000000000000000008152600401612efb929190613cbc565b60405180910390fd5b505050565b60008073ffffffffffffffffffffffffffffffffffffffff168373ffffffffffffffffffffffffffffffffffffffff1614158015612fc157508273ffffffffffffffffffffffffffffffffffffffff168473ffffffffffffffffffffffffffffffffffffffff161480612f825750612f81848461120b565b5b80612fc057508273ffffffffffffffffffffffffffffffffffffffff16612fa883611830565b73ffffffffffffffffffffffffffffffffffffffff16145b5b90509392505050565b6000604051905090565b600080fd5b600080fd5b600073ffffffffffffffffffffffffffffffffffffffff82169050919050565b600061300982612fde565b9050919050565b61301981612ffe565b811461302457600080fd5b50565b60008135905061303681613010565b92915050565b6000819050919050565b61304f8161303c565b811461305a57600080fd5b50565b60008135905061306c81613046565b92915050565b6000806040838503121561308957613088612fd4565b5b600061309785828601613027565b92505060206130a88582860161305d565b9150509250929050565b6130bb8161303c565b82525050565b60006020820190506130d660008301846130b2565b92915050565b60007fffffffff0000000000000000000000000000000000000000000000000000000082169050919050565b613111816130dc565b811461311c57600080fd5b50565b60008135905061312e81613108565b92915050565b60006020828403121561314a57613149612fd4565b5b60006131588482850161311f565b91505092915050565b60008115159050919050565b61317681613161565b82525050565b6000602082019050613191600083018461316d565b92915050565b600081519050919050565b600082825260208201905092915050565b60005b838110156131d15780820151818401526020810190506131b6565b60008484015250505050565b6000601f19601f8301169050919050565b60006131f982613197565b61320381856131a2565b93506132138185602086016131b3565b61321c816131dd565b840191505092915050565b6000602082019050818103600083015261324181846131ee565b905092915050565b60006020828403121561325f5761325e612fd4565b5b600061326d8482850161305d565b91505092915050565b61327f81612ffe565b82525050565b600060208201905061329a6000830184613276565b92915050565b6000806000606084860312156132b9576132b8612fd4565b5b60006132c786828701613027565b93505060206132d886828701613027565b92505060406132e98682870161305d565b9150509250925092565b600080fd5b600080fd5b600080fd5b60008083601f840112613318576133176132f3565b5b8235905067ffffffffffffffff811115613335576133346132f8565b5b602083019150836020820283011115613351576133506132fd565b5b9250929050565b60008083601f84011261336e5761336d6132f3565b5b8235905067ffffffffffffffff81111561338b5761338a6132f8565b5b6020830191508360018202830111156133a7576133a66132fd565b5b9250929050565b60008060008060008060008060a0898b0312156133ce576133cd612fd4565b5b60006133dc8b828c01613027565b98505060206133ed8b828c01613027565b975050604089013567ffffffffffffffff81111561340e5761340d612fd9565b5b61341a8b828c01613302565b9650965050606089013567ffffffffffffffff81111561343d5761343c612fd9565b5b6134498b828c01613302565b9450945050608089013567ffffffffffffffff81111561346c5761346b612fd9565b5b6134788b828c01613358565b92509250509295985092959890939650565b60006fffffffffffffffffffffffffffffffff82169050919050565b6134af8161348a565b82525050565b60006020820190506134ca60008301846134a6565b92915050565b60008083601f8401126134e6576134e56132f3565b5b8235905067ffffffffffffffff811115613503576135026132f8565b5b60208301915083602082028301111561351f5761351e6132fd565b5b9250929050565b600080600080604085870312156135405761353f612fd4565b5b600085013567ffffffffffffffff81111561355e5761355d612fd9565b5b61356a878288016134d0565b9450945050602085013567ffffffffffffffff81111561358d5761358c612fd9565b5b61359987828801613302565b925092505092959194509250565b600081519050919050565b600082825260208201905092915050565b6000819050602082019050919050565b6135dc8161303c565b82525050565b60006135ee83836135d3565b60208301905092915050565b6000602082019050919050565b6000613612826135a7565b61361c81856135b2565b9350613627836135c3565b8060005b8381101561365857815161363f88826135e2565b975061364a836135fa565b92505060018101905061362b565b5085935050505092915050565b6000602082019050818103600083015261367f8184613607565b905092915050565b600080fd5b7f4e487b7100000000000000000000000000000000000000000000000000000000600052604160045260246000fd5b6136c4826131dd565b810181811067ffffffffffffffff821117156136e3576136e261368c565b5b80604052505050565b60006136f6612fca565b905061370282826136bb565b919050565b600067ffffffffffffffff8211156137225761372161368c565b5b61372b826131dd565b9050602081019050919050565b82818337600083830152505050565b600061375a61375584613707565b6136ec565b90508281526020810184848401111561377657613775613687565b5b613781848285613738565b509392505050565b600082601f83011261379e5761379d6132f3565b5b81356137ae848260208601613747565b91505092915050565b6000602082840312156137cd576137cc612fd4565b5b600082013567ffffffffffffffff8111156137eb576137ea612fd9565b5b6137f784828501613789565b91505092915050565b60006020828403121561381657613815612fd4565b5b600061382484828501613027565b91505092915050565b61383681613161565b811461384157600080fd5b50565b6000813590506138538161382d565b92915050565b600080604083850312156138705761386f612fd4565b5b600061387e85828601613027565b925050602061388f85828601613844565b9150509250929050565b600067ffffffffffffffff8211156138b4576138b361368c565b5b6138bd826131dd565b9050602081019050919050565b60006138dd6138d884613899565b6136ec565b9050828152602081018484840111156138f9576138f8613687565b5b613904848285613738565b509392505050565b600082601f830112613921576139206132f3565b5b81356139318482602086016138ca565b91505092915050565b6000806000806080858703121561395457613953612fd4565b5b600061396287828801613027565b945050602061397387828801613027565b93505060406139848782880161305d565b925050606085013567ffffffffffffffff8111156139a5576139a4612fd9565b5b6139b18782880161390c565b91505092959194509250565b6139c68161348a565b81146139d157600080fd5b50565b6000813590506139e3816139bd565b92915050565b60008060408385031215613a00576139ff612fd4565b5b6000613a0e85828601613027565b9250506020613a1f858286016139d4565b9150509250929050565b600080600060608486031215613a4257613a41612fd4565b5b6000613a508682870161305d565b935050602084013567ffffffffffffffff811115613a7157613a70612fd9565b5b613a7d86828701613789565b9250506040613a8e86828701613844565b9150509250925092565b60008060408385031215613aaf57613aae612fd4565b5b6000613abd85828601613027565b9250506020613ace85828601613027565b9150509250929050565b600080600080600060a08688031215613af457613af3612fd4565b5b6000613b0288828901613027565b9550506020613b1388828901613027565b9450506040613b248882890161305d565b9350506060613b358882890161305d565b925050608086013567ffffffffffffffff811115613b5657613b55612fd9565b5b613b628882890161390c565b9150509295509295909350565b60008083601f840112613b8557613b846132f3565b5b8235905067ffffffffffffffff811115613ba257613ba16132f8565b5b602083019150836001820283011115613bbe57613bbd6132fd565b5b9250929050565b600080600060408486031215613bde57613bdd612fd4565b5b600084013567ffffffffffffffff811115613bfc57613bfb612fd9565b5b613c0886828701613b6f565b93509350506020613c1b8682870161305d565b9150509250925092565b7f4e487b7100000000000000000000000000000000000000000000000000000000600052602260045260246000fd5b60006002820490506001821680613c6c57607f821691505b602082108103613c7f57613c7e613c25565b5b50919050565b6000606082019050613c9a6000830186613276565b613ca760208301856130b2565b613cb46040830184613276565b949350505050565b6000604082019050613cd16000830185613276565b613cde60208301846130b2565b9392505050565b7f4e487b7100000000000000000000000000000000000000000000000000000000600052603260045260246000fd5b60008190508160005260206000209050919050565b60006020601f8301049050919050565b600082821b905092915050565b600060088302613d767fffffffffffffffffffffffffffffffffffffffffffffffffffffffffffffffff82613d39565b613d808683613d39565b95508019841693508086168417925050509392505050565b6000819050919050565b6000613dbd613db8613db38461303c565b613d98565b61303c565b9050919050565b6000819050919050565b613dd783613da2565b613deb613de382613dc4565b848454613d46565b825550505050565b600090565b613e00613df3565b613e0b818484613dce565b505050565b5b81811015613e2f57613e24600082613df8565b600181019050613e11565b5050565b601f821115613e7457613e4581613d14565b613e4e84613d29565b81016020851015613e5d578190505b613e71613e6985613d29565b830182613e10565b50505b505050565b600082821c905092915050565b6000613e9760001984600802613e79565b1980831691505092915050565b6000613eb08383613e86565b9150826002028217905092915050565b613ec982613197565b67ffffffffffffffff811115613ee257613ee161368c565b5b613eec8254613c54565b613ef7828285613e33565b600060209050601f831160018114613f2a5760008415613f18578287015190505b613f228582613ea4565b865550613f8a565b601f198416613f3886613d14565b60005b82811015613f6057848901518255600182019150602085019450602081019050613f3b565b86831015613f7d5784890151613f79601f891682613e86565b8355505b6001600288020188555050505b505050505050565b7f4e487b7100000000000000000000000000000000000000000000000000000000600052601160045260246000fd5b6000613fcc8261303c565b9150613fd78361303c565b9250828201905080821115613fef57613fee613f92565b5b92915050565b600081905092915050565b600061400b82613197565b6140158185613ff5565b93506140258185602086016131b3565b80840191505092915050565b600061403d8285614000565b91506140498284614000565b91508190509392505050565b6000819050919050565b600061407a61407561407084614055565b613d98565b61303c565b9050919050565b61408a8161405f565b82525050565b600060408201905081810360008301526140aa81856131ee565b90506140b96020830184614081565b9392505050565b60006140d36140ce84613707565b6136ec565b9050828152602081018484840111156140ef576140ee613687565b5b6140fa8482856131b3565b509392505050565b600082601f830112614117576141166132f3565b5b81516141278482602086016140c0565b91505092915050565b60006020828403121561414657614145612fd4565b5b600082015167ffffffffffffffff81111561416457614163612fd9565b5b61417084828501614102565b91505092915050565b600060408201905061418e6000830185613276565b61419b6020830184613276565b9392505050565b6000819050919050565b60006141c76141c26141bd846141a2565b613d98565b61303c565b9050919050565b6141d7816141ac565b82525050565b60006080820190506141f26000830187613276565b6141ff60208301866141ce565b61420c60408301856130b2565b61421960608301846130b2565b95945050505050565b60006080820190506142376000830187613276565b61424460208301866130b2565b61425160408301856130b2565b61425e60608301846130b2565b95945050505050565b600060408201905061427c60008301856130b2565b61428960208301846130b2565b9392505050565b600080fd5b600080fd5b600080858511156142ae576142ad614290565b5b838611156142bf576142be614295565b5b6001850283019150848603905094509492505050565b6000819050919050565b60006142fa6142f56142f0846142d5565b613d98565b61303c565b9050919050565b61430a816142df565b82525050565b600060408201905061432560008301856130b2565b6143326020830184614301565b9392505050565b60006143448261303c565b91507fffffffffffffffffffffffffffffffffffffffffffffffffffffffffffffffff820361437657614375613f92565b5b600182019050919050565b600061438c8261303c565b91506000820361439f5761439e613f92565b5b600182039050919050565b600081519050919050565b600082825260208201905092915050565b60006143d1826143aa565b6143db81856143b5565b93506143eb8185602086016131b3565b6143f4816131dd565b840191505092915050565b60006080820190506144146000830187613276565b6144216020830186613276565b61442e60408301856130b2565b818103606083015261444081846143c6565b905095945050505050565b60008151905061445a81613108565b92915050565b60006020828403121561447657614475612fd4565b5b60006144848482850161444b565b91505092915050565b60006144988261303c565b91506144a38361303c565b92508282026144b18161303c565b915082820484148315176144c8576144c7613f92565b5b5092915050565b600060a0820190506144e46000830188613276565b6144f16020830187613276565b6144fe60408301866130b2565b61450b60608301856130b2565b818103608083015261451d81846143c6565b90509695505050505050565b60006145348261303c565b915061453f8361303c565b925082820390508181111561455757614556613f92565b5b92915050565b7f4e487b7100000000000000000000000000000000000000000000000000000000600052603160045260246000fdfea26469706673582212203ac8909cc7c23362b9060b510b25276b5922ec9ce63bc38185477b132389775f64736f6c634300081c0033",
  "linkReferences": {},
  "deployedLinkReferences": {}
}